:020000040800F2
:1000000000C0002021240008954B0008994B0008EF
:100010009D4B0008A14B0008A54B00080000000004
:10002000000000000000000000000000C15E0008A9
:10003000A94B000800000000355F0008C549000812
:10004000DD490008E5490008ED490008F5490008C8
:10005000FD490008054A00080D4A0008154A000835
:100060001D4A0008254A00082D4A0008354A0008A4
:100070003D4A0008454A0008294F00087D4F000806
:100080004D4A0008554A00085D4A0008654A0008C4
:100090006D4A0008754A00087D4A0008854A000834
:1000A0008D4A0008954A00089D4A0008A54A0008A4
:1000B000AD4A0008B54A0008851E0008BD4A000880
:1000C000C54A0008CD4A0008D54A0008DD4A0008A4
:1000D000E54A0008AD4B0008ED4A0008F54A000863
:1000E000FD4A0008054B00080D4B0008154B0008A1
:1000F0001D4B0008254B00082D4B0008354B000810
:100100003D4B0008454B0008115000084D4B0008BE
:10011000554B00085D4B0008654B00086D4B00080F
:10012000754B00087D4B0008854B00088D4B00087F
:1001300000000000000000000000000000000000BF
:1001400000000000000000000000000000000000AF
:10015000000000000000000000000000000000009F
:10016000000000000000000000000000000000008F
:10017000000000000000000000000000000000007F
:10018000000000000000000000000000000000006F
:10019000000000000000000000000000000000005F
:1001A000000000000000000000000000000000004F
:1001B000000000000000000000000000000000003F
:1001C000000000000000000000000000000000002F
:1001D000000000000000000000000000000000001F
:0401E0005FF8E0F1F3
:1001E800844641EA000313F0030349D1403A23D37C
:1001F8000B6803604B6843608B688360CB68C3609F
:100208000B6903614B6943618B698361CB69C36186
:100218000B6A03624B6A43628B6A8362CB6AC3626E
:100228000B6B03634B6B43638B6B8363CB6BC36356
:1002380040304031403ADBD230320BD30B68036098
:100248004B6843608B688360CB68C36010301031A3
:10025800103AF3D20C3205D351F8043B40F8043B72
:10026800043AF9D2043208D0D2071CBF11F8013B76
:1002780000F8013B01D30B8803806046704700BF3C
:10028800082A13D38B07B1D010F00303AED0C3F103
:100298000403D21ADB071CBF11F8013B00F8013B2D
:1002A800A4D331F8023B20F8023B9FE7043AD9D3A4
:1002B800013A11F8013B00F8013BF9D20B780370C1
:1002C8004B7843708B7883706046704781F00041AB
:1002D80002E000BF83F0004330B54FEA41044FEA23
:1002E800430594EA050F08BF90EA020F1FBF54EABE
:1002F800000C55EA020C7FEA645C7FEA655C00F05A
:10030800E2804FEA5454D4EB5555B8BF6D420CDD2A
:100318002C4480EA020281EA030382EA000083EAAD
:10032800010180EA020281EA0303362D88BF30BD4D
:1003380011F0004F4FEA01314FF4801C4CEA1131A3
:1003480002D0404261EB410113F0004F4FEA033302
:100358004CEA133302D0524263EB430394EA050F8D
:1003680000F0A780A4F10104D5F1200E0DDB02FAFC
:100378000EFC22FA05F2801841F1000103FA0EF290
:10038800801843FA05F359410EE0A5F120050EF156
:10039800200E012A03FA0EFC28BF4CF0020C43FA87
:1003A80005F3C01851EBE37101F0004507D54FF094
:1003B800000EDCF1000C7EEB00006EEB0101B1F5E4
:1003C800801F1BD3B1F5001F0CD349085FEA30002A
:1003D8004FEA3C0C04F101044FEA445212F5800F35
:1003E80080F09A80BCF1004F08BF5FEA500C50F1D2
:1003F800000041EB045141EA050130BD5FEA4C0CB5
:10040800404141EB010111F4801FA4F10104E9D13D
:1004180091F0000F04BF01460020B1FA81F308BF34
:100428002033A3F10B03B3F120020CDA0C3208DD00
:1004380002F1140CC2F10C0201FA0CF021FA02F1DB
:100448000CE002F11402D8BFC2F1200C01FA02F14B
:1004580020FA0CFCDCBF41EA0C019040E41AA2BF70
:1004680001EB0451294330BD6FEA04041F3C1CDA38
:100478000C340EDC04F11404C4F1200220FA04F058
:1004880001FA02F340EA030021FA04F345EA030102
:1004980030BDC4F10C04C4F1200220FA02F001FAC4
:1004A80004F340EA0300294630BD21FA04F0294646
:1004B80030BD94F0000F83F4801306BF81F48011DF
:1004C8000134013D4EE77FEA645C18BF7FEA655C52
:1004D80029D094EA050F08BF90EA020F05D054EA24
:1004E800000C04BF1946104630BD91EA030F1EBF29
:1004F8000021002030BD5FEA545C05D1400049412D
:1005080028BF41F0004130BD14F580043CBF01F51F
:10051800801130BD01F0004545F0FE4141F4700105
:100528004FF0000030BD7FEA645C1ABF19461046E0
:100538007FEA655C1CBF0B46024650EA013406BFE1
:1005480052EA033591EA030F41F4002130BD00BFA0
:1005580090F0000F04BF0021704730B54FF480645D
:1005680004F132044FF000054FF0000150E700BFDE
:1005780090F0000F04BF0021704730B54FF480643D
:1005880004F1320410F0004548BF40424FF000012A
:100598003EE700BF42004FEAE2014FEA31014FEA6D
:1005A80002701FBF12F07F4393F07F4F81F06051BC
:1005B800704792F0000F14BF93F07F4F704730B52B
:1005C8004FF4607401F0004521F0004120E700BFBE
:1005D80050EA010208BF704730B54FF000050AE045
:1005E80050EA010208BF704730B511F0004502D546
:1005F800404261EB41014FF4806404F132045FEA48
:10060800915C3FF4DCAE4FF003025FEADC0C18BFEC
:1006180003325FEADC0C18BF033202EBDC02C2F1E2
:10062800200300FA03FC20FA02F001FA03FE40EA74
:100638000E0021FA02F11444C1E600BF70B54FF074
:10064800FF0C4CF4E06C1CEA11541DBF1CEA135556
:1006580094EA0C0F95EA0C0F00F0DEF82C4481EABE
:10066800030621EA4C5123EA4C5350EA013518BFDE
:1006780052EA033541F4801143F4801338D0A0FBCB
:1006880002CE4FF00005E1FB02E506F00042E0FB78
:1006980003E54FF00006E1FB03569CF0000F18BF7E
:1006A8004EF0010EA4F1FF04B6F5007F64F5407426
:1006B80004D25FEA4E0E6D4146EB060642EAC621B9
:1006C80041EA55514FEAC52040EA5E504FEACE2E26
:1006D800B4F1FD0C88BFBCF5E06F1ED8BEF1004F29
:1006E80008BF5FEA500E50F1000041EB045170BDA5
:1006F80006F0004646EA010140EA020081EA0301E9
:10070800B4EB5C04C2BFD4EB0C0541EA045170BDE4
:1007180041F480114FF0000E013C00F3AB8014F15E
:10072800360FDEBF002001F0004170BDC4F10004A7
:10073800203C35DA0C341BDC04F11404C4F1200528
:1007480000FA05F320FA04F001FA05F240EA020083
:1007580001F0004221F0004110EBD37021FA04F6B9
:1007680042EB06015EEA430E08BF20EAD37070BD73
:10077800C4F10C04C4F1200500FA04F320FA05F0D2
:1007880001FA04F240EA020001F0004110EBD370D4
:1007980041F100015EEA430E08BF20EAD37070BD44
:1007A800C4F1200500FA05F24EEA020E20FA04F31D
:1007B80001FA05F243EA020321FA04F001F00041CC
:1007C80021FA04F220EA020000EBD3705EEA430E3D
:1007D80008BF20EAD37070BD94F0000F0FD101F06C
:1007E8000046400041EB010111F4801F08BF013CA5
:1007F800F7D041EA060195F0000F18BF704703F0E3
:100808000046520043EB030313F4801F08BF013D69
:10081800F7D043EA0603704794EA0C0F0CEA135525
:1008280018BF95EA0C0F0CD050EA410618BF52EADF
:100838004306D1D181EA030101F000414FF00000E5
:1008480070BD50EA410606BF1046194652EA4306F3
:1008580019D094EA0C0F02D150EA013613D195EA67
:100868000C0F05D152EA03361CBF104619460AD1AF
:1008780081EA030101F0004141F0FE4141F47001B9
:100888004FF0000070BD41F0FE4141F4780170BDA9
:1008980070B54FF0FF0C4CF4E06C1CEA11541DBF0E
:1008A8001CEA135594EA0C0F95EA0C0F00F0A7F810
:1008B800A4EB050481EA030E52EA03354FEA01313D
:1008C80000F088804FEA03334FF0805545EA131350
:1008D80043EA12634FEA022245EA111545EA106518
:1008E8004FEA00260EF000419D4208BF964244F1AF
:1008F800FD0404F5407402D25B084FEA3202B61ACE
:1009080065EB03055B084FEA32024FF480104FF4A1
:10091800002CB6EB020E75EB030E22BFB61A754615
:1009280040EA0C005B084FEA3202B6EB020E75EBA8
:10093800030E22BFB61A754640EA5C005B084FEA10
:100948003202B6EB020E75EB030E22BFB61A7546DD
:1009580040EA9C005B084FEA3202B6EB020E75EBE8
:10096800030E22BFB61A754640EADC0055EA060EA9
:1009780018D04FEA051545EA16754FEA06164FEAEC
:10098800C30343EA52734FEAC2025FEA1C1CC0D198
:1009980011F4801F0BD141EA00014FF000004FF025
:1009A800004CB6E711F4801F04BF01430020B4F1E6
:1009B800FD0C88BFBCF5E06F3FF6AFAEB5EB030C9E
:1009C80004BFB6EB020C5FEA500C50F1000041EB9B
:1009D800045170BD0EF0004E4EEA113114EB5C0468
:1009E800C2BFD4EB0C0541EA045170BD41F480113B
:1009F8004FF0000E013C90E645EA060E8DE60CEA43
:100A0800135594EA0C0F08BF95EA0C0F3FF43BAF5F
:100A180094EA0C0F0AD150EA01347FF434AF95EA16
:100A28000C0F7FF425AF104619462CE795EA0C0FFA
:100A380006D152EA03353FF4FDAE1046194622E7C7
:100A480050EA410618BF52EA43067FF4C5AE50EAA1
:100A580041047FF40DAF52EA43057FF4EBAE12E791
:100A68004FF0FF3C06E000BF4FF0010C02E000BF72
:100A78004FF0010C4DF804CD4FEA410C7FEA6C5C55
:100A88004FEA430C18BF7FEA6C5C1BD001B050EAF8
:100A9800410C0CBF52EA430C91EA030F02BF90EAE3
:100AA800020F0020704710F1000F91EA030F58BFA2
:100AB800994208BF90422CBFD8176FEAE37040F004
:100AC800010070474FEA410C7FEA6C5C02D150EAA2
:100AD800013C07D14FEA430C7FEA6C5CD6D152EA5D
:100AE800033CD3D05DF8040B704700BF8446104622
:100AF80062468C461946634600E000BF01B5FFF721
:100B0800B7FF002848BF10F1000F01BD4DF808EDF0
:100B1800FFF7F4FF0CBF012000205DF808FB00BFC1
:100B28004DF808EDFFF7EAFF34BF012000205DF81B
:100B380008FB00BF4DF808EDFFF7E0FF94BF012068
:100B480000205DF808FB00BF4DF808EDFFF7CEFF69
:100B580094BF012000205DF808FB00BF4DF808EDA8
:100B6800FFF7C4FF34BF012000205DF808FB00BF79
:100B78004FEA410212F5001215D211D56FF47873BD
:100B8800B3EB625212D94FEAC12343F0004343EA60
:100B9800505311F0004F23FA02F018BF404270473B
:100BA8004FF00000704750EA013005D111F00040C5
:100BB80008BF6FF0004070474FF00000704700BF5B
:100BC8004A0011D212F5001211D20DD56FF47873C4
:100BD800B3EB62520ED44FEAC12343F0004343EA19
:100BE800505323FA02F070474FF00000704750EA64
:100BF800013002D14FF0FF3070474FF000007047CE
:100C08004FEA4102B2F1E04324BFB3F5001CDCF126
:100C1800FE5C0DD901F0004C4FEAC0024CEA50705E
:100C2800B2F1004F40EB830008BF20F0010070478D
:100C380011F0804F21D113F13872BCBF01F0004090
:100C4800704741F480114FEA5252C2F11802C2F1C2
:100C5800200C10FA0CF320FA02F018BF40F0010043
:100C68004FEAC1234FEAD32303FA0CFC40EA0C00F5
:100C780023FA02F34FEA4303CCE77FEA625307D132
:100C880050EA01331EBF4FF0FE4040F44000704769
:100C980001F0004040F0FE4040F40000704700BF03
:100CA80080F0004002E000BF81F0004142001FBF19
:100CB8005FEA410392EA030F7FEA226C7FEA236C22
:100CC8006AD04FEA1262D2EB1363C1BFD218414017
:100CD80048404140B8BF5B42192B88BF704710F0AD
:100CE800004F40F4000020F07F4018BF404211F050
:100CF800004F41F4000121F07F4118BF494292EAB8
:100D0800030F3FD0A2F1010241FA03FC10EB0C00E3
:100D1800C3F1200301FA03F100F0004302D5494270
:100D280060EB4000B0F5000F13D3B0F1807F06D31D
:100D380040084FEA310102F10102FE2A51D2B1F115
:100D4800004F40EBC25008BF20F0010040EA03000A
:100D58007047490040EB000010F4000FA2F10102B7
:100D6800EDD1B0FA80FCACF1080CB2EB0C0200FA41
:100D78000CF0AABF00EBC25052421843BCBFD0408F
:100D88001843704792F0000F81F4000106BF80F409
:100D980000000132013BB5E74FEA41037FEA226CCC
:100DA80018BF7FEA236C21D092EA030F04D092F097
:100DB800000F08BF0846704790EA010F1CBF0020CB
:100DC800704712F07F4F04D1400028BF40F0004028
:100DD800704712F100723CBF00F50000704700F048
:100DE800004343F0FE4040F4000070477FEA22626F
:100DF80016BF08467FEA23630146420206BF5FEA40
:100E0800412390EA010F40F4800070474FF000033F
:100E180004E000BF10F0004348BF40425FEA000C06
:100E280008BF704743F0964301464FF000001CE0AE
:100E380050EA010208BF70474FF000030AE000BF04
:100E480050EA010208BF704711F0004302D5404242
:100E580061EB41015FEA010C02BF844601460020B4
:100E680043F0B64308BFA3F18053A3F50003BCFACF
:100E78008CF2083AA3EBC25310DB01FA02FC63447C
:100E880000FA02FCC2F12002BCF1004F20FA02F283
:100E980043EB020008BF20F00100704702F1200276
:100EA80001FA02FCC2F1200250EA4C0021FA02F2D7
:100EB80043EB020008BF20EADC7070474FF0FF0CDC
:100EC8001CEAD0521EBF1CEAD15392EA0C0F93EAD7
:100ED8000C0F6FD01A4480EA010C400218BF5FEA79
:100EE80041211ED04FF0006343EA501043EA5111EC
:100EF800A0FB01310CF00040B1F5000F3EBF4900E6
:100F080041EAD3715B0040EA010062F17F02FD2AE9
:100F18001DD8B3F1004F40EBC25008BF20F00100CC
:100F2800704790F0000F0CF0004C08BF49024CEAE3
:100F3800502040EA51207F3AC2BFD2F1FF0340EA75
:100F4800C250704740F400004FF00003013A5DDCE6
:100F580012F1190FDCBF00F000407047C2F1000227
:100F6800410021FA02F1C2F1200200FA02FC5FEA14
:100F7800310040F1000053EA4C0308BF20EADC705E
:100F8800704792F0000F00F0004C02BF400010F4D0
:100F9800000F013AF9D040EA0C0093F0000F01F07D
:100FA800004C02BF490011F4000F013BF9D041EA9F
:100FB8000C018FE70CEAD15392EA0C0F18BF93EAA1
:100FC8000C0F0AD030F0004C18BF31F0004CD8D1CB
:100FD80080EA010000F00040704790F0000F17BF52
:100FE80090F0004F084691F0000F91F0004F14D098
:100FF80092EA0C0F01D142020FD193EA0C0F03D1F0
:101008004B0218BF084608D180EA010000F00040F2
:1010180040F0FE4040F40000704740F0FE4040F4CD
:10102800400070474FF0FF0C1CEAD0521EBF1CEA6C
:10103800D15392EA0C0F93EA0C0F69D0A2EB03028A
:1010480080EA010C49024FEA402037D04FF0805324
:1010580043EA111143EA10130CF000408B4238BFE9
:101068005B0042F17D024FF4000C8B4224BF5B1AF7
:1010780040EA0C00B3EB510F24BFA3EB510340EA45
:101088005C00B3EB910F24BFA3EB910340EA9C00F3
:10109800B3EBD10F24BFA3EBD10340EADC001B0163
:1010A80018BF5FEA1C1CE0D1FD2A3FF650AF8B4207
:1010B80040EBC25008BF20F0010070470CF0004C14
:1010C8004CEA50207F32C2BFD2F1FF0340EAC2503F
:1010D800704740F400004FF00003013A37E792F000
:1010E800000F00F0004C02BF400010F4000F013A5E
:1010F800F9D040EA0C0093F0000F01F0004C02BF59
:10110800490011F4000F013BF9D041EA0C0195E7C1
:101118000CEAD15392EA0C0F08D142027FF47DAF5A
:1011280093EA0C0F7FF470AF084676E793EA0C0F4A
:1011380004D14B023FF44CAF08466EE730F0004C48
:1011480018BF31F0004CCAD130F000427FF45CAFD8
:1011580031F000437FF43CAF5FE700BF4FF0FF3C46
:1011680006E000BF4FF0010C02E000BF4FF0010C99
:101178004DF804CD4FEA40024FEA41037FEA226C62
:1011880018BF7FEA236C11D001B052EA530C18BF84
:1011980090EA010F58BFB2EB030088BFC81738BFE9
:1011A8006FEAE17018BF40F0010070477FEA226CD7
:1011B80002D15FEA402C05D17FEA236CE4D15FEAD3
:1011C800412CE1D05DF8040B704700BF8446084607
:1011D8006146FFE70FB5FFF7C9FF002848BF10F1C8
:1011E800000F0FBD4DF808EDFFF7F4FF0CBF01200D
:1011F80000205DF808FB00BF4DF808EDFFF7EAFF97
:1012080034BF012000205DF808FB00BF4DF808ED51
:10121800FFF7E0FF94BF012000205DF808FB00BF46
:101228004DF808EDFFF7D2FF94BF012000205DF8CC
:1012380008FB00BF4DF808EDFFF7C8FF34BF0120D9
:1012480000205DF808FB00BF53B94AB9002908BF60
:1012580000281CBF4FF0FF314FF0FF3000F03CB8C2
:1012680082B0EC462DE9005000F01EF8DDF804E0ED
:1012780002B00CBC704700BF2DE9F041069C9046B7
:1012880006460F461D4600F029F808FB01FCA8FB9E
:10129800002300FB05C5B21A2B4467EB03038646FF
:1012A800C4E90023BDE8F0812DE9F843089E1746FC
:1012B800804689461D4600F067F900FB05F3A0FB50
:1012C800074507FB0137B8EB04043D4469EB050506
:1012D800C6E90045BDE8F883704700BF00292DE93D
:1012E800F043C0F2A8800026002BC0F29E80814601
:1012F8008E4690469C46174604460D46002B3DD127
:101308008A4259D9B2FA82F33BB1C3F120029D4017
:1013180020FA02F29F4015439C40390CB5FBF1F0CE
:101328001FFA87FE01FB10550EFB00F3220C42EA60
:101338000545AB4209D9ED1900F1FF3280F00B8168
:10134800AB4240F2088102383D44ED1AB5FBF1F397
:1013580001FB13550EFB03FEA4B244EA0545AE4556
:1013680008D9ED1903F1FF3280F0F780AE4540F25D
:10137800F480023B43EA0043002203E08B420FD98A
:1013880000221346341C18BF012460424FF00005A8
:1013980065EB45015840514000196941BDE8F083AB
:1013A800B3FA83F2002A40F089808B4202D3804549
:1013B80000F2E2800123E5E712B90123B3FBF2F75B
:1013C800B7FA87F8B8F1000F3BD1ED1B4FEA174C7D
:1013D8001FFA87FE0122B5FBFCF00CFB10550EFB33
:1013E80000F3210C41EA0545AB4207D9ED1900F19C
:1013F800FF3102D2AB4200F2C3800846ED1AB5FBBA
:10140800FCF30CFB13550EFB03FEA4B244EA05459E
:10141800AE4507D9ED1903F1FF3102D2AE4500F20E
:10142800AD800B4643EA0043ACE752426FEA06063A
:1014380063EB43035BE7404261EB41014FF0FF364A
:1014480052E707FA08F7C8F1200225FA02F34FEA33
:10145800174CB3FBFCF11FFA87FE0CFB113324FA7F
:1014680002F205FA08F50EFB01F92A43100C40EACE
:101478000343994504FA08F407D9DB1901F1FF3051
:1014880078D2994576D902393B44C9EB0303B3FBBB
:10149800FCF00CFB10330EFB00F592B242EA03435A
:1014A8009D4207D9DB1900F1FF325FD29D425DD919
:1014B80002383B445D1B40EA01428CE7C2F120033D
:1014C80028FA03F10CFA02FC41EA0C0C4FEA1C4022
:1014D8002EFA03F1B1FBF0F51FFA8CF700FB15119A
:1014E80029FA03F30EFA02FE07FB05F943EA0E0E8A
:1014F8004FEA1E4343EA0141894508FA02F808D930
:1015080011EB0C0105F1FF3332D2894530D9023D88
:101518006144C9EB0101B1FBF0F300FB131107FBB8
:1015280003F71FFA8EFE4EEA014E774508D91EEBE7
:101538000C0E03F1FF3117D2774515D9023BE6446B
:1015480043EA0543A3FB0889C7EB0E0ECE4509D332
:1015580005D0002216E71046F7E613460AE794403E
:101568004445F6D2013BF4E70B46E9E71046A1E70C
:101578001D46CEE7014688E7134603E7023B51E7DD
:1015880002383D443AE700BF2DE9F043002B44D12F
:101598008A42154604464FD9B2FA82F70E464FB131
:1015A800C7F12003B94020FA03F602FA07F50E4303
:1015B80000FA07F42F0CB6FBF7F01FFA85FE07FBBD
:1015C80010620EFB00F1260C46EA0243994209D943
:1015D8005B1900F1FF3280F0EE80994240F2EB8017
:1015E80002382B44591AB1FBF7F307FB13110EFB12
:1015F80003FEA4B244EA01418E4508D9491903F112
:10160800FF3280F0DA808E4540F2D780023B43EA11
:10161800004000263146BDE8F0838B4247D8B3FA34
:1016280083F6002E48D18B4202D3824200F2CF804B
:1016380001203146BDE8F08312B90125B5FBF2F56A
:10164800B5FA85FCBCF1000F78D1491B2F0C1FFAA5
:1016580085FE0126B1FBF7F007FB10110EFB00F227
:10166800230C43EA01418A4207D9491900F1FF33A3
:1016780002D28A4200F2BC801846891AB1FBF7F3FD
:1016880007FB13110EFB03FEA4B244EA0142964580
:1016980008D9521903F1FF3180F09180964540F244
:1016A8008E80023B43EA00403146BDE8F0830026C5
:1016B80030463146BDE8F083C6F1200422FA04F52D
:1016C800B3402B4321FA04F74FEA1348B7FBF8FC61
:1016D8001FFA83F908FB1C7720FA04FE01FA06F5C5
:1016E80009FB0CF44EEA05054FEA154E4EEA07478A
:1016F800BC4202FA06F204D9FF180CF1FF3168D394
:101708008C463F1BB7FBF8F408FB147709FB04F978
:10171800ADB245EA0741894504D9C91804F1FF3536
:101728005DD32C4644EA0C44A4FB0223C9EB010117
:10173800994249D345D0204600266BE7CCF12004D6
:1017480005FA0CF521FA04F32A0CB3FBF2F61FFA9A
:1017580085FE02FB163820FA04F701FA0CF10EFB9D
:1017680006F90F433C0C44EA0843994500FA0CF487
:1017780007D95B1906F1FF3138D2994536D9023EAF
:101788002B44C9EB0303B3FBF2F002FB10330EFB4F
:1017980000F1BFB247EA0343994207D95B1900F148
:1017A800FF3721D299421FD902382B441746591ABC
:1017B80040EA06464EE7104614E7134627E70B466D
:1017C80070E7B0409042B6D2601E002622E730464D
:1017D80020E7BC4294D9ACF1020C1F4491E789453B
:1017E8009FD9023C19449DE73846DFE70E46C8E713
:1017F8000238294441E700BF08B500F011F8012874
:1018080003D1054802F008FE02E0044802F004FE95
:1018180002F016FD002008BDB4040108CC0401083C
:1018280008B500F0B5F8012805D100F007F801283F
:1018380002D0002000E0002040B208BDF0B589B019
:1018480002F078F8012804D02D4802F007FE0024A1
:1018580053E001F0F3FD0446012804D0294802F0C2
:10186800FDFD002449E02848284901F0B3FE284836
:10187800284901F0AFFE284B284A1360284FBB6166
:10188800502307936D4607F10C060FCE0FC596E857
:10189800070085E8070097E80E00002002F0A0F98D
:1018A800012829D11F4802F0B7FD00201E4902F087
:1018B80013FA10201D4902F00FFA14201C4902F0F7
:1018C8000BFA18201B4902F007FA20201A4902F0E7
:1018D80003FA2420194902F0FFF93020184902F0D0
:1018E800FBF93420174902F0F7F93820164902F0BD
:1018F800F3F900F07DFA00E0002460B209B0F0BD11
:10190800E4040108040501081C050108C1390008A0
:1019180024050108151B0008A54F0008D008002061
:10192800D408002030050108211A0008411A0008CF
:101938005D1A0008791A0008951A0008B11A0008FB
:10194800CD1A0008E51A0008FD1A000801207047A2
:1019580000B583B00023ADF8023002A901F8040DE8
:10196800184601220DF1020302F06EFA40B203B0EC
:101978005DF804FB00B583B00146002002AB23F8F4
:10198800020D012202F02CFA40B203B05DF804FB0C
:1019980010B54FF00060002100F030FE4FF44070A9
:1019A80000F0EAFD124B134A1A60134A9A60134A70
:1019B8005A6013494FF4E1320A608B60002002F04C
:1019C800F1F901280FD10F480F4B03600F4B8360CB
:1019D8000F4B436002F08AFC0446012805D10D48EC
:1019E80002F01AFD02E0002400E0002460B210BDFD
:1019F80014090020F94B0008D14C0008314D0008AB
:101A0800FC08002008090020551900087D19000865
:101A1800591900084405010800B583B0042A02D109
:101A280001A8FEF7DDFB00200199042202F068F806
:101A380003B05DF804FB00BF00B583B0042A02D1EF
:101A480001A8FEF7CDFB019800F066F903B05DF838
:101A580004FB00BF00B583B0042A02D101A8FEF739
:101A6800BFFB019800F060F903B05DF804FB00BF0C
:101A780000B583B0042A02D101A8FEF7B1FB019892
:101A880000F05AF903B05DF804FB00BF00B583B05D
:101A9800042A02D101A8FEF7A3FB019800F054F92B
:101AA80003B05DF804FB00BF00B583B0042A02D17F
:101AB80001A8FEF795FB019800F056F903B05DF810
:101AC80004FB00BF042A07D100B583B001A8FEF7C4
:101AD80087FB03B05DF804FB704700BF042A07D1F9
:101AE80000B583B001A8FEF77BFB03B05DF804FBEB
:101AF800704700BF042A07D100B583B001A8FEF7DC
:101B08006FFB03B05DF804FB704700BF2DE9F04799
:101B18009CB0064609A835494A22FEF761FB002415
:101B280001940294039404940594069407940894E9
:101B38002746A04648E0304621B202F045FA05465D
:101B480001A80021202205F04DF801A8691C2A7877
:101B580005F086FA9CB901A82549012205F036FA54
:101B680020B9244809A902F057FC2BE001A8224912
:101B7800012205F02BFA00BB4FF0010A22E023B244
:101B8800012B07D101A800210A2206F0BBFB5FFA4E
:101B980080F817E023B2022B08D101A816490122C8
:101BA80005F014FA60B94FF001090BE001A8002113
:101BB8000A2206F0A7FBC7B204E04FF0020A01E0D0
:101BC8004FF002090134A4B2304602F0F3F923B20F
:101BD8009842B0DC50464FFA88F14A467BB200F092
:101BE800D3F801201CB0BDE8F08700BF64050108E8
:101BF8005C0501085817010860050108074B5B7967
:101C0800012B04D1054A1368013313607047022B76
:101C180003D1024A1368013B136070472009002072
:101C2800074B5B79012B04D1054A13680133136014
:101C38007047022B03D1024A1368013B13607047B7
:101C480028090020034A002313605371024A1360D5
:101C580053717047280900202009002030B585B04D
:101C6800114C2168114B1A6800202060186041B19E
:101C78003AB10F4D684600F017FB9DE8070085E86C
:101C880007000B4C40202146042201F039FF442074
:101C9800211D042201F034FF482004F10801042228
:101CA80001F02EFF05B030BD2809002020090020D2
:101CB800B866002030B583B002E0C82002F0FAF917
:101CC800124B1C6820460021FFF78CFA0028F4D13B
:101CD8000F4B1D6828460021FFF784FA0028ECD135
:101CE8000094019502AB13E9030000F0BDFA012846
:101CF80003D0084802F0B2FB05E0FFF7AFFF64200D
:101D080002F0D8F9F9E703B030BD00BF340900206C
:101D180030090020B005010808B50146014802F065
:101D2800CBFB08BDCC05010808B50146014802F007
:101D3800C3FB08BDDC05010808B50146014802F0EF
:101D4800BBFB08BDEC05010810B50446FEF722FCF4
:101D580002460B46024802F0AFFB024B1C6010BD66
:101D6800FC0501083409002010B50446FEF712FCF2
:101D780002460B46024802F09FFB024B1C6010BD56
:101D88001806010830090020F8B505460F46144624
:101D98001E46114B5871114B5A71012A03D1104834
:101DA80002F08AFB04E0022A02D10E4802F084FB0A
:101DB800094B5B79012B03D10B4802F07DFB04E052
:101DC800022B02D1094802F077FB28463946224601
:101DD800334600F003FAF8BD280900202009002046
:101DE8007006010888060108A4060108BC06010857
:101DF80010B586B0194B0393194B0293194B0493F2
:101E080002AB93E8070000F065F8012804D01648F3
:101E180002F024FB00241DE000F0D6F9012804D0CC
:101E2800124802F01BFB002414E04FF48063009377
:101E38000DF117000E490022022302F0CDF90446E5
:101E4800012804D00B4802F009FB002402E00A48EC
:101E580002F0E2FA60B206B010BD00BF291C00080B
:101E6800051C00084D1C0008D4060108EC060108F2
:101E7800BD1C0008000701081C07010808B5134825
:101E880000238384012101F067F938B1104B9B6866
:101E980003B198470D48192101F05AF90B48082158
:101EA80001F05AF918B10A4B1B6803B19847074863
:101EB800102101F051F918B1054B5B6803B198473F
:101EC8000248192101F044F908BD00BF000800408C
:101ED8003809002070B58CB001AB83E80700029B7D
:101EE800002B75D0002875D03C4B01AA07CA83E89F
:101EF80007000420012100F043FD0820012100F023
:101F080031FD374E304600F0A7FE4FF44074ADF86F
:101F1800104048238DF8133003238DF81230314DCB
:101F2800284604A900F060FC2846214600F0AAFCD7
:101F38001E238DF8143000248DF815408DF81640B6
:101F480001258DF8175005A800F020FB42F2107308
:101F5800ADF82830244B1B68244AA2FB03239B09B5
:101F6800013BADF82430ADF82A40ADF826403046A4
:101F780009A900F071FF0823ADF81830ADF81A4030
:101F8800ADF81C50ADF81E40ADF82040304606A90B
:101F980001F0ACF80C23ADF81830ADF81A40ADF8E4
:101FA8001C50ADF81E40ADF82040304606A901F09F
:101FB8009DF83046192101F0CBF8304619212A4600
:101FC80001F02EF83046294601F00AF8284602E0CA
:101FD800002000E000200CB070BD00BF38090020D0
:101FE80000080040000C014000000020D34D6210A2
:101FF8002DE9F04182B00520012100F0B3FC402614
:10200800ADF8046018278DF8077003258DF8065081
:10201800244C204601A900F0E7FB2046314600F099
:1020280033FC0520012100F09DFC8026ADF80460FA
:102038004FF010088DF807808DF80650204601A94A
:1020480000F0D2FB2046314600F01EFC052001219D
:1020580000F088FC4FF48076ADF804608DF80780B6
:102068008DF80650204601A900F0BEFB20463146F7
:1020780000F00AFC0520012100F074FC4FF4006612
:10208800ADF804608DF807708DF80650204601A958
:1020980000F0AAFB2046314600F0F6FB02B0BDE88E
:1020A800F08100BF0008014070B588B04FF40060AF
:1020B800012100F057FC6323ADF818301B4B1B6857
:1020C8001B4AA2FB03239B0D013BADF814300025EE
:1020D800ADF81A50ADF816508DF81C50154C204626
:1020E80005A900F0B9FE6023ADF804300126ADF86B
:1020F8000660ADF80850ADF80A50ADF80C5020460F
:1021080001A900F037FF2046082100F0ABFF204668
:10211800314600F091FF2046314600F06FFF20461F
:10212800314600F05DFF08B070BD00BF0000002020
:102138006BCA5F6B002C014070B588B0022001218A
:1021480000F01EFC1D4C204600F086FD6323ADF810
:1021580018301B4B1B681B4AA2FB03239B0D013B3A
:10216800ADF814300025ADF81A50ADF816502046D9
:1021780005A900F071FE6023ADF804300126ADF822
:102188000660ADF80850ADF80A50ADF80C5020467E
:1021980001A900F0ABFE2046082100F05BFF2046B5
:1021A800314600F049FF2046314600F027FF20461F
:1021B800314600F015FF08B070BD00BF00040040B4
:1021C800000000206BCA5F6B08B5FFF711FFFFF72F
:1021D8006BFFFFF7B1FF012008BD00BFF8B5174638
:1021E8001D4A928D92B21D4CA48DA6B202FB01F13C
:1021F8001B4C84FB01E5C917C1EB6515ADB206FBA5
:1022080003F384FB0314DB17C3EB6414A4B20228A2
:1022180006D1551BADB21348802100F033FB03E013
:102228001048802100F030FB022F07D1341BA4B2E4
:102238000C484FF4807100F025FB04E009484FF486
:10224800807100F021FB0448294600F015FF03487F
:10225800214600F013FFF8BD00040040002C0140A7
:102268001F85EB510008014000B583B002AB03E9BC
:10227800030001980021FEF7B5FF60B9084B02AAD8
:1022880012E9030083E80300064B00221A605A6033
:102298009A60012000E0002003B05DF804FB00BF55
:1022A80050090020440900202DE9F04F87B0054669
:1022B80090460846FEF7AAFD554C26683146FEF7BB
:1022C800B1FE07464046FEF7A1FD3146FEF7AAFEDD
:1022D800804638464146FEF7E9FC4FF07C51FEF750
:1022E800EDFD064640463946FEF7DEFC6168FEF71E
:1022F80099FE0390FEF74EF982468B460CF040FF9C
:10230800804689463046FEF745F906460F46404660
:10231800494632463B46FEF791F9FEF771FC804686
:10232800504659460CF074FF864601F10044304689
:10233800394672462346FEF781F9FEF761FC82466C
:10234800344CA068FEF726F90CF01AFF06460F4633
:102358004046FEF71FF980468946304639464246D0
:102368004B46FEF76BF9CDE90401A068FEF712F9B8
:102378000CF04EFFCDE900015046FEF70BF906467A
:102388000F46DDE9000132463B46FEF757F90246A3
:102398000B46DDE90401FDF79DFFFEF731FC82469F
:1023A800A068FEF7F7F80CF033FF02460B464046EC
:1023B8004946FEF743F980468946A068FEF7EAF8E1
:1023C8000CF0DEFE02460B4630463946FEF736F97B
:1023D80002460B4640464946FDF77EFFFEF710FCD5
:1023E800064620685146FEF761FC20606068314669
:1023F800FEF75CFC6060A0680399FEF757FCA060DC
:1024080094E8070085E80700284607B0BDE8F08F84
:102418005009002044090020002103E00A4B5B58C2
:102428004350043109480A4B42189A42F6D3094AE4
:1024380002E0002342F8043B074B9A42F9D300F02C
:1024480073F8FFF7D9F970478B3D010800000020A9
:10245800CC080020D00800200867002082B00023A4
:10246800019300932C4A136843F4803313602A4B7A
:102478001B6803F400330093019B01330193009B15
:102488001BB9019BB3F5A06FF1D1234B1B6813F463
:10249800003F02D00123009301E000230093009B3A
:1024A800012B36D11D4B1A6842F010021A601A68C7
:1024B80022F003021A601A6842F002021A60A3F5B9
:1024C80080535A685A605A685A605A6842F480625F
:1024D8005A605A6822F47C125A605A6842F4E81228
:1024E8005A601A6842F080721A600B4B1B6813F02E
:1024F800007FFAD0084B5A6822F003025A605A68E3
:1025080042F002025A60044B5B6803F00C03082B8C
:10251800F9D102B0704700BF00100240002002400D
:1025280008B5FFF79BFF08BD08B5104B1A6842F0C5
:1025380001021A6059680E4A0A405A601A6822F065
:10254800847222F480321A601A6822F480221A6097
:102558005A6822F4FE025A604FF41F029A60FFF78D
:10256800DFFF4FF00062034B9A6008BD0010024085
:102578000000FFF800ED00E040F0BF6040F40030DC
:10258800014BD860704700BF00ED00E0C3780BB383
:1025980010B4184BDA68D243C2F30222C2F1040421
:1025A8000F2323FA02F1437803FA04F283780B40ED
:1025B80013431B010278DBB20F490A4482F8003347
:1025C8000378580903F01F03012202FA03F341F8C4
:1025D80020300BE003785A0903F01F0301219940CA
:1025E80002F12003044A42F8231070475DF8044BB7
:1025F800704700BF00ED00E000E100E021F060411D
:1026080021F07F010843014B9860704700ED00E01E
:10261800036823F001031B041B0C03600023036001
:1026280043608360C360364B984205D1354A53688E
:1026380043F00F0353607047334B984205D1314A3A
:10264800536843F0F00353607047304B984205D10C
:102658002C4A536843F47063536070472C4B98427C
:1026680005D1284A536843F4704353607047294B97
:10267800984205D1234A536843F470235360704746
:10268800254B984205D11F4A536843F470035360A1
:102698007047224B984205D11A4A536843F0706339
:1026A800536070471E4B984205D11E4A536843F049
:1026B8000F03536070471C4B984205D1194A536861
:1026C80043F0F00353607047184B984205D1154A00
:1026D800536843F4706353607047154B984205D1B3
:1026E800104A536843F4704353607047114B984243
:1026F80004D10C4A536843F470235360704700BFF9
:1027080008000240000002401C0002403000024065
:1027180044000240580002406C0002408000024021
:1027280008040240000402401C0402403004024035
:10273800440402405804024010B4036823F4FF43E1
:1027480023F070038C680A6A14430A6914434A69BF
:1027580014438A691443CA6914434A6A14438A6A47
:10276800224313430360CB6843600B6883604B6864
:10277800C3605DF8044B704721B1036843F001035F
:1027880003607047036823F001031B041B0C0360FC
:10279800704700BF1AB103681943016070470368A6
:1027A80023EA01010160704710F0805F02D0054BF9
:1027B8001B6801E0044B1B68034201D001207047ED
:1027C80000207047000402400000024010F0805FC3
:1027D80002D0034B58607047024B5860704700BFE7
:1027E8000004024000000240F0B5CB7803F00F026D
:1027F800154613F0100F01D08D7815430B78E3B10F
:102808000668002216E0012393400C881C409C4275
:102818000FD197000F24BC4026EA040605FA07F4F6
:102828002643CC78282C01D1436102E0482C00D102
:1028380003610132072AE6D906600B88FF2B20D9ED
:10284800476800241AE004F10802012393400A882B
:102858001A409A4211D14FEA840E0F2202FA0EF65C
:1028680027EA060205FA0EF71743CA78282A00D184
:102878004361CA78482A00D103610134072CE2D9A0
:102888004760F0BD016170474161704710B4294B42
:102898005B6803F00C03042B05D0082B06D013BB90
:1028A800254B036021E0244B03601EE0214A536856
:1028B8005268C3F38343023312F4803F04D11F4AA2
:1028C80002FB03F3036010E01A4A526812F4003F57
:1028D80004D01A4A02FB03F3036006E0164A02FB1F
:1028E80003F3036001E0144B0360124A5368C3F317
:1028F8000313134CE15CC9B20368CB4043605168D1
:10290800C1F30221615CC9B223FA01F18160516807
:10291800C1F3C221615CC9B2CB40C3605268C2F343
:10292800813208498A5CD2B2B3FBF2F303615DF8E5
:10293800044B70470010024000127A0000093D0065
:10294800080000200400002021B1054B5A691043FB
:1029580058617047024A536923EA00005061704782
:102968000010024021B1054B9A69104398617047E5
:10297800024A936923EA0000906170470010024000
:1029880021B1054BDA691043D8617047024AD3690F
:1029980023EA0000D06170470010024021B1054BC6
:1029A800DA681043D8607047024AD36823EA000007
:1029B800D06070470010024021B1054B1A691043DE
:1029C80018617047024A136923EA000010617047D2
:1029D800001002402DE9F041038803F441570D88A7
:1029E8004E888C88B1F806800A89B1F80AC08B89AC
:1029F800B1F80EE03543254348EA050414434CEA90
:102A080004021A434EEA02033B430380838B23F4F8
:102A180000631B041B0C83830B8A0382BDE8F081CF
:102A280029B103889BB243F04003038070470388B1
:102A380023F040031B041B0C0380704722B18388DA
:102A48009BB21943818070478388C94389B2194072
:102A58008180704729B103889BB243F400530380F7
:102A68007047038823F400531B041B0C0380704732
:102A780030B4048C24F001042404240C0484048B52
:102A8800058CADB224F0F3042404240C1B019BB282
:102A98001A431443124B984212D003F5006398422C
:102AA8000ED0B0F1804F0BD0A3F59833984207D0E1
:102AB80003F58063984203D003F58063984205D1FB
:102AC80025F00205294341F0010104E025F00A033D
:102AD800194341F001010483018430BC704700BFF1
:102AE800002C014070B4048C24F010042404240C3D
:102AF8000484048B058CADB20E01B6B224F4407484
:102B08002405240D1B039BB21C43120292B21443EA
:102B1800124B984212D003F5006398420ED0B0F1E0
:102B2800804F0BD0A3F59833984207D003F5806304
:102B3800984203D003F58063984205D125F020011F
:102B4800314341F0100104E025F0A005294341F08C
:102B580010010483018470BC704700BF002C014041
:102B680070B4048C24F480742404240C0484848BAE
:102B7800058CAEB20D02ADB224F0F3042404240C8B
:102B88001B019BB21A431443124B984212D003F50F
:102B9800006398420ED0B0F1804F0BD0A3F5983364
:102BA800984207D003F58063984203D003F5806309
:102BB800984205D126F40071294341F4807104E05C
:102BC80026F42063194341F480718483018470BC26
:102BD800704700BF002C014070B4058C25F4805567
:102BE8002D042D0C0584858B048CA4B20E03B6B27B
:102BF80025F440752D052D0D120292B215431B03C5
:102C08009BB21D43134B984212D003F500639842C0
:102C18000ED0B0F1804F0BD0A3F59833984207D06F
:102C280003F58063984203D003F58063984205D189
:102C380024F40054344344F4805406E024F400742B
:102C48006404640C0C4344F480548583048470BC8D
:102C5800704700BF002C014008B56F4B98420AD15D
:102C68004FF400600121FFF799FE4FF40060002146
:102C7800FFF794FE08BDB0F1804F08D1012001464E
:102C8800FFF79AFE01200021FFF796FE08BD634B6F
:102C9800984208D102200121FFF78EFE0220002170
:102CA800FFF78AFE08BD5E4B984208D10420012137
:102CB800FFF782FE04200021FFF77EFE08BD594B76
:102CC800984208D108200121FFF776FE082000214C
:102CD800FFF772FE08BD544B984208D1102001211D
:102CE800FFF76AFE10200021FFF766FE08BD4F4B74
:102CF800984208D120200121FFF75EFE2020002104
:102D0800FFF75AFE08BD4A4B98420AD14FF40050CB
:102D18000121FFF743FE4FF400500021FFF73EFE6C
:102D280008BD444B98420AD14FF400200121FFF717
:102D380035FE4FF400200021FFF730FE08BD3E4B62
:102D480098420AD14FF480100121FFF727FE4FF473
:102D580080100021FFF722FE08BD384B98420AD1A7
:102D68004FF400100121FFF719FE4FF40010002165
:102D7800FFF714FE08BD324B984208D140200121CC
:102D8800FFF71AFE40200021FFF716FE08BD2D4B65
:102D9800984208D180200121FFF70EFE80200021F3
:102DA800FFF70AFE08BD284B98420AD14FF48070FD
:102DB8000121FFF701FE4FF480700021FFF7FCFDB1
:102DC80008BD224B98420AD14FF480300121FFF709
:102DD800E5FD4FF480300021FFF7E0FD08BD1C4BF6
:102DE80098420AD14FF400300121FFF7D7FD4FF484
:102DF80000300021FFF7D2FD08BD164B984209D1DB
:102E08004FF480200121FFF7C9FD4FF480200021F5
:102E1800FFF7C4FD08BD00BF002C014000040040BE
:102E280000080040000C0040001000400014004062
:102E380000340140004C0140005001400054014062
:102E480000180040001C00400020004000400140E5
:102E5800004401400048014003889BB2214A904247
:102E680012D002F5006290420ED0B0F1804F0BD024
:102E7800A2F59832904207D002F58062904203D0C2
:102E880002F58062904203D123F070034A8813430D
:102E9800154A904208D002F58062904204D023F48B
:102EA80040739BB2CA88134303808B8883850B8841
:102EB80003850C4B98420FD003F5006398420BD062
:102EC80003F54063984207D003F58063984203D026
:102ED80003F58063984201D10B7A0386012383822C
:102EE800704700BF002C01400010004030B4038C34
:102EF80023F001031B041B0C0384038C8488A4B2F5
:102F0800028B22F073021204120C0D882A4323F05C
:102F180002031B041B0C0D892B434D882B43144DB6
:102F2800A8420FD005F50065A8420BD005F540650D
:102F3800A84207D005F58065A84203D005F580654D
:102F4800A8420DD123F008034D892B4323F0040335
:102F58008D882B4324F440748D892C43CD892C43D0
:102F680084800283CA888286038430BC704700BF8D
:102F7800002C014030B4038C23F480531B041B0C39
:102F88000384038C8588ADB2828B22F4E642120456
:102F9800120C0C882402A4B2224323F400531B040D
:102FA8001B0C0C892403A4B223434C882403A4B229
:102FB80023430A4CA04203D004F50064A04205D183
:102FC80025F480458C89A401A4B225438580828399
:102FD800CA88A0F84020038430BC7047002C014008
:102FE80029B103889BB243F001030380704703882B
:102FF80023F001031B041B0C0380704749B1B0F890
:1030080044306FEA43436FEA53439BB2A0F844301D
:103018007047B0F84430C3F30E03A0F8443070474B
:1030280022B183899BB21943818170478389C9433F
:1030380089B219408181704729B103889BB243F056
:10304800800303807047038823F080031B041B0C54
:1030580003807047038B23F008031B041B0C1943E0
:1030680001837047838B23F400631B041B0C090244
:1030780089B20B438383704781867047A0F840105C
:10308800704700BF038B23F00C031B041B0C038346
:10309800038B9BB219430183704700BF038B23F452
:1030A80040631B041B0C0383038B9BB2090289B288
:1030B80019430183704700BF838B23F00C031B0463
:1030C8001B0C8383838B9BB219438183704700BF9A
:1030D800838B23F440631B041B0C8383838B9BB279
:1030E800090289B219438183704700BF38B5054684
:1030F8000C460B884BB94988A2882389FFF7B8FC8E
:103108002846E188FFF7BEFF38BD042B09D149885E
:10311800A2882389FFF7E6FC2846E188FFF7BEFF6F
:1031280038BD082B09D14988A2882389FFF718FDE3
:103138002846E188FFF7C0FF38BD4988A28823895F
:10314800FFF74AFD2846E188FFF7C2FF38BD00BFF8
:10315800C94389B201827047028A83890B401142B0
:1031680002D01BB90020704700207047012070472B
:10317800C94389B20182704730B587B004460D460D
:10318800038A23F440531B041B0CCA88134303828D
:1031980083899BB223F4B05323F00C01A8882A89B1
:1031A8006B89024313430B43A381A38A23F440731F
:1031B8001B041B0CAA891343A38201A8FFF766FB13
:1031C8001E4B9C4201D1049B00E0039BA28912B2D2
:1031D800002A08DA03EB830303EB83032968490019
:1031E800B3FBF1F107E003EB830303EB83032968E7
:1031F8008900B3FBF1F1124BA3FB01235809050128
:10320800642300FB1313A28912B2002A09DAD90039
:1032180032310B4AA2FB0131C1F3421242EA0503E3
:1032280007E01B013233064AA2FB0323C3F343130F
:103238002B439BB2238107B030BD00BF003801404B
:103248001F85EB5129B183899BB243F400538381D5
:103258007047838923F400531B041B0C8381704738
:1032680010B4C1F3421401F01F0101238B40012C5B
:1032780001D10C3004E0022C01D1103000E01430F0
:103288001AB102681343036003E0026822EA0303E9
:1032980003605DF8044B7047C1F3080181807047F3
:1032A8008088C0F3080070470388194201D00120C4
:1032B80070470020704700BFC94389B2018070473A
:1032C80010B4C1F3421201F01F040123A340012AE4
:1032D80003D1828992B2134008E0022A03D1028AFC
:1032E80092B2134002E0828A92B21340090A012284
:1032F8008A40018889B20A4013B11AB9002002E055
:10330800002000E001205DF8044B704710B501F083
:1033180023F81B281FD00D2803D10122344B1A7023
:1033280019E0082809D1334B1B68A3B1013B0021E0
:10333800314AD1542F4A13600DE0A0F12003DBB2CB
:103348005E2B53D82B4B1B68FF2B04D82A4AD0542A
:103358000133284A1360264B1B78002B33D02748AB
:1033680003F092FC264B1B68986802F0CDFF214BB6
:103378001B6873B1234C20482146002200F00EFA46
:103388002148214603F080FC1D4B1B68986802F019
:10339800BBFF194800214FF4807203F023FC00247E
:1033A800144B1C6019481A4903F06EFC144B1B6837
:1033B800986802F0A9FF01F0A9FA164B18600C4BA7
:1033C8001C70012010BD134B186801F0C1FA01F000
:1033D800C9FA01F0D5FA0D48074903F055FC084B26
:1033E8001B68986802F090FF012010BD002010BDF6
:1033F800180000205C0C00205C0B0020E01E010877
:10340800500400205C0900203807010858170108FB
:10341800400701085809002008B5642000F04AFE5A
:1034280001F078F808BD00BF08B5FFF7F5FFFFF712
:103438006DFF642000F03EFEF9E700BF10B584B0D0
:103448004FF4806300930DF10F0009490022022315
:1034580000F0C2FE0446012804D0064800F0FEFF32
:10346800002402E0044800F0D7FF60B204B010BDA9
:1034780031340008500701087007010870B5C0B062
:1034880004460E46684600214FF4807203F0AAFBFA
:10349800204603F06DFDB0F5807F04DD134800F091
:1034A800DDFF00201FE0204603F062FD024668466B
:1034B800214603F0D5FD68460D4904F0C1FD0546D7
:1034C80048B9204603F054FD02463046214603F031
:1034D800C7FD012007E003F04BFD024630462946B0
:1034E80003F0BEFD012040B070BD00BF9007010889
:1034F800AC07010870B5C0B004460E466846002106
:103508004FF4807203F06EFB204603F031FDB0F5F6
:10351800807F04DD2A4800F0A1FF00204DE020460E
:1035280003F026FD02466846214603F099FD002374
:1035380033606846292103F057FC044608B100238C
:1035480003706846282103F04FFCA8B324B91D482E
:1035580000F084FF002030E001301B4904F070FDCA
:10356800044600F0FBFC306022E0212000F04EFD14
:10357800054620B9154800F071FF00201DE02046DF
:1035880003F0F6FCC2B22A70202A04D9104800F0D1
:1035980065FF002011E0681C214603F061FD3068DA
:1035A800294600F0F1FC0020074904F049FD0446D3
:1035B800002CDAD1012000E0012040B070BD00BF2E
:1035C80090070108B0070108E8070108EC0701089F
:1035D800040801082DE9F04129B9174800F03EFF19
:1035E8000020BDE8F08180460E46144B18881F283D
:1035F80005D9134800F032FF0020BDE8F081114DD5
:1036080000EB4000C00028440130414603F052FC62
:103618000A4F3C88404603F0ABFC04EB4403DB0054
:10362800E8543B8803EB4302D20015446E61013332
:103638003B800120BDE8F0812808010868110020BE
:1036480048080108680E0020F0B587B000230293EF
:10365800039304930593019321B92E4800F0FEFECD
:10366800002454E005460E4602A9FFF707FF04466A
:1036780018B9294800F0F2FE49E0284601A9FFF7E9
:1036880039FF0446E0B9254800F0E8FE3FE0244A47
:103698006B002B44DB00D018013002A9D25C03F088
:1036A80095FC50B905EB4502D2001E4B13445B68EC
:1036B800019831469847074609E00134A4B200E072
:1036C800002425B2184B1B889D42E0DB0127164BCE
:1036D8001B889D4207D1154800F0C0FE30461449AA
:1036E80003F062FB0027019C08E0204600F078FC0C
:1036F80000F090FC204600F079FC0446204600F0DB
:103708007BFC0028F1D0019800F030FC3C4660B208
:1037180007B0F0BD7008010894080108A80801085E
:10372800680E0020780E002068110020C0080108EB
:10373800D408010870B584B0154B1868002100F052
:103748008BFC144B186800F0CFFB0128F4D0114B08
:10375800186800F0E9FB044618B90F4800F07EFE2F
:10376800EAE70068A16AFFF76FFF84F82C00684653
:1037780001F0AEF804F118069DE80F0086E80F0086
:10378800012384F82D30606800F05EFCD4E700BFA8
:10379800640E0020600E0020E80801082DE9F04FB3
:1037A80099B00D9121B9594800F058FE0020AAE0BF
:1037B80007461646302000F029FC044620B9544834
:1037C80000F04CFE00209EE0524B186800F080FB91
:1037D800012804D1504800F041FE002093E04F4DED
:1037E800284600214FF4007203F0FCF92760A56217
:1037F80010AF384601F06CF804F1080597E80F009F
:1038080085E80F00201D00F009FC002384F82D3006
:10381800404B1868214600F071FB414B186800F0D6
:1038280013FC032208E06068314600F015FC94F8A8
:103838002D30EAB2012B05D0531EDDB2002AF2D199
:10384800012500E000250023149315931693179380
:1038580094F92C30012B04D114A8324903F0A4FAAE
:1038680003E014A8304903F09FFAD4E90623D4E909
:103878000289CDE90E23B2EB080863EB09094FEA88
:1038880089034FEA880643EA98777B0143EAD663BF
:103898007201901B63EB070110EB080241EB09036F
:1038A800DB0043EA5273D2000A920B93D4E90889E9
:1038B800D4E904ABB8EB0A0669EB0B07A26AD4E9B2
:1038C8000201CDE90001CDE902ABDDE90E01CDE948
:1038D8000401CDE90689DDE90A0180197941CDE9BC
:1038E80008010D98114914AB03F0F4F9606800F071
:1038F800C7FB204600F08EFB25B10D4800F0AEFD59
:10390800002000E0012019B0BDE8F08F0809010887
:103918002C090108600E002054090108600C0020E1
:10392800640E00206C090108740901087C0901086B
:10393800A009010810B584B0174800214FF440725F
:1039480003F050F90022154B1A80102000F0A6FA57
:10395800134B186020B9134800F080FD002417E0CD
:10396800114800F05BFB4FF4806300930DF10F00EA
:103978000E490022022300F02FFC0446012804D03F
:103988000B4800F06BFD002402E00A4800F044FDFB
:1039980060B204B010BD00BF680E0020681100209E
:1039A800600E0020BC090108640E00203D370008A5
:1039B800D8090108FC09010830B587B06C46094DE3
:1039C8000FCD0FC495E8030044F8040B24F8021B3C
:1039D800090C21700448694600F01EFD012007B05B
:1039E80030BD00BF240A010858170108704700BFFE
:1039F80008B5024B186800F027FB08BDFC12002030
:103A0800F8B506460F461546074C206800F042FBFD
:103A1800064B1968384631442A46FCF7E1FB206812
:103A280000F040FBF8BD00BFF01200206C11002030
:103A380000B589B0002106E02F4B1B685B5CA52B05
:103A480003D0013189B21F29F6D92B4B1B6805A871
:103A580019440922FCF7C4FBB5238DF80430BDF8DE
:103A68001530ADF8053000238DF8073001228DF8A8
:103A780008208DF809308DF80A308DF80B308DF854
:103A88000C308DF80D308DF80E309DF818309342BB
:103A980005D100238DF80F308DF8103003E0BDF804
:103AA8001B30ADF80F30154B186801A90D22FCF733
:103AB80097FB9DF818306BB9104B1968BDF81900C1
:103AC8000D31BDF81B20FFF79BFFBDF81B000D3023
:103AD80080B200E00D200022134605E0074909687E
:103AE800C95C4A4001339BB28342F7D3034B1B683E
:103AF8001A5409B05DF804FBF4120020F8120020F3
:103B0800F8B507460E461546074C206800F0C2FA7D
:103B1800064B1868384431462A46FCF761FB206892
:103B280000F0C0FAF8BD00BFF01200206C110020B0
:103B3800F0B585B0002406E0214B1B681B5DA52B62
:103B480003D00134A4B21F2CF6D91E2C35D81C4B37
:103B5800196801A821440922FCF742FB9DF80830A6
:103B68005BB3BDF80960BDF80B70154B1B680934D1
:103B78001C44304621463A46FFF7C2FF002519E0AB
:103B88002AB202EB42039B000E49CB5AB3420FD133
:103B980002EB42039B000B441B7A012B08D102EB7A
:103BA800420292000A445368304621463AB2984786
:103BB8000135ADB22BB21F2BE2DD05B0F0BD00BF61
:103BC800F41200207011002008B5044B1868002179
:103BD80000F042FAFFF7ACFFF7E700BFFC12002045
:103BE80084B030B585B0044609A880E80E00BDF958
:103BF8004C0000F00BFA2D4B1860002848D09DF8B7
:103C0800283073B9202000F001FA294D28602020BF
:103C180000F0FCF9274B18602B68002B3AD00028DD
:103C28003AD0244B1B680D93214B1B680B93202320
:103C3800ADF83830ADF8303001238DF828301E4B00
:103C480010931E4B11931E4B1293204609A900F0A6
:103C580083F8012822D11B4800F0E0F900F014FA9B
:103C6800194B18604FF4806300930DF10F0017494A
:103C78000022032300F0B0FA0446012804D01448B7
:103C880000F0ECFB00240AE0124800F0C5FB06E057
:103C9800002404E0002402E0002400E0002460B2D4
:103CA80005B0BDE8304004B0704700BF6C1100207B
:103CB800F8120020F4120020F5390008393A0008FB
:103CC800F9390008FC120020F0120020D13B00084E
:103CD800841B0108A41B010870B4002317E01CB260
:103CE80004EB440292001B4DAA5A82420DD104EB08
:103CF800440292002A44127A012A06D104EB4404B1
:103D0800A4002C446160012022E001339BB21AB266
:103D18001F2AE4DD002213E014B204EB44039B00E5
:103D28000C4D2B441B7A4BB92A4665002B199B0076
:103D3800D618D05271600123337205E0013292B275
:103D480013B21F2BE8DD00230BB9002000E001208F
:103D580070BC70477011002070B584B00546C3B2BE
:103D6800012B15D80C46A9B18E6901AB01F11C02D3
:103D780007CA83E8070063690093231D0FCBB04788
:103D8800012809D1064B43F825400123237004E09C
:103D9800002002E0002000E0002040B204B070BD26
:103DA8000013002038B50546C3B2012B0ED80C46C7
:103DB80071B18B6873B11B6808689847034650B1A6
:103DC800064B43F825400123237104E0002302E059
:103DD800002300E0002358B238BD00BF08130020BC
:103DE800F8B51C46C3B2012B1CD80D461646D9B1EE
:103DF800E4B1144B53F82030D3B11A79D2B19F688B
:103E08000AE0BB6800B228449847A8B1B0F1FF3F68
:103E180014D0238801332380208803B2B342F0D121
:103E280001200CE000200AE0002008E0002006E065
:103E3800002004E0002002E0002000E0FF2040B263
:103E4800F8BD00BF08130020F8B51C46C3B2012B0B
:103E580018D80D461646B9B1C4B10F4B53F82030E7
:103E6800B3B11A79B2B19F6806E07A681BB2E85C10
:103E7800904723880133238023881AB2B242F4D1B1
:103E88000120F8BD0020F8BD0020F8BD0020F8BDD5
:103E98000020F8BD0020F8BD0813002038B50546FD
:103EA8000C2000F0B3F888B10446A80000F0AEF882
:103EB800206020B9204600F0ADF8002038BD6581AB
:103EC8000023A380E3802381204638BD002038BD2D
:103ED80028B1428903899A4203D101207047012001
:103EE80070470020704700BF18B103891BB100203C
:103EF8007047002070470120704700BF034688B113
:103F080081B10268C08842F82010DA88501C5989AB
:103F1800884202D10022DA8001E00132DA801A896F
:103F280001321A81704700BF90B110B4034601688E
:103F3800828851F82200541C59898C4202D10022EF
:103F48009A8001E001329A801A89013A1A8101E0C7
:103F5800002070475DF8044B704700BF08B5082083
:103F680000F054F800220260426008BD034630B9F0
:103F780070475C68184600F04DF8234600E010B51D
:103F8800002BF6D110BD00BF90B138B50D460446E0
:103F980069B1082000F03AF8024640B105600023F4
:103FA800436000E01C466368002BFBD1626038BDAB
:103FB800704700BF4368002002E0013080B25B68B0
:103FC800002BFAD100B270474268002304E08B420C
:103FD80004D001339BB25268002AF8D110687047A8
:103FE80008B1006870470020704700BF08B14068FA
:103FF80070470020704700BF18B143681BB9012003
:104008007047012070470020704700BF08B501F0D5
:10401800E9FF08BD08B502F043F808BD10B504462D
:1040280001200021032201F08BFD206020B1002136
:104038000A460B4601F0B4FD2068002101220B4618
:1040480001F068FE10BD00BF08B500210A460B4606
:1040580001F0A6FD08BD00BF10B5044649B92046C9
:1040680000214FF0FF320B4601F054FE0128F6D133
:1040780010BD0A4600210B4601F04CFE10BD00BFE2
:1040880008B501F0E7FE08BD08B5012001F00EFEF5
:1040980008BD00BF08B500214FF0FF320B4601F004
:1040A80039FE08BD08B500210A460B4601F078FD27
:1040B80008BD00BF38B50546002403E0012001F023
:1040C80031FA0134AC42F9D338BD00BF00220AE00E
:1040D80053B2C3EBC3039B000649CB5C0BB9D0B208
:1040E80005E00132D2B253B20F2BF1DDFF2040B20E
:1040F800704700BF141300202DE9F04184B0304B05
:104108001868FFF7A1FF2F4800F0D6F90227042608
:104118002B4B18680021FFF79FFF00244CE065B285
:10412800C5EBC5039B00284AD35C012B42D1C5EBE4
:10413800C5039B0013441B7A013B032B03D8DFE81C
:1041480003F014050B114FF0020810E0022F01DCF8
:104158000137FFB2B8460AE0052E01D80136F6B29B
:10416800B04604E04FF0070801E04FF00108EB000B
:104178005B1B9B00144A13441869191D9A895B69D3
:10418800CDF8008001910021029103910F4900F0C0
:10419800EDFF012804D00E48414600F05FF9B7E76B
:1041A800C5EBC505AD000222074B5A5509484146E3
:1041B80000F082F90134E4B263B20F2BAFDDA7E758
:1041C80010130020C41B0108141300209C090108C7
:1041D800E01B0108081C0108F8B520B10C46174679
:1041E8001E46054621B9124800F038F90020F8BDEE
:1041F800FFF76CFFB0F1FF3F04D10E4800F02EF935
:104208000020F8BD0C49C200131A9B000B441C6126
:104218005F611E72069CDC602870131A9B000124E3
:10422800CC54064895F9001000F046F92046F8BD30
:10423800381C0108641C010814130020881C01089C
:1042480000B587B00F48FFF7E9FE0123009305ABDF
:1042580001930023029303930B480C494FF4807297
:1042680000F084FF012804D0094800F0F7F8002086
:1042780005E0084800F020F901F020F8012007B017
:104288005DF804FB1013002001410008C41C01085C
:10429800CC1C0108E81C01080346094A126812B937
:1042A8000849074A1160064A106803446A4693425F
:1042B80002D8034A136070474FF0FF30704700BFC1
:1042C800D4140020086700204FF400534B600020EE
:1042D800704700BF022801D80120704700207047AE
:1042E800002070474FF0FF30704700BF08B530B16D
:1042F800054B186003689847034610B902E000238D
:1043080000E0012358B208BDD814002010B50446B7
:10431800034B1B685B6803B19847204610BD00BF7C
:10432800D814002008B5C0B2FFF7F0FF08BD00BFE1
:10433800012807D00DE04D1C0878FFF7F3FF013482
:10434800294602E070B516460024B442F3DB304635
:1043580070BD4FF0FF30704700B583B0074B1B6846
:104368009B6823B10DF107009847012802D19DF8F9
:10437800070000E0002003B05DF804FBD81400201B
:1043880008B5FFF7E9FF08BD40B10FE0FFF7F8FFF8
:1043980010B1307001340136013503E070B50E46B6
:1043A80000242546002DF1DD204670BD4FF0FF307A
:1043B800704700BF0FB470B5A2B001A800218022D9
:1043C80002F010FC00252E4614E0013C02D106E064
:1043D8004CF25034FFF7C0FF03460028F5D00CB963
:1043E80056B911E02AB222A90A4402F8843C0135E0
:1043F800ADB201367F2EEBDD27AA219201A82699BE
:1044080007F0AEFB012000E0FF2040B222B0BDE87B
:10441800704004B0704700BF0FB430B5C3B046ACAD
:1044280054F8045B01A800214FF4807202F0DAFB13
:10443800419401A82946224607F060FB002805DBC5
:1044480001A802F021FC044802F01EFC43B0BDE8BC
:10445800304004B0704700BFE01E01080FB430B50B
:10446800C3B046AC54F8045B01A800214FF4807235
:1044780002F0B8FB419401A82946224607F03EFB0A
:1044880000280DDB09482521292200F087FA084871
:1044980002F0FAFB01A802F0F7FB064802F0F4FB71
:1044A80043B0BDE8304004B0704700BF041D0108A8
:1044B8000C1D0108101D01080FB430B5C3B046AC7F
:1044C80054F8045B01A800214FF4807202F08AFBC3
:1044D800419401A82946224607F010FB00280DDB6D
:1044E80009482821212200F059FA084802F0CCFB9B
:1044F80001A802F0C9FB064802F0C6FB43B0BDE8BC
:10450800304004B0704700BF141D01080C1D01089D
:10451800101D0108F0B5C1B0684600214FF4807243
:1045280002F060FBCF4802F0AFFBCF4802F020FD5D
:10453800083087B2002405E06846CC4902F034FC14
:104548000134E4B27D080135AC42F5DBC848694660
:1045580002F09AFB684600214FF4807202F042FB99
:104568006846C44902F020FC684602F001FDC6B264
:1045780005E06846C04902F017FC0136F6B27C1E19
:10458800A642F6DBBB4E6846314602F00DFCB84841
:10459800694602F079FB684600214FF4807202F008
:1045A80021FB6846314602F0FFFBB34E68463146B0
:1045B80002F0FAFB6846314602F0F6FB68463146DF
:1045C80002F0F2FB6846314602F0EEFB6846AB4962
:1045D80002F0EAFB6846AA4902F0E6FB684602F0E8
:1045E800C7FCC6B205E06846A34902F0DDFB013608
:1045F800F6B2B442F7DC9F4E6846314602F0D4FB6F
:104608009B48694602F040FB684600214FF48072DF
:1046180002F0E8FA6846314602F0C6FB684602F046
:10462800A7FCC6B205E06846934902F0BDFB013617
:10463800F6B2B442F7DC8F4E6846314602F0B4FB5E
:104648008B48694602F020FB684600214FF48072CF
:1046580002F0C8FA6846314602F0A6FB864E684664
:10466800314602F0A1FB6846314602F09DFB6846E0
:10467800314602F099FB6846314602F095FB6846E0
:10468800804902F091FB68467F4902F08DFB68463D
:1046980002F06EFCC6B205E06846774902F084FB7A
:1046A8000136F6B2B442F7DC724E6846314602F083
:1046B8007BFB6F48694602F0E7FA684600214FF431
:1046C800807202F08FFA6846314602F06DFB684648
:1046D80002F04EFCC6B205E06846674902F064FB8A
:1046E8000136F6B2B442F7DC624E6846314602F053
:1046F8005BFB5F48694602F0C7FA684600214FF441
:10470800807202F06FFA6846314602F04DFB5A4E4D
:104718006846314602F048FB6846314602F044FBE1
:104728006846314602F040FB6846314602F03CFBE1
:104738006846564902F038FB6846554902F034FB92
:10474800684602F015FCC6B205E068464A4902F020
:104758002BFB0136F6B2B442F7DC464E68463146CA
:1047680002F022FB4248694602F08EFA68460021B0
:104778004FF4807202F036FA6846314602F014FBB4
:10478800684602F0F5FBC6B205E068463A4902F011
:104798000BFB0136F6B2B442F7DC364E68463146BA
:1047A80002F002FB3248694602F06EFA68460021C0
:1047B8004FF4807202F016FA6846314602F0F4FAB5
:1047C8002D4E6846314602F0EFFA6846314602F04F
:1047D800EBFA6846314602F0E7FA6846314602F0DD
:1047E800E3FA6846204902F0DFFA684602F0C0FBA7
:1047F800C6B205E06846204902F0D6FA0136F6B29C
:10480800B442F7DC1B4E6846314602F0CDFA184830
:10481800694602F039FA684600214FF4807202F0C6
:10482800E1F96846314602F0BFFA684602F0A0FB9B
:10483800C6B205E06846104902F0B6FA0136F6B28B
:10484800B442F7DC68460B4902F0AEFA08486946FC
:1048580002F01AFA684600214FF4807202F0C2F999
:1048680000241DE0E01E0108881D0108B81D01088C
:10487800BC1D0108C41D0108D81D0108C81D010878
:10488800DC1D0108E41D0108FC1D0108041E0108C7
:104898001C1E010868460B4902F086FA0134E4B28E
:1048A800A542F7DC0848694602F0EEF9684600219F
:1048B8004FF4807202F096F9044802F0E5F941B02D
:1048C800F0BD00BFB81D0108BC1D0108E01E0108AD
:1048D80010B40446034B0FCB84E80F0020465DF864
:1048E800044B7047E014002008B503460A46054803
:1048F800194602F0C9F9044B1B68986801F004FDD9
:1049080008BD00BF5C1E01085004002000B583B03C
:104918000C4802F0B9F90C4B1B68986801F0F4FCDC
:104928000A4869460DF10202FFF744FD009B00208A
:104938009AB262F30F001B0C63F31F4003B05DF8DB
:1049480004FB00BF681E010850040020701E010807
:1049580000B583B00190011400B2FFF7C5FF03B0A2
:104968005DF804FB08B5044802F08EF9034B1B6898
:10497800986801F0C9FC08BD8C1E0108500400208D
:1049880008B5044802F080F9034B1B68986801F0E9
:10499800BBFC08BD981E01085004002008B503465A
:1049A800044802F071F9044B1B68986801F0ACFCEC
:1049B80008BD00BFBC1E01085004002008B501F066
:1049C800D3FA08BD08B50248FFF748FDFEE700BF67
:1049D800CC1E010808B5FFF7F5FF00BF08B5FFF7C3
:1049E800F1FF00BF08B5FFF7EDFF00BF08B5FFF7FF
:1049F800E9FF00BF08B5FFF7E5FF00BF08B5FFF7FF
:104A0800E1FF00BF08B5FFF7DDFF00BF08B5FFF7FE
:104A1800D9FF00BF08B5FFF7D5FF00BF08B5FFF7FE
:104A2800D1FF00BF08B5FFF7CDFF00BF08B5FFF7FE
:104A3800C9FF00BF08B5FFF7C5FF00BF08B5FFF7FE
:104A4800C1FF00BF08B5FFF7BDFF00BF08B5FFF7FE
:104A5800B9FF00BF08B5FFF7B5FF00BF08B5FFF7FE
:104A6800B1FF00BF08B5FFF7ADFF00BF08B5FFF7FE
:104A7800A9FF00BF08B5FFF7A5FF00BF08B5FFF7FE
:104A8800A1FF00BF08B5FFF79DFF00BF08B5FFF7FE
:104A980099FF00BF08B5FFF795FF00BF08B5FFF7FE
:104AA80091FF00BF08B5FFF78DFF00BF08B5FFF7FE
:104AB80089FF00BF08B5FFF785FF00BF08B5FFF7FE
:104AC80081FF00BF08B5FFF77DFF00BF08B5FFF7FE
:104AD80079FF00BF08B5FFF775FF00BF08B5FFF7FE
:104AE80071FF00BF08B5FFF76DFF00BF08B5FFF7FE
:104AF80069FF00BF08B5FFF765FF00BF08B5FFF7FE
:104B080061FF00BF08B5FFF75DFF00BF08B5FFF7FD
:104B180059FF00BF08B5FFF755FF00BF08B5FFF7FD
:104B280051FF00BF08B5FFF74DFF00BF08B5FFF7FD
:104B380049FF00BF08B5FFF745FF00BF08B5FFF7FD
:104B480041FF00BF08B5FFF73DFF00BF08B5FFF7FD
:104B580039FF00BF08B5FFF735FF00BF08B5FFF7FD
:104B680031FF00BF08B5FFF72DFF00BF08B5FFF7FD
:104B780029FF00BF08B5FFF725FF00BF08B5FFF7FD
:104B880021FF00BF08B5FFF71DFF00BF704700BF3A
:104B9800FEE700BFFEE700BFFEE700BFFEE700BF7D
:104BA800704700BF08B50F4B1B78D3B10E4840F2D1
:104BB8002551FEF785FBA0B10C4B186801F0B8FA37
:104BC800012806D1084840F225510022FEF748FB8B
:104BD80008BD0548FEF764FBC1B2044B186801F034
:104BE800B3FA08BDF414002000380140F014002086
:104BF800F0B587B0074605200121FDF7B3FE4FF455
:104C080080400121FDF7AEFE4FF40073ADF814307B
:104C180018238DF8173003268DF81660264C204689
:104C280005A9FDF7E1FD4FF48063ADF814300425C4
:104C38008DF817508DF81660204605A9FDF7D4FDAC
:104C480001970024ADF80840ADF80A40ADF80C40D3
:104C5800ADF810400C23ADF80E3018480DEB0501E7
:104C6800FEF78AFA25238DF800308DF801508DF86B
:104C7800024001238DF803306846FDF787FC2020A9
:104C880001F030FA0E4B186098B101240D4B1C70DE
:104C98000A4D28462146FEF7D5FA284640F2255106
:104CA8002246FEF7DDFA28464021FEF705FB20469E
:104CB80000E0002007B0F0BD0008014000380140C6
:104CC800F0140020F414002020B310B50446144852
:104CD80040F225510022FEF7C3FA124B186801F082
:104CE8001DFA012809D10E4840F225510122FEF78C
:104CF800B7FA00232370FF200FE00A4B186801F071
:104D080035FA2070064840F225510122FEF7A8FA2C
:104D1800012002E0002040B2704740B210BD00BF41
:104D280000380140F014002008B501460548FEF798
:104D3800B3FA04484021FEF7B7FA0028F9D0012059
:104D480008BD00BF0038014070B58CB00120014695
:104D5800FDF7FAFD1E4D2846FDF75AFC1D4B019341
:104D68001D4B5A68029210220392B3F9083004933B
:104D780000240594802306930794089409944FF41B
:104D880000530A930B94284601A9FDF7D5FC134854
:104D980002210122FDF752FE0F238DF80030012673
:104DA8008DF801608DF802408DF803606846FDF7C4
:104DB800EDFB284602213246FDF7ECFC4FF40030AB
:104DC800FDF704FD28462146FDF7D6FC0CB070BD62
:104DD800580002400C3800400415002000380040FC
:104DE800F0B58DB001200146FDF7AEFD1E4D2846F9
:104DF800FDF70EFC1D4B01931D4BDA68029200244F
:104E08000394B3F910300493059480230693079410
:104E1800089409944FF400560A960B94284601A961
:104E2800FDF78AFC134801210A46FDF707FE0E2309
:104E38008DF8003002278DF801708DF802400124AA
:104E48008DF803406846FDF7A1FB284639462246FF
:104E5800FDF7A0FC3046FDF7B9FC28462146FDF7D2
:104E68008BFC0DB0F0BD00BF440002400C38004080
:104E7800041500200038004008B5FFF765FFFFF76C
:104E8800AFFF02480121FDF7CBFD08BD0038004007
:104E980010B586B04FF480400121FDF771FD082060
:104EA8000121FDF75FFD4FF43043ADF814300423C2
:104EB8008DF8173003238DF81630184C204605A9B5
:104EC800FDF792FC4FF48043ADF8143018238DF8A9
:104ED8001730204605A9FDF787FC0021ADF8001022
:104EE800ADF80210ADF804100223ADF80630012326
:104EF800ADF80830ADF80A10ADF80C10ADF80E108A
:104F08000723ADF81030A4F554442046FDF7A2FD60
:104F180020466946FDF75EFD06B010BD000C014055
:104F280030B583B04FF40050FDF73EFC012817D18F
:104F38004FF40050FDF74AFC0A4D2B680A4CE06814
:104F4800B4F9101098476B6860680DF1060198472E
:104F580006480121FDF710FC05480021FDF70CFC6F
:104F680003B030BDF814002004150020580002409A
:104F78004400024008B54FF40030FDF715FC012845
:104F880008D14FF40030FDF721FC034B9B6898478C
:104F9800FFF772FF08BD00BFF814002084B038B5D1
:104FA80004AC84E80F00079BDBB1059BDBB1099BD0
:104FB800DBB10A9BDBB10B9BDBB1104C04AD0FCD11
:104FC8000FC42B6823600E4B09AA07CA83E80700A1
:104FD800FFF75EFFFFF750FF0A48FFF76DFA012061
:104FE80008E0002006E0002004E0002002E00020A5
:104FF80000E00020BDE8384004B0704704150020E8
:10500800F8140020E41E010808B507480121FEF73E
:10501800A3F838B104480121FEF7AAF8034B1B682E
:1050280003B1984708BD00BF000C004018150020C8
:1050380010B50446006B01F033F8204601F030F853
:1050480010BD00BF70B506460C46502000F0CAFFE0
:10505800054680B11CB9B00000F0C4FF00E020464E
:10506800286320B9284601F01BF8002503E0A52194
:10507800B20001F0B7FD284670BD00BF38B5044640
:1050880015463430102201F0EBFF002384F843303A
:10509800072D00D90725E562E564201D00F032FCE4
:1050A80004F1180000F02EFC2461C5F10805A56183
:1050B800646238BD38B5002406E014200E4B00FBAE
:1050C800043000F013FC0134072CF6D90B4D2846A8
:1050D80000F00CFC0A4C204600F008FC094800F0DF
:1050E80005FC094800F002FC084800F0FFFB084BEB
:1050F8001D60084B1C6038BD4415002014160020A4
:1051080028160020F01500202C150020401600203D
:10511800201500200C16002010B504460E4B1B6805
:1051280058600E4B1B68984207D20D4B18680A4B03
:105138001968043100F0F8FB10BD0A4B1868064BDB
:105148001968043100F0F0FB074B1B689C4201D240
:10515800054B1C6010BD00BFEC1500200816002090
:105168000C160020201500201C0000202DE9F04F0F
:1051780083B00C9EDDF8348040B94748474940F277
:10518800EB1201F081FD00F0AFFEFEE78B461746FB
:1051980099468246072E08D93F4840494FF4F6728F
:1051A80001F072FD00F0A0FEFEE710460E99FFF731
:1051B80049FF044600285DD0036B07F18045013D97
:1051C80003EB850323F007050097594632460F9BEA
:1051D800FFF754FF284651464A4600F05FFE20601C
:1051E80010F0070F08D02C482C494FF40C7201F02E
:1051F8004BFD00F079FEFEE7B8F1000F01D0C8F8CA
:10520800004000F079FE264A136801331360254BED
:105218001B683BB9234B1C601368012B0CD1FFF7AB
:1052280049FF09E0204B1B6833B91E4B1B68DB6A3A
:10523800B34201D81B4B1C60E06A1C4B1B689842A8
:1052480001D91A4B18601A4A136863640133136052
:10525800184B1B68984201D9164B186000EB800068
:105268008000154B1844211D00F050FB00F052FE41
:10527800012401E04FF0FF34012C09D10A4B1B68CF
:1052880033B1084B1B68DB6AB34201D200F024FE3D
:10529800204603B0BDE8F08F0C1F0108241F010849
:1052A800E8150020EC1500202415002054160020D5
:1052B80010160020401500204415002010B584B0B9
:1052C800002300930193029303930F480F49802210
:1052D800FFF74CFF0446012809D100F005FE012222
:1052E8000B4B1A6000220B4B1A6000F063FE44B9A6
:1052F80009480A4940F2125201F0C6FC00F0F4FDD8
:10530800FEE704B010BD00BFB9550008781F0108BA
:1053180024150020081600200C1F0108241F01086E
:10532800024A136801331360704700BFE415002078
:1053380038B5354B1B68002B60D1344B1A680132E5
:105348001A601B682BBB324B1B681B6843B1314882
:10535800314940F28B6201F097FC00F0C5FDFEE791
:105368002B4B19682D4A1068186011602C490A687F
:1053780001320A601B681B6823B94FF0FF32294BC2
:105388001A6006E0224B1B68DB68DB685A68254B0D
:105398001A601E4B1A68234B1B689A4232D31C4B67
:1053A8001B681B6823B94FF0FF321E4B1A6038BDCB
:1053B800174B1B68DB68DC686368144A12689A42FA
:1053C80002D2184A136038BD251D284600F0C8FAD5
:1053D800A36A1BB104F1180000F0C2FAE06A124B8C
:1053E8001B68984201D9104B186000EB80008000C0
:1053F8000E4B1844294600F089FAD0E70C4A136886
:105408000133136038BD00BFE415002008160020E2
:10541800201500200C1F0108241F01080C1600206D
:10542800041600201C000020401500204415002010
:105438001C15002070B5314B1B6843B93048314901
:1054480040F24C5201F020FC00F04EFDFEE700F067
:1054580053FD2A4B1A68013A1A601B68002B46D183
:10546800294B1B681BBB002444E0284BDB68DC6825
:1054780004F1180000F074FA261D304600F070FAA6
:10548800E06A234B1B68984201D9214B186000EB56
:10549800800080001F4B1844314600F037FAE26A5A
:1054A8001D4B1B68DB6A9A4202D3012500E00025E8
:1054B800164B1B68002BD8D1184B1B6833B90AE070
:1054C800FFF736FF154A1368013B1360134B1B683F
:1054D800002BF5D101251DB9114B1B68012B08D1F3
:1054E80000220F4B1A6000F0F7FC012402E00024B0
:1054F80000E0002400F00EFD204670BDE4150020F9
:105508000C1F0108241F0108E8150020F0150020D1
:105518004015002044150020EC1500201C15002023
:105528003C16002010B580B10446FFF7F9FE094B80
:105538001B681C44084B1868043000F011FA204618
:10554800FFF7EAFDFFF776FF00E0002008B900F05A
:10555800C3FC10BD08160020EC15002010B51BE098
:10556800FFF7DEFE0F4B1C68FFF764FFA4B100F0E5
:10557800C3FC0C4BDB68DC68201D00F0F1F90A4A1B
:105588001368013B1360094A1368013B136000F07C
:10559800C1FC2046FFF74CFD044B1B68002BDFD1F4
:1055A80010BD00BF2C150020E8150020281500208C
:1055B80008B5FFF7D3FF034B1B68012BF9D900F09F
:1055C8008BFCF6E74415002010B5204B1B689BB1F7
:1055D80001221F4B1A6010BD1E4B1B6843B91E48A1
:1055E8001E4940F23D7201F04FFB00F07DFCFEE7E2
:1055F800184A1368013B1360164B1B6803EB8303BF
:105608009B00174AD358002BE6D0124B1B68144650
:105618009A00D118890021444868406848601A44B3
:10562800920008322244904205D1416803EB83027C
:1056380092002244516003EB83039B00084A134401
:105648005B68DA68074B1A6010BD00BFE4150020DC
:105658003C160020401500200C1F0108241F0108DB
:1056680044150020EC15002038B540B91048114900
:105678004FF4E96201F008FB00F036FCFEE70C4647
:105688000D4D2968183100F04FF92868043000F0F2
:1056980067F9B4F1FF3F05D129680848043100F0E3
:1056A80035F938BD064B18682044FFF735FD38BD7D
:1056B8000C1F0108241F0108EC15002040160020CB
:1056C8000816002038B5C368DC6844B919481A4977
:1056D80040F2B47201F0D8FA00F006FCFEE704F1DB
:1056E8001805284600F03CF9144B1B689BB9251D8A
:1056F800284600F035F9E06A114B1B68984201D939
:105708000F4B186000EB800080000E4B18442946B0
:1057180000F0FCF803E00C48294600F0F7F8E26ACC
:105728000A4B1B68DB6A9A4201D3012038BD00206E
:1057380038BD00BF0C1F0108241F0108E415002014
:105748004015002044150020F0150020EC1500201D
:1057580008B540B90748084940F2D67201F094FAF2
:1057680000F0C2FBFEE7054A12680260044A1268AC
:10577800426008BD0C1F0108241F01080416002000
:105788000816002038B540B91E481F494FF4FC627E
:1057980001F07AFA00F0A8FBFEE70D46044641B98D
:1057A8001848194940F2E17201F06EFA00F09CFBCA
:1057B800FEE700F0A1FB2B68B3F1FF3F18D021688A
:1057C800124A1268914204D06168114A12689142E3
:1057D80010D90F4A11686068091A8B420CD91268EF
:1057E800121A9B1A2B602046FFF7B2FF002404E030
:1057F800002402E0012400E0012400F08BFB204695
:1058080038BD00BF0C1F0108241F01080416002022
:10581800081600200122014B1A6070473C16002030
:10582800014B1868704700BFEC150020002832D0E3
:1058380038B50246C36A18490968C96A8B4229D231
:1058480015490968C96AC1F108018161416903EB19
:1058580083039B0011480344994217D11546141D30
:10586800204600F07DF80C4B1B68D86AE8620C4BA8
:105878001B68984201D90A4B186000EB8000800031
:10588800064B1844214600F041F838BD024B1B680E
:10589800DB6AD36238BD7047EC1500204415002040
:1058A80040150020E8B138B5C16AC26C914217D0E2
:1058B8000446051D284600F053F8E06CE062C0F18C
:1058C8000803A361074B1B68984201D9054B186070
:1058D80000EB80008000044B1844294600F016F8BD
:1058E80038BD7047401500204415002000F108031A
:1058F80043604FF0FF328260C3600361002303609E
:10590800704700BF00230361704700BF43685A68AF
:105918004A6042688A605A689160596041600861CB
:10592800036801330360704710B40C68B4F1FF3F9B
:1059380001D1036907E000F1080300E05B685A68D9
:105948001268A242FAD95A684A6091608B6059601D
:1059580008610368013303605DF8044B704700BFBA
:10596800436882689A60836842685A6003695A6823
:10597800824201D182685A60002202611A68013AA3
:105988001A601868704700BF00230BE0074A02EB53
:10599800C3025268824204D10021044A42F83310FB
:1059A80070470133072BF1D9704700BFC466002048
:1059B80010B5044600F0A0FAA36BE46BA34214BF31
:1059C8000024012400F0A6FA204610BD10B50446B4
:1059D80000F092FAA46BB4FA84F4640900F09AFA1D
:1059E800204610BD10B50446036C3BB903681BBBC9
:1059F8004068FFF757FF002363601DE06AB98068BD
:105A08001A46FAF7EDFBA268236C1344A360626898
:105A1800934211D32368A3600EE0C0681A46FAF7D0
:105A2800DFFB236C5B42E2681A44E26021688A4229
:105A380002D262681344E360A36B0133A36310BD11
:105A480038B50346006858B11A6CDC681444DC6049
:105A58005D68AC4200D3D8600846D968FAF7C0FB45
:105A680038BD00BF10B5044600F046FA0BE0636A83
:105A780063B104F12400FFF725FE08B1FFF7CAFE61
:105A8800A36C013BA364A36C002BF0DC4FF0FF3345
:105A9800A36400F03FFA00F02FFA0BE0236963B12A
:105AA80004F11000FFF70EFE08B1FFF7B3FE636CB8
:105AB800013B6364636C002BF0DC4FF0FF336364DD
:105AC80000F028FA10BD00BF38B540B91A481B4984
