:020000040800F2
:1000000000C000201D230008D14A0008D54A00087E
:10001000D94A0008DD4A0008E14A00080000000053
:10002000000000000000000000000000F55D000876
:10003000E54A000800000000695E00080149000868
:1000400019490008214900082949000831490008D8
:100050003949000841490008494900085149000848
:1000600059490008614900086949000871490008B8
:100070007949000881490008614E0008B54E000822
:10008000894900089149000899490008A1490008D8
:10009000A9490008B1490008B9490008C149000848
:1000A000C9490008D1490008D9490008E1490008B8
:1000B000E9490008F1490008F11E0008F949000863
:1000C000014A0008094A0008114A0008194A0008B4
:1000D000214A0008E94A0008294A0008314A000874
:1000E000394A0008414A0008494A0008514A0008B4
:1000F000594A0008614A0008694A0008714A000824
:10010000794A0008814A0008494F0008894A0008D6
:10011000914A0008994A0008A14A0008A94A000823
:10012000B14A0008B94A0008C14A0008C94A000893
:1001300000000000000000000000000000000000BF
:1001400000000000000000000000000000000000AF
:10015000000000000000000000000000000000009F
:10016000000000000000000000000000000000008F
:10017000000000000000000000000000000000007F
:10018000000000000000000000000000000000006F
:10019000000000000000000000000000000000005F
:1001A000000000000000000000000000000000004F
:1001B000000000000000000000000000000000003F
:1001C000000000000000000000000000000000002F
:1001D000000000000000000000000000000000001F
:0401E0005FF8E0F1F3
:1001E800844641EA000313F0030349D1403A23D37C
:1001F8000B6803604B6843608B688360CB68C3609F
:100208000B6903614B6943618B698361CB69C36186
:100218000B6A03624B6A43628B6A8362CB6AC3626E
:100228000B6B03634B6B43638B6B8363CB6BC36356
:1002380040304031403ADBD230320BD30B68036098
:100248004B6843608B688360CB68C36010301031A3
:10025800103AF3D20C3205D351F8043B40F8043B72
:10026800043AF9D2043208D0D2071CBF11F8013B76
:1002780000F8013B01D30B8803806046704700BF3C
:10028800082A13D38B07B1D010F00303AED0C3F103
:100298000403D21ADB071CBF11F8013B00F8013B2D
:1002A800A4D331F8023B20F8023B9FE7043AD9D3A4
:1002B800013A11F8013B00F8013BF9D20B780370C1
:1002C8004B7843708B7883706046704781F00041AB
:1002D80002E000BF83F0004330B54FEA41044FEA23
:1002E800430594EA050F08BF90EA020F1FBF54EABE
:1002F800000C55EA020C7FEA645C7FEA655C00F05A
:10030800E2804FEA5454D4EB5555B8BF6D420CDD2A
:100318002C4480EA020281EA030382EA000083EAAD
:10032800010180EA020281EA0303362D88BF30BD4D
:1003380011F0004F4FEA01314FF4801C4CEA1131A3
:1003480002D0404261EB410113F0004F4FEA033302
:100358004CEA133302D0524263EB430394EA050F8D
:1003680000F0A780A4F10104D5F1200E0DDB02FAFC
:100378000EFC22FA05F2801841F1000103FA0EF290
:10038800801843FA05F359410EE0A5F120050EF156
:10039800200E012A03FA0EFC28BF4CF0020C43FA87
:1003A80005F3C01851EBE37101F0004507D54FF094
:1003B800000EDCF1000C7EEB00006EEB0101B1F5E4
:1003C800801F1BD3B1F5001F0CD349085FEA30002A
:1003D8004FEA3C0C04F101044FEA445212F5800F35
:1003E80080F09A80BCF1004F08BF5FEA500C50F1D2
:1003F800000041EB045141EA050130BD5FEA4C0CB5
:10040800404141EB010111F4801FA4F10104E9D13D
:1004180091F0000F04BF01460020B1FA81F308BF34
:100428002033A3F10B03B3F120020CDA0C3208DD00
:1004380002F1140CC2F10C0201FA0CF021FA02F1DB
:100448000CE002F11402D8BFC2F1200C01FA02F14B
:1004580020FA0CFCDCBF41EA0C019040E41AA2BF70
:1004680001EB0451294330BD6FEA04041F3C1CDA38
:100478000C340EDC04F11404C4F1200220FA04F058
:1004880001FA02F340EA030021FA04F345EA030102
:1004980030BDC4F10C04C4F1200220FA02F001FAC4
:1004A80004F340EA0300294630BD21FA04F0294646
:1004B80030BD94F0000F83F4801306BF81F48011DF
:1004C8000134013D4EE77FEA645C18BF7FEA655C52
:1004D80029D094EA050F08BF90EA020F05D054EA24
:1004E800000C04BF1946104630BD91EA030F1EBF29
:1004F8000021002030BD5FEA545C05D1400049412D
:1005080028BF41F0004130BD14F580043CBF01F51F
:10051800801130BD01F0004545F0FE4141F4700105
:100528004FF0000030BD7FEA645C1ABF19461046E0
:100538007FEA655C1CBF0B46024650EA013406BFE1
:1005480052EA033591EA030F41F4002130BD00BFA0
:1005580090F0000F04BF0021704730B54FF480645D
:1005680004F132044FF000054FF0000150E700BFDE
:1005780090F0000F04BF0021704730B54FF480643D
:1005880004F1320410F0004548BF40424FF000012A
:100598003EE700BF42004FEAE2014FEA31014FEA6D
:1005A80002701FBF12F07F4393F07F4F81F06051BC
:1005B800704792F0000F14BF93F07F4F704730B52B
:1005C8004FF4607401F0004521F0004120E700BFBE
:1005D80050EA010208BF704730B54FF000050AE045
:1005E80050EA010208BF704730B511F0004502D546
:1005F800404261EB41014FF4806404F132045FEA48
:10060800915C3FF4DCAE4FF003025FEADC0C18BFEC
:1006180003325FEADC0C18BF033202EBDC02C2F1E2
:10062800200300FA03FC20FA02F001FA03FE40EA74
:100638000E0021FA02F11444C1E600BF70B54FF074
:10064800FF0C4CF4E06C1CEA11541DBF1CEA135556
:1006580094EA0C0F95EA0C0F00F0DEF82C4481EABE
:10066800030621EA4C5123EA4C5350EA013518BFDE
:1006780052EA033541F4801143F4801338D0A0FBCB
:1006880002CE4FF00005E1FB02E506F00042E0FB78
:1006980003E54FF00006E1FB03569CF0000F18BF7E
:1006A8004EF0010EA4F1FF04B6F5007F64F5407426
:1006B80004D25FEA4E0E6D4146EB060642EAC621B9
:1006C80041EA55514FEAC52040EA5E504FEACE2E26
:1006D800B4F1FD0C88BFBCF5E06F1ED8BEF1004F29
:1006E80008BF5FEA500E50F1000041EB045170BDA5
:1006F80006F0004646EA010140EA020081EA0301E9
:10070800B4EB5C04C2BFD4EB0C0541EA045170BDE4
:1007180041F480114FF0000E013C00F3AB8014F15E
:10072800360FDEBF002001F0004170BDC4F10004A7
:10073800203C35DA0C341BDC04F11404C4F1200528
:1007480000FA05F320FA04F001FA05F240EA020083
:1007580001F0004221F0004110EBD37021FA04F6B9
:1007680042EB06015EEA430E08BF20EAD37070BD73
:10077800C4F10C04C4F1200500FA04F320FA05F0D2
:1007880001FA04F240EA020001F0004110EBD370D4
:1007980041F100015EEA430E08BF20EAD37070BD44
:1007A800C4F1200500FA05F24EEA020E20FA04F31D
:1007B80001FA05F243EA020321FA04F001F00041CC
:1007C80021FA04F220EA020000EBD3705EEA430E3D
:1007D80008BF20EAD37070BD94F0000F0FD101F06C
:1007E8000046400041EB010111F4801F08BF013CA5
:1007F800F7D041EA060195F0000F18BF704703F0E3
:100808000046520043EB030313F4801F08BF013D69
:10081800F7D043EA0603704794EA0C0F0CEA135525
:1008280018BF95EA0C0F0CD050EA410618BF52EADF
:100838004306D1D181EA030101F000414FF00000E5
:1008480070BD50EA410606BF1046194652EA4306F3
:1008580019D094EA0C0F02D150EA013613D195EA67
:100868000C0F05D152EA03361CBF104619460AD1AF
:1008780081EA030101F0004141F0FE4141F47001B9
:100888004FF0000070BD41F0FE4141F4780170BDA9
:1008980070B54FF0FF0C4CF4E06C1CEA11541DBF0E
:1008A8001CEA135594EA0C0F95EA0C0F00F0A7F810
:1008B800A4EB050481EA030E52EA03354FEA01313D
:1008C80000F088804FEA03334FF0805545EA131350
:1008D80043EA12634FEA022245EA111545EA106518
:1008E8004FEA00260EF000419D4208BF964244F1AF
:1008F800FD0404F5407402D25B084FEA3202B61ACE
:1009080065EB03055B084FEA32024FF480104FF4A1
:10091800002CB6EB020E75EB030E22BFB61A754615
:1009280040EA0C005B084FEA3202B6EB020E75EBA8
:10093800030E22BFB61A754640EA5C005B084FEA10
:100948003202B6EB020E75EB030E22BFB61A7546DD
:1009580040EA9C005B084FEA3202B6EB020E75EBE8
:10096800030E22BFB61A754640EADC0055EA060EA9
:1009780018D04FEA051545EA16754FEA06164FEAEC
:10098800C30343EA52734FEAC2025FEA1C1CC0D198
:1009980011F4801F0BD141EA00014FF000004FF025
:1009A800004CB6E711F4801F04BF01430020B4F1E6
:1009B800FD0C88BFBCF5E06F3FF6AFAEB5EB030C9E
:1009C80004BFB6EB020C5FEA500C50F1000041EB9B
:1009D800045170BD0EF0004E4EEA113114EB5C0468
:1009E800C2BFD4EB0C0541EA045170BD41F480113B
:1009F8004FF0000E013C90E645EA060E8DE60CEA43
:100A0800135594EA0C0F08BF95EA0C0F3FF43BAF5F
:100A180094EA0C0F0AD150EA01347FF434AF95EA16
:100A28000C0F7FF425AF104619462CE795EA0C0FFA
:100A380006D152EA03353FF4FDAE1046194622E7C7
:100A480050EA410618BF52EA43067FF4C5AE50EAA1
:100A580041047FF40DAF52EA43057FF4EBAE12E791
:100A68004FF0FF3C06E000BF4FF0010C02E000BF72
:100A78004FF0010C4DF804CD4FEA410C7FEA6C5C55
:100A88004FEA430C18BF7FEA6C5C1BD001B050EAF8
:100A9800410C0CBF52EA430C91EA030F02BF90EAE3
:100AA800020F0020704710F1000F91EA030F58BFA2
:100AB800994208BF90422CBFD8176FEAE37040F004
:100AC800010070474FEA410C7FEA6C5C02D150EAA2
:100AD800013C07D14FEA430C7FEA6C5CD6D152EA5D
:100AE800033CD3D05DF8040B704700BF8446104622
:100AF80062468C461946634600E000BF01B5FFF721
:100B0800B7FF002848BF10F1000F01BD4DF808EDF0
:100B1800FFF7F4FF0CBF012000205DF808FB00BFC1
:100B28004DF808EDFFF7EAFF34BF012000205DF81B
:100B380008FB00BF4DF808EDFFF7E0FF94BF012068
:100B480000205DF808FB00BF4DF808EDFFF7CEFF69
:100B580094BF012000205DF808FB00BF4DF808EDA8
:100B6800FFF7C4FF34BF012000205DF808FB00BF79
:100B78004FEA410212F5001215D211D56FF47873BD
:100B8800B3EB625212D94FEAC12343F0004343EA60
:100B9800505311F0004F23FA02F018BF404270473B
:100BA8004FF00000704750EA013005D111F00040C5
:100BB80008BF6FF0004070474FF00000704700BF5B
:100BC8004A0011D212F5001211D20DD56FF47873C4
:100BD800B3EB62520ED44FEAC12343F0004343EA19
:100BE800505323FA02F070474FF00000704750EA64
:100BF800013002D14FF0FF3070474FF000007047CE
:100C08004FEA4102B2F1E04324BFB3F5001CDCF126
:100C1800FE5C0DD901F0004C4FEAC0024CEA50705E
:100C2800B2F1004F40EB830008BF20F0010070478D
:100C380011F0804F21D113F13872BCBF01F0004090
:100C4800704741F480114FEA5252C2F11802C2F1C2
:100C5800200C10FA0CF320FA02F018BF40F0010043
:100C68004FEAC1234FEAD32303FA0CFC40EA0C00F5
:100C780023FA02F34FEA4303CCE77FEA625307D132
:100C880050EA01331EBF4FF0FE4040F44000704769
:100C980001F0004040F0FE4040F40000704700BF03
:100CA80080F0004002E000BF81F0004142001FBF19
:100CB8005FEA410392EA030F7FEA226C7FEA236C22
:100CC8006AD04FEA1262D2EB1363C1BFD218414017
:100CD80048404140B8BF5B42192B88BF704710F0AD
:100CE800004F40F4000020F07F4018BF404211F050
:100CF800004F41F4000121F07F4118BF494292EAB8
:100D0800030F3FD0A2F1010241FA03FC10EB0C00E3
:100D1800C3F1200301FA03F100F0004302D5494270
:100D280060EB4000B0F5000F13D3B0F1807F06D31D
:100D380040084FEA310102F10102FE2A51D2B1F115
:100D4800004F40EBC25008BF20F0010040EA03000A
:100D58007047490040EB000010F4000FA2F10102B7
:100D6800EDD1B0FA80FCACF1080CB2EB0C0200FA41
:100D78000CF0AABF00EBC25052421843BCBFD0408F
:100D88001843704792F0000F81F4000106BF80F409
:100D980000000132013BB5E74FEA41037FEA226CCC
:100DA80018BF7FEA236C21D092EA030F04D092F097
:100DB800000F08BF0846704790EA010F1CBF0020CB
:100DC800704712F07F4F04D1400028BF40F0004028
:100DD800704712F100723CBF00F50000704700F048
:100DE800004343F0FE4040F4000070477FEA22626F
:100DF80016BF08467FEA23630146420206BF5FEA40
:100E0800412390EA010F40F4800070474FF000033F
:100E180004E000BF10F0004348BF40425FEA000C06
:100E280008BF704743F0964301464FF000001CE0AE
:100E380050EA010208BF70474FF000030AE000BF04
:100E480050EA010208BF704711F0004302D5404242
:100E580061EB41015FEA010C02BF844601460020B4
:100E680043F0B64308BFA3F18053A3F50003BCFACF
:100E78008CF2083AA3EBC25310DB01FA02FC63447C
:100E880000FA02FCC2F12002BCF1004F20FA02F283
:100E980043EB020008BF20F00100704702F1200276
:100EA80001FA02FCC2F1200250EA4C0021FA02F2D7
:100EB80043EB020008BF20EADC7070474FF0FF0CDC
:100EC8001CEAD0521EBF1CEAD15392EA0C0F93EAD7
:100ED8000C0F6FD01A4480EA010C400218BF5FEA79
:100EE80041211ED04FF0006343EA501043EA5111EC
:100EF800A0FB01310CF00040B1F5000F3EBF4900E6
:100F080041EAD3715B0040EA010062F17F02FD2AE9
:100F18001DD8B3F1004F40EBC25008BF20F00100CC
:100F2800704790F0000F0CF0004C08BF49024CEAE3
:100F3800502040EA51207F3AC2BFD2F1FF0340EA75
:100F4800C250704740F400004FF00003013A5DDCE6
:100F580012F1190FDCBF00F000407047C2F1000227
:100F6800410021FA02F1C2F1200200FA02FC5FEA14
:100F7800310040F1000053EA4C0308BF20EADC705E
:100F8800704792F0000F00F0004C02BF400010F4D0
:100F9800000F013AF9D040EA0C0093F0000F01F07D
:100FA800004C02BF490011F4000F013BF9D041EA9F
:100FB8000C018FE70CEAD15392EA0C0F18BF93EAA1
:100FC8000C0F0AD030F0004C18BF31F0004CD8D1CB
:100FD80080EA010000F00040704790F0000F17BF52
:100FE80090F0004F084691F0000F91F0004F14D098
:100FF80092EA0C0F01D142020FD193EA0C0F03D1F0
:101008004B0218BF084608D180EA010000F00040F2
:1010180040F0FE4040F40000704740F0FE4040F4CD
:10102800400070474FF0FF0C1CEAD0521EBF1CEA6C
:10103800D15392EA0C0F93EA0C0F69D0A2EB03028A
:1010480080EA010C49024FEA402037D04FF0805324
:1010580043EA111143EA10130CF000408B4238BFE9
:101068005B0042F17D024FF4000C8B4224BF5B1AF7
:1010780040EA0C00B3EB510F24BFA3EB510340EA45
:101088005C00B3EB910F24BFA3EB910340EA9C00F3
:10109800B3EBD10F24BFA3EBD10340EADC001B0163
:1010A80018BF5FEA1C1CE0D1FD2A3FF650AF8B4207
:1010B80040EBC25008BF20F0010070470CF0004C14
:1010C8004CEA50207F32C2BFD2F1FF0340EAC2503F
:1010D800704740F400004FF00003013A37E792F000
:1010E800000F00F0004C02BF400010F4000F013A5E
:1010F800F9D040EA0C0093F0000F01F0004C02BF59
:10110800490011F4000F013BF9D041EA0C0195E7C1
:101118000CEAD15392EA0C0F08D142027FF47DAF5A
:1011280093EA0C0F7FF470AF084676E793EA0C0F4A
:1011380004D14B023FF44CAF08466EE730F0004C48
:1011480018BF31F0004CCAD130F000427FF45CAFD8
:1011580031F000437FF43CAF5FE700BF4FF0FF3C46
:1011680006E000BF4FF0010C02E000BF4FF0010C99
:101178004DF804CD4FEA40024FEA41037FEA226C62
:1011880018BF7FEA236C11D001B052EA530C18BF84
:1011980090EA010F58BFB2EB030088BFC81738BFE9
:1011A8006FEAE17018BF40F0010070477FEA226CD7
:1011B80002D15FEA402C05D17FEA236CE4D15FEAD3
:1011C800412CE1D05DF8040B704700BF8446084607
:1011D8006146FFE70FB5FFF7C9FF002848BF10F1C8
:1011E800000F0FBD4DF808EDFFF7F4FF0CBF01200D
:1011F80000205DF808FB00BF4DF808EDFFF7EAFF97
:1012080034BF012000205DF808FB00BF4DF808ED51
:10121800FFF7E0FF94BF012000205DF808FB00BF46
:101228004DF808EDFFF7D2FF94BF012000205DF8CC
:1012380008FB00BF4DF808EDFFF7C8FF34BF0120D9
:1012480000205DF808FB00BF7BB972B90029BEBF5A
:1012580000204FF0004106E008BF00281CBF6FF0D7
:1012680000414FF0FF3000F08DB882B0EC462DE918
:10127800005000F057F8DDF804E002B00CBC7047ED
:1012880053B94AB9002908BF00281CBF4FF0FF31E5
:101298004FF0FF3000F076B882B0EC462DE90050F0
:1012A80000F058F8DDF804E002B00CBC704700BF4D
:1012B80010B500210446FFF79FFF20B92046BDE87E
:1012C800104000F009B804F1004000F005F8404271
:1012D80061EB410110BD00BFD0B5FFF75BF90022FB
:1012E8000E4B06460F46FFF7A9F9FFF769FC0446BF
:1012F800FFF72EF900220A4BFFF7A0F902460B462A
:1013080030463946FEF7E6FFFFF75AFC234600222F
:1013180042EA000210461946D0BD00BF0000F03D69
:101328000000F0412DE9F041069C904606460F4624
:101338001D4600F029F808FB01FCA8FB002300FB70
:1013480005C5B21A2B4467EB03038646C4E900239C
:10135800BDE8F0812DE9F843089E17468046894686
:101368001D4600F067F900FB05F3A0FB074507FBE6
:101378000137B8EB04043D4469EB0505C6E90045AF
:10138800BDE8F883704700BF00292DE9F043C0F29B
:10139800A8800026002BC0F29E8081468E4690468B
:1013A8009C46174604460D46002B3DD18A4259D922
:1013B800B2FA82F33BB1C3F120029D4020FA02F257
:1013C8009F4015439C40390CB5FBF1F01FFA87FE8E
:1013D80001FB10550EFB00F3220C42EA0545AB4217
:1013E80009D9ED1900F1FF3280F00B81AB4240F2D0
:1013F800088102383D44ED1AB5FBF1F301FB1355A2
:101408000EFB03FEA4B244EA0545AE4508D9ED1922
:1014180003F1FF3280F0F780AE4540F2F480023BE2
:1014280043EA0043002203E08B420FD9002213460F
:10143800341C18BF012460424FF0000565EB4501DC
:101448005840514000196941BDE8F083B3FA83F26E
:10145800002A40F089808B4202D3804500F2E28066
:101468000123E5E712B90123B3FBF2F7B7FA87F8CE
:10147800B8F1000F3BD1ED1B4FEA174C1FFA87FE5E
:101488000122B5FBFCF00CFB10550EFB00F3210C00
:1014980041EA0545AB4207D9ED1900F1FF3102D207
:1014A800AB4200F2C3800846ED1AB5FBFCF30CFB17
:1014B80013550EFB03FEA4B244EA0545AE4507D911
:1014C800ED1903F1FF3102D2AE4500F2AD800B46B3
:1014D80043EA0043ACE752426FEA060663EB430374
:1014E8005BE7404261EB41014FF0FF3652E707FAF4
:1014F80008F7C8F1200225FA02F34FEA174CB3FBAC
:10150800FCF11FFA87FE0CFB113324FA02F205FAEC
:1015180008F50EFB01F92A43100C40EA03439945EC
:1015280004FA08F407D9DB1901F1FF3078D299459C
:1015380076D902393B44C9EB0303B3FBFCF00CFB3F
:1015480010330EFB00F592B242EA03439D4207D9DD
:10155800DB1900F1FF325FD29D425DD902383B446E
:101568005D1B40EA01428CE7C2F1200328FA03F12F
:101578000CFA02FC41EA0C0C4FEA1C402EFA03F16B
:10158800B1FBF0F51FFA8CF700FB151129FA03F3EC
:101598000EFA02FE07FB05F943EA0E0E4FEA1E4358
:1015A80043EA0141894508FA02F808D911EB0C0110
:1015B80005F1FF3332D2894530D9023D6144C9EB88
:1015C8000101B1FBF0F300FB131107FB03F71FFA4E
:1015D8008EFE4EEA014E774508D91EEB0C0E03F13C
:1015E800FF3117D2774515D9023BE64443EA054354
:1015F800A3FB0889C7EB0E0ECE4509D305D0002200
:1016080016E71046F7E613460AE794404445F6D233
:10161800013BF4E70B46E9E71046A1E71D46CEE794
:10162800014688E7134603E7023B51E702383D4489
:101638003AE700BF2DE9F043002B44D18A42154612
:1016480004464FD9B2FA82F70E464FB1C7F12003CC
:10165800B94020FA03F602FA07F50E4300FA07F438
:101668002F0CB6FBF7F01FFA85FE07FB10620EFB86
:1016780000F1260C46EA0243994209D95B1900F1A8
:10168800FF3280F0EE80994240F2EB8002382B4422
:10169800591AB1FBF7F307FB13110EFB03FEA4B2B3
:1016A80044EA01418E4508D9491903F1FF3280F017
:1016B800DA808E4540F2D780023B43EA004000269C
:1016C8003146BDE8F0838B4247D8B3FA83F6002E43
:1016D80048D18B4202D3824200F2CF8001203146AA
:1016E800BDE8F08312B90125B5FBF2F5B5FA85FC22
:1016F800BCF1000F78D1491B2F0C1FFA85FE01267B
:10170800B1FBF7F007FB10110EFB00F2230C43EAC4
:1017180001418A4207D9491900F1FF3302D28A42AE
:1017280000F2BC801846891AB1FBF7F307FB1311C6
:101738000EFB03FEA4B244EA0142964508D95219A9
:1017480003F1FF3180F09180964540F28E80023B94
:1017580043EA00403146BDE8F08300263046314672
:10176800BDE8F083C6F1200422FA04F5B3402B4308
:1017780021FA04F74FEA1348B7FBF8FC1FFA83F97C
:1017880008FB1C7720FA04FE01FA06F509FB0CF4A5
:101798004EEA05054FEA154E4EEA0747BC4202FAE3
:1017A80006F204D9FF180CF1FF3168D38C463F1BB1
:1017B800B7FBF8F408FB147709FB04F9ADB245EA66
:1017C8000741894504D9C91804F1FF355DD32C4672
:1017D80044EA0C44A4FB0223C9EB0101994249D312
:1017E80045D0204600266BE7CCF1200405FA0CF51D
:1017F80021FA04F32A0CB3FBF2F61FFA85FE02FB6A
:10180800163820FA04F701FA0CF10EFB06F90F431B
:101818003C0C44EA0843994500FA0CF407D95B19D3
:1018280006F1FF3138D2994536D9023E2B44C9EB2F
:101838000303B3FBF2F002FB10330EFB00F1BFB25F
:1018480047EA0343994207D95B1900F1FF3721D2D0
:1018580099421FD902382B441746591A40EA0646BE
:101868004EE7104614E7134627E70B4670E7B040EB
:101878009042B6D2601E002622E7304620E7BC42DE
:1018880094D9ACF1020C1F4491E789459FD9023CD9
:1018980019449DE73846DFE70E46C8E70238294471
:1018A80041E700BF08B500F011F8012803D1054849
:1018B80002F0FAFC02E0044802F0F6FC02F008FC30
:1018C800002008BDB8F00008D0F0000808B500F006
:1018D800A3F8012805D100F007F8012802D000205C
:1018E80000E0002040B208BDF0B589B001F0A0FFCB
:1018F800012804D0274802F0F9FC002447E001F051
:101908001BFD0446012804D0234802F0EFFC002404
:101918003DE02248224901F0DBFD2248224901F03E
:10192800D7FD224B224A1360224FBB6150230793F5
:101938006D4607F10C060FCE0FC596E8070085E83F
:10194800070097E80E00002002F0AEF801281DD12C
:10195800194802F0A9FC0020184902F01BF90420DC
:10196800174902F017F90820164902F013F9202048
:10197800154902F00FF92420144902F00BF9282028
:10198800134902F007F900F065FA00E0002460B29C
:1019980009B0F0BDE8F0000808F1000820F10008DF
:1019A800BD38000828F10008511B0008DD4E00086A
:1019B800D0080020D408002034F10008A91A000833
:1019C800C51A0008E11A0008FD1A0008191B0008CA
:1019D800351B00080120704700B583B00023ADF81F
:1019E800023002A901F8040D184601220DF1020384
:1019F80002F088F940B203B05DF804FB00B583B08B
:101A08000146002002AB23F8020D012202F046F93C
:101A180040B203B05DF804FB10B54FF00060002140
:101A280000F06AFD4FF4407000F024FD124B134A99
:101A38001A60134A9A60134A5A6013494FF4E13204
:101A48000A608B60002002F00BF901280FD10F48C3
:101A58000F4B03600F4B83600F4B436002F08EFB0C
:101A68000446012805D10D4802F01EFC02E00024BE
:101A780000E0002460B210BD14090020354B0008B6
:101A88000D4C00086D4C0008FC08002008090020D7
:101A9800DD190008051A0008E119000848F10008D6
:101AA80000B583B0042A02D101A8FEF799FB01987A
:101AB80000F088F903B05DF804FB00BF00B583B0FF
:101AC800042A02D101A8FEF78BFB019800F082F9E5
:101AD80003B05DF804FB00BF00B583B0042A02D14F
:101AE80001A8FEF77DFB019800F07CF903B05DF8D2
:101AF80004FB00BF00B583B0042A02D101A8FEF799
:101B08006FFB019800F076F903B05DF804FB00BFA5
:101B180000B583B0042A02D101A8FEF761FB019841
:101B280000F078F903B05DF804FB00BF00B583B09E
:101B3800042A02D101A8FEF753FB019800F07AF9B4
:101B480003B05DF804FB00BF2DE9F0479CB00646E2
:101B580009A835494A22FEF743FB00240194029460
:101B68000394049405940694079408942746A04681
:101B780048E0304621B202F085F9054601A8002167
:101B8800202204F0C9FF01A8691C2A7805F002FA8E
:101B98009CB901A82549012205F0B2F920B92448C9
:101BA80009A902F081FB2BE001A82249012205F0D6
:101BB800A7F900BB4FF0010A22E023B2012B07D19D
:101BC80001A800210A2206F035FB5FFA80F817E029
:101BD80023B2022B08D101A81649012205F090F979
:101BE80060B94FF001090BE001A800210A2206F0B4
:101BF80021FBC7B204E04FF0020A01E04FF00209EE
:101C08000134A4B2304602F033F923B29842B0DC72
:101C180050464FFA88F14A467BB200F015FB012086
:101C28001CB0BDE8F08700BF68F1000860F100084B
:101C38000403010864F10008704700BF0C4B5B7A8D
:101C4800012B08D10A49D1E90023013243F10003ED
:101C5800C1E900237047022B08D10549D1E90023C7
:101C680012F1FF3243F1FF33C1E90023704700BF8F
:101C7800280900200C4B5B7A012B08D10A49D1E9CD
:101C88000023013243F10003C1E900237047022B0E
:101C980008D10549D1E9002312F1FF3243F1FF339E
:101CA800C1E90023704700BF38090020054B002018
:101CB8000021C3E9000100225A72034BC3E9000165
:101CC8005A727047380900202809002030B597B0AB
:101CD80002E0C82002F036F92F4B1C68204600218C
:101CE800FFF780FA0028F4D12C4B18680021FFF781
:101CF80079FA0028EDD12A4B18680021FFF772FA0B
:101D08000028E6D1274B1193274B1293274B1393A7
:101D18002046FFF7CDFACDE90C01FFF791F801460F
:101D28002046FEF7C1FF2249FFF7C8F8FFF7C0FABF
:101D3800CDE90E011F4B10936C460EAD0FCD0FC4AD
:101D480095E80F0084E80F000CAB0CCB002002F0E4
:101D580013FD012803D0184802F0C8FA1AE0002041
:101D680002F042FD0C4B1B680B930C4B1B6809934C
:101D78000B4B1B680A9309AB93E8070000F0AAFA1B
:101D8800012803D00D4802F0B1FA03E00C4802F034
:101D9800DBFAFEE717B030BD200900204C0900200F
:101DA80048090020714F000895500008B1500008FC
:101DB80000247449411C0008B4F10008CCF1000863
:101DC800E8F1000808B50146014802F0BDFA08BD6F
:101DD80004F2000808B50146014802F0B5FA08BD4A
:101DE80014F2000808B50146014802F0ADFA08BD32
:101DF80024F2000810B50446FEF7CCFB02460B4659
:101E0800024802F0A1FA024B1C6010BD34F200082F
:101E18004C09002010B50446FEF7BCFB02460B46F1
:101E2800024802F091FA024B1C6010BD50F2000803
:101E38004809002010B50446FEF7ACFB02460B46E5
:101E4800024802F081FA024B1C6010BD68F20008DB
:101E58002009002010B586B01A4B04931A4B03933F
:101E68001A4B059306AB13E9070000F069F801283F
:101E780004D0174802F03AFA002420E000F0DAF91A
:101E8800012804D0134802F031FA002417E0124860
:101E980002F022F84FF4806300930DF10B000F4914
:101EA8000022022302F0E0F80446012804D00C487E
:101EB80002F01CFA002402E00A4802F0F5F960B2C8
:101EC80006B010BD7D1C0008451C0008B51C0008A4
:101ED80080F2000898F2000824090020D51C0008A8
:101EE800ACF20008C8F2000808B513480023838440
:101EF800012101F0AFF838B1104B9B6803B1984746
:101F08000D48192101F0A2F80B48082101F0A2F8A8
:101F180018B10A4B1B6803B198470748102101F014
:101F280099F818B1054B5B6803B198470248192125
:101F380001F08CF808BD00BF0008004050090020DF
:101F4800F0B58DB001AB83E80700029B002B75D07C
:101F5800002875D03C4B01AA07CA83E80700042073
:101F6800012100F08BFC0820012100F079FC374E9C
:101F7800304600F0EFFD4FF44075ADF8105048239F
:101F88008DF8133003248DF81240314F384604A9D8
:101F980000F0A8FB3846294600F0F2FB1E238DF816
:101FA80014308DF8154001248DF816408DF817402F
:101FB80005A800F069FA42F21073ADF82830254BF5
:101FC8001B68254AA2FB03239B09013BADF824307B
:101FD8000025ADF82A50ADF82650304609A900F082
:101FE800B9FE0823ADF81830ADF81A50ADF81C400A
:101FF800ADF81E50ADF82050304606A900F0F4FFA9
:102008000C23ADF81830ADF81A50ADF81C40ADF8F7
:102018001E50ADF82050304606A900F0E5FF3046C6
:10202800192101F013F830461921224600F076FFF5
:102038003046214600F052FF204602E0002000E032
:1020480000200DB0F0BD00BF50090020000800407E
:10205800000C014000000020D34D62102DE9F04132
:1020680082B00520012100F0FBFB4026ADF804609A
:1020780018278DF8077003258DF80650244C204644
:1020880001A900F02FFB2046314600F07BFB05201C
:10209800012100F0E5FB8026ADF804604FF0100840
:1020A8008DF807808DF80650204601A900F01AFB2C
:1020B8002046314600F066FB0520012100F0D0FBE8
:1020C8004FF48076ADF804608DF807808DF80650DF
:1020D800204601A900F006FB2046314600F052FBDD
:1020E8000520012100F0BCFB4FF40066ADF8046048
:1020F8008DF807708DF80650204601A900F0F2FA15
:102108002046314600F03EFB02B0BDE8F08100BF3A
:102118000008014070B588B04FF40060012100F05C
:102128009FFB6323ADF818301B4B1B681B4AA2FBAF
:1021380003239B0D013BADF814300025ADF81A5070
:10214800ADF816508DF81C50154C204605A900F026
:1021580001FE6023ADF804300126ADF80660ADF845
:102168000850ADF80A50ADF80C50204601A900F00F
:102178007FFE2046082100F0F3FE2046314600F09D
:10218800D9FE2046314600F0B7FE2046314600F021
:10219800A5FE08B070BD00BF000000206BCA5F6BD1
:1021A800002C014070B588B00220012100F066FBC8
:1021B8001D4C204600F0CEFC6323ADF818301B4BB5
:1021C8001B681B4AA2FB03239B0D013BADF814308F
:1021D8000025ADF81A50ADF81650204605A900F0B4
:1021E800B9FD6023ADF804300126ADF80660ADF8FE
:1021F8000850ADF80A50ADF80C50204601A900F07F
:10220800F3FD2046082100F0A3FE2046314600F0E9
:1022180091FE2046314600F06FFE2046314600F020
:102228005DFE08B070BD00BF000400400000002043
:102238006BCA5F6B08B5FFF711FFFFF76BFFFFF77E
:10224800B1FF012008BD00BFF8B517461D4A928DA1
:1022580092B21D4CA48DA6B202FB01F11B4C84FB6B
:1022680001E5C917C1EB6515ADB206FB03F384FBA5
:102278000314DB17C3EB6414A4B2022806D1551B60
:10228800ADB21348802100F07BFA03E010488021AA
:1022980000F078FA022F07D1341BA4B20C484FF48F
:1022A800807100F06DFA04E009484FF4807100F085
:1022B80069FA0448294600F05DFE0348214600F00B
:1022C8005BFEF8BD00040040002C01401F85EB5167
:1022D8000008014000B585B004AB03E90700029887
:1022E8000021FEF77FFF60B9084B04AA12E9070036
:1022F80083E80700064B00221A605A609A600120A2
:1023080000E0002005B05DF804FB00BF680900206C
:102318005C090020002103E00A4B5B58435004315C
:1023280009480A4B42189A42F6D3094A02E00023A8
:1023380042F8043B074B9A42F9D300F073F8FFF7D1
:10234800B1FA70474126010800000020CC0800209F
:10235800D00800204C67002082B00023019300932E
:102368002C4A136843F4803313602A4B1B6803F428
:1023780000330093019B01330193009B1BB9019B20
:10238800B3F5A06FF1D1234B1B6813F4003F02D0C3
:102398000123009301E000230093009B012B36D119
:1023A8001D4B1A6842F010021A601A6822F00302E4
:1023B8001A601A6842F002021A60A3F580535A683C
:1023C8005A605A685A605A6842F480625A605A6879
:1023D80022F47C125A605A6842F4E8125A601A6869
:1023E80042F080721A600B4B1B6813F0007FFAD022
:1023F800084B5A6822F003025A605A6842F00202F7
:102408005A60044B5B6803F00C03082BF9D102B047
:10241800704700BF001002400020024008B5FFF7D7
:102428009BFF08BD08B5104B1A6842F001021A60FC
:1024380059680E4A0A405A601A6822F0847222F4D7
:1024480080321A601A6822F480221A605A6822F4CC
:10245800FE025A604FF41F029A60FFF7DFFF4FF049
:102468000062034B9A6008BD001002400000FFF8AC
:1024780000ED00E040F0BF6040F40030014BD86050
:10248800704700BF00ED00E0C3780BB310B4184BE1
:10249800DA68D243C2F30222C2F104040F2323FAFA
:1024A80002F1437803FA04F283780B4013431B01CB
:1024B8000278DBB20F490A4482F8003303785809DE
:1024C80003F01F03012202FA03F341F820300BE066
:1024D80003785A0903F01F030121994002F12003F0
:1024E800044A42F8231070475DF8044B704700BF58
:1024F80000ED00E000E100E021F0604121F07F0103
:102508000843014B9860704700ED00E0036823F032
:1025180001031B041B0C03600023036043608360FA
:10252800C360364B984205D1354A536843F00F03D0
:1025380053607047334B984205D1314A536843F092
:10254800F00353607047304B984205D12C4A5368CA
:1025580043F47063536070472C4B984205D1284A66
:10256800536843F4704353607047294B984205D130
:10257800234A536843F4702353607047254B9842AD
:1025880005D11F4A536843F4700353607047224BC8
:10259800984205D11A4A536843F0706353607047F4
:1025A8001E4B984205D11E4A536843F00F035360EF
:1025B80070471C4B984205D1194A536843F0F00301
:1025C80053607047184B984205D1154A536843F435
:1025D800706353607047154B984205D1104A536891
:1025E80043F4704353607047114B984204D10C4A2E
:1025F800536843F470235360704700BF08000240DB
:10260800000002401C00024030000240440002402A
:10261800580002406C00024080000240080402405A
:10262800000402401C0402403004024044040240FA
:102638005804024010B4036823F4FF4323F07003E6
:102648008C680A6A14430A6914434A6914438A69FC
:102658001443CA6914434A6A14438A6A22431343D7
:102668000360CB6843600B6883604B68C3605DF8A8
:10267800044B704721B1036843F0010303607047BE
:10268800036823F001031B041B0C0360704700BFA1
:102698001AB10368194301607047036823EA01010E
:1026A8000160704710F0805F02D0054B1B6801E0A5
:1026B800044B1B68034201D001207047002070477B
:1026C800000402400000024010F0805F02D0034B7B
:1026D80058607047024B5860704700BF00040240C2
:1026E80000000240F0B5CB7803F00F02154613F056
:1026F800100F01D08D7815430B78E3B106680022DE
:1027080016E0012393400C881C409C420FD197008F
:102718000F24BC4026EA040605FA07F42643CC78C1
:10272800282C01D1436102E0482C00D10361013219
:10273800072AE6D906600B88FF2B20D947680024B2
:102748001AE004F10802012393400A881A409A42C9
:1027580011D14FEA840E0F2202FA0EF627EA06027A
:1027680005FA0EF71743CA78282A00D14361CA78B8
:10277800482A00D103610134072CE2D94760F0BD33
:10278800016170474161704710B4294B5B6803F0E1
:102798000C03042B05D0082B06D013BB254B036074
:1027A80021E0244B03601EE0214A53685268C3F3BA
:1027B8008343023312F4803F04D11F4A02FB03F320
:1027C800036010E01A4A526812F4003F04D01A4A13
:1027D80002FB03F3036006E0164A02FB03F30360FF
:1027E80001E0144B0360124A5368C3F30313134CFC
:1027F800E15CC9B20368CB4043605168C1F3022170
:10280800615CC9B223FA01F181605168C1F3C22148
:10281800615CC9B2CB40C3605268C2F381320849D7
:102828008A5CD2B2B3FBF2F303615DF8044B7047E4
:102838000010024000127A0000093D000800002044
:102848000400002021B1054B5A69104358617047B4
:10285800024A536923EA00005061704700100240A1
:1028680021B1054B9A69104398617047024A9369F0
:1028780023EA0000906170470010024021B1054B27
:10288800DA691043D8617047024AD36923EA000025
:10289800D06170470010024021B1054BDA6810433F
:1028A800D8607047024AD36823EA0000D0607047B6
:1028B8000010024021B1054B1A6910431861704796
:1028C800024A136923EA00001061704700100240B1
:1028D8002DE9F041038803F441570D884E888C8810
:1028E800B1F806800A89B1F80AC08B89B1F80EE000
:1028F8003543254348EA050414434CEA04021A43C5
:102908004EEA02033B430380838B23F400631B04DA
:102918001B0C83830B8A0382BDE8F08129B10388ED
:102928009BB243F0400303807047038823F04003C1
:102938001B041B0C0380704722B183889BB2194388
:10294800818070478388C94389B219408180704764
:1029580029B103889BB243F400530380704703886E
:1029680023F400531B041B0C0380704730B4048C01
:1029780024F001042404240C0484048B058CADB2D7
:1029880024F0F3042404240C1B019BB21A431443BF
:10299800124B984212D003F5006398420ED0B0F162
:1029A800804F0BD0A3F59833984207D003F5806386
:1029B800984203D003F58063984205D125F00205BB
:1029C800294341F0010104E025F00A03194341F0CD
:1029D80001010483018430BC704700BF002C014012
:1029E80070B4048C24F010042404240C0484048B94
:1029F800058CADB20E01B6B224F440742405240D42
:102A08001B039BB21C43120292B21443124B98420E
:102A180012D003F5006398420ED0B0F1804F0BD06E
:102A2800A3F59833984207D003F58063984203D002
:102A380003F58063984205D125F02001314341F028
:102A4800100104E025F0A005294341F0100104839A
:102A5800018470BC704700BF002C014070B4048C26
:102A680024F480742404240C0484848B058CAEB272
:102A78000D02ADB224F0F3042404240C1B019BB214
:102A88001A431443124B984212D003F5006398423C
:102A98000ED0B0F1804F0BD0A3F59833984207D0F1
:102AA80003F58063984203D003F58063984205D10B
:102AB80026F40071294341F4807104E026F4206370
:102AC800194341F480718483018470BC704700BF4E
:102AD800002C014070B4058C25F480552D042D0C74
:102AE8000584858B048CA4B20E03B6B225F4407518
:102AF8002D052D0D120292B215431B039BB21D43E7
:102B0800134B984212D003F5006398420ED0B0F1EF
:102B1800804F0BD0A3F59833984207D003F5806314
:102B2800984203D003F58063984205D124F40054F9
:102B3800344344F4805406E024F400746404640CC0
:102B48000C4344F480548583048470BC704700BFF0
:102B5800002C014008B56F4B98420AD14FF4006031
:102B68000121FFF799FE4FF400600021FFF794FE62
:102B780008BDB0F1804F08D101200146FFF79AFE49
:102B880001200021FFF796FE08BD634B984208D14B
:102B980002200121FFF78EFE02200021FFF78AFEA6
:102BA80008BD5E4B984208D104200121FFF782FE40
:102BB80004200021FFF77EFE08BD594B984208D13A
:102BC80008200121FFF776FE08200021FFF772FE9A
:102BD80008BD544B984208D110200121FFF76AFE26
:102BE80010200021FFF766FE08BD4F4B984208D120
:102BF80020200121FFF75EFE20200021FFF75AFE6A
:102C080008BD4A4B98420AD14FF400500121FFF702
:102C180043FE4FF400500021FFF73EFE08BD444B31
:102C280098420AD14FF400200121FFF735FE4FF4F6
:102C380000200021FFF730FE08BD3E4B98420AD124
:102C48004FF480100121FFF727FE4FF48010002178
:102C5800FFF722FE08BD384B98420AD14FF4001006
:102C68000121FFF719FE4FF400100021FFF714FEB1
:102C780008BD324B984208D140200121FFF71AFEC7
:102C880040200021FFF716FE08BD2D4B984208D1C1
:102C980080200121FFF70EFE80200021FFF70AFEA9
:102CA80008BD284B98420AD14FF480700121FFF7E4
:102CB80001FE4FF480700021FFF7FCFD08BD224B98
:102CC80098420AD14FF480300121FFF7E5FD4FF417
:102CD80080300021FFF7E0FD08BD1C4B98420AD167
:102CE8004FF400300121FFF7D7FD4FF400300021E9
:102CF800FFF7D2FD08BD164B984209D14FF480204A
:102D08000121FFF7C9FD4FF480200021FFF7C4FD22
:102D180008BD00BF002C014000040040000800402E
:102D2800000C004000100040001400400034014036
:102D3800004C014000500140005401400018004080
:102D4800001C0040002000400040014000440140B9
:102D58000048014003889BB2214A904212D002F5F4
:102D6800006290420ED0B0F1804F0BD0A2F598329D
:102D7800904207D002F58062904203D002F580624B
:102D8800904203D123F070034A881343154A9042B6
:102D980008D002F58062904204D023F440739BB2BD
:102DA800CA88134303808B8883850B8803850C4B63
:102DB80098420FD003F5006398420BD003F54063A7
:102DC800984207D003F58063984203D003F58063E7
:102DD800984201D10B7A038601238382704700BF92
:102DE800002C01400010004030B4038C23F0010394
:102DF8001B041B0C0384038C8488A4B2028B22F06E
:102E080073021204120C0D882A4323F002031B04D8
:102E18001B0C0D892B434D882B43144DA8420FD012
:102E280005F50065A8420BD005F54065A84207D016
:102E380005F58065A84203D005F58065A8420DD147
:102E480023F008034D892B4323F004038D882B437B
:102E580024F440748D892C43CD892C4384800283CB
:102E6800CA888286038430BC704700BF002C0140AA
:102E780030B4038C23F480531B041B0C0384038C91
:102E88008588ADB2828B22F4E6421204120C0C88BB
:102E98002402A4B2224323F400531B041B0C0C8904
:102EA8002403A4B223434C882403A4B223430A4C2A
:102EB800A04203D004F50064A04205D125F4804562
:102EC8008C89A401A4B2254385808283CA88A0F88E
:102ED8004020038430BC7047002C014029B103888E
:102EE8009BB243F0010303807047038823F001037A
:102EF8001B041B0C0380704749B1B0F844306FEADB
:102F080043436FEA53439BB2A0F844307047B0F88C
:102F18004430C3F30E03A0F84430704722B18389CC
:102F28009BB21943818170478389C94389B219408B
:102F38008181704729B103889BB243F080030380E5
:102F48007047038823F080031B041B0C0380704721
:102F5800038B23F008031B041B0C194301837047E0
:102F6800838B23F400631B041B0C090289B20B43F7
:102F78008383704781867047A0F84010704700BF70
:102F8800038B23F00C031B041B0C0383038B9BB2E2
:102F980019430183704700BF038B23F440631B046C
:102FA8001B0C0383038B9BB2090289B2194301836B
:102FB800704700BF838B23F00C031B041B0C838317
:102FC800838B9BB219438183704700BF838B23F4A3
:102FD80040631B041B0C8383838B9BB2090289B259
:102FE80019438183704700BF38B505460C460B88E6
:102FF8004BB94988A2882389FFF7B8FC2846E1889D
:10300800FFF7BEFF38BD042B09D14988A288238960
:10301800FFF7E6FC2846E188FFF7BEFF38BD082B1E
:1030280009D14988A2882389FFF718FD2846E18835
:10303800FFF7C0FF38BD4988A2882389FFF74AFDFA
:103048002846E188FFF7C2FF38BD00BFC94389B2EF
:1030580001827047028A83890B40114202D01BB952
:10306800002070470020704701207047C94389B28B
:103078000182704730B587B004460D46038A23F4B1
:1030880040531B041B0CCA881343038283899BB2D9
:1030980023F4B05323F00C01A8882A896B890243D2
:1030A80013430B43A381A38A23F440731B041B0C13
:1030B800AA891343A38201A8FFF766FB1E4B9C4213
:1030C80001D1049B00E0039BA28912B2002A08DA0E
:1030D80003EB830303EB830329684900B3FBF1F196
:1030E80007E003EB830303EB830329688900B3FB41
:1030F800F1F1124BA3FB012358090501642300FBDE
:103108001313A28912B2002A09DAD90032310B4A04
:10311800A2FB0131C1F3421242EA050307E01B0199
:103128003233064AA2FB0323C3F343132B439BB258
:10313800238107B030BD00BF003801401F85EB5127
:1031480029B183899BB243F40053838170478389F3
:1031580023F400531B041B0C8381704710B4C1F384
:10316800421401F01F0101238B40012C01D10C30C6
:1031780004E0022C01D1103000E014301AB10268CA
:103188001343036003E0026822EA030303605DF867
:10319800044B7047C1F30801818070478088C0F3F1
:1031A800080070470388194201D0012070470020A9
:1031B800704700BFC94389B20180704710B4C1F39A
:1031C800421201F01F040123A340012A03D182897E
:1031D80092B2134008E0022A03D1028A92B2134045
:1031E80002E0828A92B21340090A01228A400188C9
:1031F80089B20A4013B11AB9002002E0002000E0A9
:1032080001205DF8044B704710B500F0EDFF1B2856
:103218001FD00D2803D10122344B1A7019E0082859
:1032280009D1334B1B68A3B1013B0021314AD1546A
:103238002F4A13600DE0A0F12003DBB25E2B53D8B8
:103248002B4B1B68FF2B04D82A4AD0540133284A39
:103258001360264B1B78002B33D0274803F0AEFCB5
:10326800264B1B68986802F0E9FF214B1B6873B175
:10327800234C20482146002200F00EFA214821461E
:1032880003F09CFC1D4B1B68986802F0D7FF194897
:1032980000214FF4807203F03FFC0024144B1C60A3
:1032A80019481A4903F08AFC144B1B68986802F005
:1032B800C5FF01F0C9FA164B18600C4B1C700120B1
:1032C80010BD134B186801F0E1FA01F0E9FA01F0BA
:1032D800F5FA0D48074903F071FC084B1B6898681C
:1032E80002F0ACFF012010BD002010BD1800002026
:1032F800780C0020780B0020BC0A0108500400203C
:1033080078090020E4F2000804030108ECF2000840
:103318007409002008B5642000F014FE01F042F89A
:1033280008BD00BF08B5FFF7F5FFFFF76DFF642084
:1033380000F008FEF9E700BF10B584B04FF48063D1
:1033480000930DF10F0009490022022300F08CFEC2
:103358000446012804D0064800F0C8FF002402E013
:10336800044800F0A1FF60B204B010BD2D3300087E
:10337800FCF200081CF3000870B5C0B004460E4605
:10338800684600214FF4807203F0C6FB204603F024
:1033980089FDB0F5807F04DD134800F0A7FF002009
:1033A8001FE0204603F07EFD02466846214603F0F2
:1033B800F1FD68460D4904F0DBFD054648B9204695
:1033C80003F070FD02463046214603F0E3FD01207C
:1033D80007E003F067FD02463046294603F0DAFDB0
:1033E800012040B070BD00BF3CF3000858F300084E
:1033F80070B5C0B004460E46684600214FF480728E
:1034080003F08AFB204603F04DFDB0F5807F04DD14
:103418002A4800F06BFF00204DE0204603F042FDF3
:1034280002466846214603F0B5FD0023336068462E
:10343800292103F073FC044608B100230370684691
:10344800282103F06BFCA8B324B91D4800F04EFFF7
:10345800002030E001301B4904F08AFD044600F0EA
:10346800DBFC306022E0212000F02EFD054620B96B
:10347800154800F03BFF00201DE0204603F012FD38
:10348800C2B22A70202A04D9104800F02FFF002069
:1034980011E0681C214603F07DFD3068294600F0E4
:1034A800D1FC0020074904F063FD0446002CDAD162
:1034B800012000E0012040B070BD00BF3CF30008CF
:1034C8005CF3000894F3000898F30008B0F30008D0
:1034D8002DE9F04129B9174800F008FF0020BDE8A0
:1034E800F08180460E46144B18881F2805D91348CA
:1034F80000F0FCFE0020BDE8F081114D00EB40001B
:10350800C00028440130414603F06EFC0A4F3C8855
:10351800404603F0C7FC04EB4403DB00E8543B8857
:1035280003EB4302D20015446E6101333B80012056
:10353800BDE8F081D4F3000884110020F4F30008FA
:10354800840E0020F0B587B0002302930393049300
:103558000593019321B92E4800F0C8FE002454E0D9
:1035680005460E4602A9FFF707FF044618B9294881
:1035780000F0BCFE49E0284601A9FFF739FF0446E0
:10358800E0B9254800F0B2FE3FE0244A6B002B4426
:10359800DB00D018013002A9D25C03F0B1FC50B9AD
:1035A80005EB4502D2001E4B13445B680198314677
:1035B8009847074609E00134A4B200E0002425B288
:1035C800184B1B889D42E0DB0127164B1B889D4248
:1035D80007D1154800F08AFE3046144903F07EFBF7
:1035E8000027019C08E0204600F058FC00F070FC21
:1035F800204600F059FC0446204600F05BFC0028F9
:10360800F1D0019800F010FC3C4660B207B0F0BD64
:103618001CF4000840F4000854F40008840E00204C
:10362800940E0020841100206CF4000880F4000837
:1036380070B584B0154B1868002100F06BFC144B72
:10364800186800F0AFFB0128F4D0114B186800F09F
:10365800C9FB044618B90F4800F048FEEAE70068BD
:10366800A16AFFF76FFF84F82C00684601F078F82C
:1036780004F118069DE80F0086E80F00012384F87E
:103688002D30606800F03EFCD4E700BF800E0020BB
:103698007C0E002094F400082DE9F04F99B00D91AC
:1036A80021B9594800F022FE0020AAE00746164634
:1036B800302000F009FC044620B9544800F016FEFA
:1036C80000209EE0524B186800F060FB012804D1EE
:1036D800504800F00BFE002093E04F4D2846002193
:1036E8004FF4007203F018FA2760A56210AF38464D
:1036F80001F036F804F1080597E80F0085E80F0097
:10370800201D00F0E9FB002384F82D30404B186899
:10371800214600F051FB414B186800F0F3FB0322EF
:1037280008E06068314600F0F5FB94F82D30EAB205
:10373800012B05D0531EDDB2002AF2D1012500E08D
:1037480000250023149315931693179394F92C309E
:10375800012B04D114A8324903F0C0FA03E014A8DD
:10376800304903F0BBFAD4E90623D4E90289CDE94C
:103778000E23B2EB080863EB09094FEA89034FEA05
:10378800880643EA98777B0143EAD6637201901B67
:1037980063EB070110EB080241EB0903DB0043EA86
:1037A8005273D2000A920B93D4E90889D4E904AB86
:1037B800B8EB0A0669EB0B07A26AD4E90201CDE966
:1037C8000001CDE902ABDDE90E01CDE90401CDE947
:1037D8000689DDE90A0180197941CDE908010D98CA
:1037E800114914AB03F010FA606800F0A7FB2046FB
:1037F80000F06EFB25B10D4800F078FD002000E0D8
:10380800012019B0BDE8F08FB4F40008D8F400081E
:103818007C0E002000F500087C0C0020800E0020A3
:1038280018F5000820F5000828F500084CF50008F0
:1038380010B584B0174800214FF4407203F06CF9BA
:103848000022154B1A80102000F086FA134B1860DE
:1038580020B9134800F04AFD002417E0114800F091
:103868003BFB4FF4806300930DF10F000E490022DB
:10387800022300F0F9FB0446012804D00B4800F0AD
:1038880035FD002402E00A4800F00EFD60B204B0E5
:1038980010BD00BF840E0020841100207C0E002083
:1038A80068F50008800E00203936000884F5000805
:1038B800A8F5000830B587B06C46094D0FCD0FC488
:1038C80095E8030044F8040B24F8021B090C217046
:1038D8000448694600F0E8FC012007B030BD00BF8D
:1038E800D0F5000804030108704700BF08B5024B73
:1038F800186800F007FB08BD1413002008B5044B36
:103908001B68034408461946FCF76AFC08BD00BF5B
:103918008811002000B589B0002106E02F4B1B68F4
:103928005B5CA52B03D0013189B21F29F6D92B4B3B
:103938001B6805A819440922FCF752FCB5238DF829
:103948000430BDF81530ADF8053000238DF8073088
:1039580001228DF808208DF809308DF80A308DF88D
:103968000B308DF80C308DF80D308DF80E309DF839
:103978001830934205D100238DF80F308DF81030A0
:1039880003E0BDF81B30ADF80F30154B186801A9DE
:103998000D22FCF725FC9DF818306BB9104B1968FF
:1039A800BDF819000D31BDF81B20FFF7A7FFBDF8C2
:1039B8001B000D3080B200E00D200022134605E008
:1039C80007490968C95C4A4001339BB28342F7D36F
:1039D800034B1B681A5409B05DF804FB0C13002054
:1039E8001013002008B5034B1B681844FCF7F8FBBC
:1039F80008BD00BF88110020F0B585B0002406E09E
:103A0800214B1B681B5DA52B03D00134A4B21F2CCE
:103A1800F6D91E2C35D81C4B196801A82144092257
:103A2800FCF7DEFB9DF808305BB3BDF80960BDF814
:103A38000B70154B1B6809341C44304621463A4626
:103A4800FFF7D0FF002519E02AB202EB42039B00E2
:103A58000E49CB5AB3420FD102EB42039B000B44F1
:103A68001B7A012B08D102EB420292000A445368E8
:103A7800304621463AB298470135ADB22BB21F2BDA
:103A8800E2DD05B0F0BD00BF0C1300208C11002052
:103A980008B5044B1868002100F03CFAFFF7ACFFAA
:103AA800F7E700BF1413002084B030B585B0044692
:103AB80009A880E80E00BDF94C0000F005FA2B4B70
:103AC8001860002844D09DF8283073B9202000F0F1
:103AD800FBF9274D2860202000F0F6F9254B1860E7
:103AE8002B68002B36D0002836D0224B1B680D934C
:103AF8001F4B1B680B932023ADF83830ADF83030DE
:103B080001238DF828301C4B10931C4B11931C4B30
:103B18001293204609A900F07DF801281ED1194802
:103B280000F0DAF94FF4806300930DF10F001649A5
:103B38000022032300F098FA0446012804D0134811
:103B480000F0D4FB00240AE0114800F0ADFB06E0C9
:103B5800002404E0002402E0002400E0002460B215
:103B680005B0BDE8304004B0704700BF88110020A0
:103B7800101300200C130020F13800081D3900082C
:103B8800F538000814130020993A00083007010896
:103B98005007010870B4002317E01CB204EB44027C
:103BA80092001B4DAA5A82420DD104EB44029200A6
:103BB8002A44127A012A06D104EB4404A4002C44B6
:103BC8006160012022E001339BB21AB21F2AE4DDB2
:103BD800002213E014B204EB44039B000C4D2B4469
:103BE8001B7A4BB92A4665002B199B00D618D05270
:103BF80071600123337205E0013292B213B21F2BB8
:103C0800E8DD00230BB9002000E0012070BC7047FC
:103C18008C11002070B584B00546C3B2012B15D8AD
:103C28000C46A9B18E6901AB01F11C0207CA83E8F1
:103C3800070063690093231D0FCBB047012809D102
:103C4800064B43F825400123237004E0002002E0DE
:103C5800002000E0002040B204B070BD181300201E
:103C680038B50546C3B2012B0ED80C4671B18B6826
:103C780073B11B6808689847034650B1064B43F870
:103C880025400123237104E0002302E0002300E023
:103C9800002358B238BD00BF20130020F8B51C46D9
:103CA800C3B2012B1CD80D461646D9B1E4B1144B4A
:103CB80053F82030D3B11A79D2B19F680AE0BB68B3
:103CC80000B228449847A8B1B0F1FF3F14D0238828
:103CD80001332380208803B2B342F0D101200CE0E5
:103CE80000200AE0002008E0002006E0002004E0B0
:103CF800002002E0002000E0FF2040B2F8BD00BF35
:103D080020130020F8B51C46C3B2012B18D80D4665
:103D18001646B9B1C4B10F4B53F82030B3B11A7974
:103D2800B2B19F6806E07A681BB2E85C90472388C6
:103D38000133238023881AB2B242F4D10120F8BD9E
:103D48000020F8BD0020F8BD0020F8BD0020F8BD17
:103D58000020F8BD2013002038B505460C2000F0DF
:103D6800B3F888B10446A80000F0AEF8206020B986
:103D7800204600F0ADF8002038BD65810023A380FF
:103D8800E3802381204638BD002038BD28B1428910
:103D980003899A4203D1012070470120704700200F
:103DA800704700BF18B103891BB10020704700207D
:103DB80070470120704700BF034688B181B102688F
:103DC800C08842F82010DA88501C5989884202D1EC
:103DD8000022DA8001E00132DA801A8901321A8180
:103DE800704700BF90B110B403460168828851F84B
:103DF8002200541C59898C4202D100229A8001E089
:103E080001329A801A89013A1A8101E0002070472C
:103E18005DF8044B704700BF08B5082000F054F85F
:103E280000220260426008BD034630B970475C68F2
:103E3800184600F04DF8234600E010B5002BF6D1E7
:103E480010BD00BF90B138B50D46044669B10820D1
:103E580000F03AF8024640B105600023436000E0F4
:103E68001C466368002BFBD1626038BD704700BFF9
:103E78004368002002E0013080B25B68002BFAD171
:103E880000B270474268002304E08B4204D001333B
:103E98009BB25268002AF8D11068704708B10068D0
:103EA80070470020704700BF08B140687047002085
:103EB800704700BF18B143681BB901207047012043
:103EC80070470020704700BF08B502F025F808BD0C
:103ED80008B502F07FF808BD10B50446012000219E
:103EE800032201F009FE206020B100210A460B469A
:103EF80001F032FE2068002101220B4601F0B2FEDB
:103F080010BD00BF08B500210A460B4601F024FE8B
:103F180008BD00BF10B5044649B9204600214FF03E
:103F2800FF320B4601F09EFE0128F6D110BD0A466D
:103F380000210B4601F096FE10BD00BF08B501F048
:103F480023FF08BD38B50546002403E0012001F031
:103F580033FB0134AC42F9D338BD00BF00220AE07C
:103F680053B2C3EBC3039B000649CB5C0BB9D0B279
:103F780005E00132D2B253B20F2BF1DDFF2040B27F
:103F8800704700BF2C1300202DE9F04184B0304B5E
:103F98001868FFF7B7FF2F4800F0D6F90227042664
:103FA8002B4B18680021FFF7B5FF00244CE065B2E1
:103FB800C5EBC5039B00284AD35C012B42D1C5EB56
:103FC800C5039B0013441B7A013B032B03D8DFE88E
:103FD80003F014050B114FF0020810E0022F01DC6A
:103FE8000137FFB2B8460AE0052E01D80136F6B20D
:103FF800B04604E04FF0070801E04FF00108EB007D
:104008005B1B9B00144A13441869191D9A895B6944
:10401800CDF8008001910021029103910F4901F030
:10402800EFF8012804D00E48414600F05FF9B7E7E1
:10403800C5EBC505AD000222074B5A550948414654
:1040480000F082F90134E4B263B20F2BAFDDA7E7C9
:1040580028130020700701082C13002048F50008D9
:104068008C070108B4070108F8B520B10C461746BB
:104078001E46054621B9124800F038F90020F8BD5F
:10408800FFF76CFFB0F1FF3F04D10E4800F02EF9A6
:104098000020F8BD0C49C200131A9B000B441C6198
:1040A8005F611E72069CDC602870131A9B00012455
:1040B800CC54064895F9001000F046F92046F8BDA2
:1040C800E4070108100801082C130020340801082F
:1040D80000B587B00F48FFF7FFFE0123009305AB3B
:1040E80001930023029303930B480C494FF4807209
:1040F80001F086F8012804D0094800F0F7F80020FC
:1041080005E0084800F020F901F022F9012007B085
:104118005DF804FB28130020913F0008700801088F
:1041280078080108940801080346094A126812B978
:104138000849074A1160064A106803446A469342D0
:1041480002D8034A136070474FF0FF30704700BF32
:10415800F01400204C6700204FF400534B600020FF
:10416800704700BF022801D801207047002070471F
:10417800002070474FF0FF30704700BF08B530B1DE
:10418800054B186003689847034610B902E00023FE
:1041980000E0012358B208BDEC14002010B5044615
:1041A800034B1B685B6803B19847204610BD00BFEE
:1041B800EC14002008B5C0B2FFF7F0FF08BD00BF3F
:1041C800012807D00DE04D1C0878FFF7F3FF0134F4
:1041D800294602E070B516460024B442F3DB3046A7
:1041E80070BD4FF0FF30704700B583B0074B1B68B8
:1041F8009B6823B10DF107009847012802D19DF86B
:10420800070000E0002003B05DF804FBEC14002078
:1042180008B5FFF7E9FF08BD40B10FE0FFF7F8FF69
:1042280010B1307001340136013503E070B50E4627
:1042380000242546002DF1DD204670BD4FF0FF30EB
:10424800704700BF0FB470B5A2B001A8002180224A
:1042580002F062FC00252E4614E0013C02D106E083
:104268004CF25034FFF7C0FF03460028F5D00CB9D4
:1042780056B911E02AB222A90A4402F8843C013551
:10428800ADB201367F2EEBDD27AA219201A826992F
:1042980007F0FEFB012000E0FF2040B222B0BDE89D
:1042A800704004B0704700BF0FB430B5C3B046AC1F
:1042B80054F8045B01A800214FF4807202F02CFC32
:1042C800419401A82946224607F0B0FB002805DBE7
:1042D80001A802F073FC044802F070FC43B0BDE88A
:1042E800304004B0704700BFBC0A01080FB430B5B5
:1042F800C3B046AC54F8045B01A800214FF48072A7
:1043080002F00AFC419401A82946224607F08EFBD8
:1043180000280DDB09482521292200F0DDFA08488C
:1043280002F04CFC01A802F049FC064802F046FCE9
:1043380043B0BDE8304004B0704700BFB008010882
:10434800B8080108BC0801080FB430B5C3B046ACC2
:1043580054F8045B01A800214FF4807202F0DCFBE2
:10436800419401A82946224607F060FB00280DDB8E
:1043780009482821212200F0AFFA084802F01EFC63
:1043880001A802F01BFC064802F018FC43B0BDE887
:10439800304004B0704700BFC0080108B8080108E1
:1043A800BC080108F0B5C1B0684600214FF480721E
:1043B80002F0B2FBCF4802F001FCCF4802F072FDD8
:1043C800083087B2002405E06846CC4902F086FC34
:1043D8000134E4B27D080135AC42F5DBC8486946D2
:1043E80002F0ECFB684600214FF4807202F094FB67
:1043F8006846C44902F072FC684602F053FDC6B232
:1044080005E06846C04902F069FC0136F6B27C1E38
:10441800A642F6DBBB4E6846314602F05FFCB84860
:10442800694602F0CBFB684600214FF4807202F027
:1044380073FB6846314602F051FCB34E684631467C
:1044480002F04CFC6846314602F048FC68463146AA
:1044580002F044FC6846314602F040FC6846AB492D
:1044680002F03CFC6846AA4902F038FC684602F0B3
:1044780019FDC6B205E06846A34902F02FFC0136D3
:10448800F6B2B442F7DC9F4E6846314602F026FC8D
:104498009B48694602F092FB684600214FF48072FF
:1044A80002F03AFB6846314602F018FC684602F012
:1044B800F9FCC6B205E06846934902F00FFC0136E4
:1044C800F6B2B442F7DC8F4E6846314602F006FC7D
:1044D8008B48694602F072FB684600214FF48072EF
:1044E80002F01AFB6846314602F0F8FB864E684631
:1044F800314602F0F3FB6846314602F0EFFB6846AE
:10450800314602F0EBFB6846314602F0E7FB6846AD
:10451800804902F0E3FB68467F4902F0DFFB68460A
:1045280002F0C0FCC6B205E06846774902F0D6FB47
:104538000136F6B2B442F7DC724E6846314602F0F4
:10454800CDFB6F48694602F039FB684600214FF4FD
:10455800807202F0E1FA6846314602F0BFFB684615
:1045680002F0A0FCC6B205E06846674902F0B6FB57
:104578000136F6B2B442F7DC624E6846314602F0C4
:10458800ADFB5F48694602F019FB684600214FF40D
:10459800807202F0C1FA6846314602F09FFB5A4E1B
:1045A8006846314602F09AFB6846314602F096FBAF
:1045B8006846314602F092FB6846314602F08EFBAF
:1045C8006846564902F08AFB6846554902F086FB60
:1045D800684602F067FCC6B205E068464A4902F040
:1045E8007DFB0136F6B2B442F7DC464E68463146EA
:1045F80002F074FB4248694602F0E0FA684600217E
:104608004FF4807202F088FA6846314602F066FB81
:10461800684602F047FCC6B205E068463A4902F02F
:104628005DFB0136F6B2B442F7DC364E68463146D9
:1046380002F054FB3248694602F0C0FA684600218D
:104648004FF4807202F068FA6846314602F046FB81
:104658002D4E6846314602F041FB6846314602F06D
:104668003DFB6846314602F039FB6846314602F0A8
:1046780035FB6846204902F031FB684602F012FC1F
:10468800C6B205E06846204902F028FB0136F6B2BA
:10469800B442F7DC1B4E6846314602F01FFB18484F
:1046A800694602F08BFA684600214FF4807202F0E6
:1046B80033FA6846314602F011FB684602F0F2FB15
:1046C800C6B205E06846104902F008FB0136F6B2AA
:1046D800B442F7DC68460B4902F000FB084869461B
:1046E80002F06CFA684600214FF4807202F014FA66
:1046F80000241DE0BC0A010830090108600901080E
:10470800640901086C090108800901087009010899
:10471800840901088C090108A4090108AC090108E9
:10472800C409010868460B4902F0D8FA0134E4B21A
:10473800A542F7DC0848694602F040FA68460021BD
:104748004FF4807202F0E8F9044802F037FA41B0F9
:10475800F0BD00BF6009010864090108BC0A01082E
:1047680010B40446034B0FCB84E80F0020465DF8D5
:10477800044B7047F814002082B070B582B004462C
:1047880006A981E80C00C3B2012B1FD80A9B00932D
:104798000FC90B9DA8470546012819D104EB8404CD
:1047A800E4000F4B1C4406AE0FCE0FC40FCE0FC44F
:1047B80096E8030084E80300DDE90823CDE9002337
:1047C8000848DDE90623FFF7BFFD02E0002500E009
:1047D800002568B202B0BDE8704002B0704700BF63
:1047E80008150020D809010870B50446C3B2012B8A
:1047F80014D800EB8003DB00094A134493F82030F7
:1048080063B9154686003318DB0013449B69984743
:104818003444E4002C44012384F8203070BD00BFE8
:104828000815002008B503460A460548194602F04F
:10483800C5F9044B1B68986801F000FD08BD00BF6E
:10484800380A01085004002000B583B00C4802F073
:10485800B5F90C4B1B68986801F0F0FC0A486946EA
:104868000DF10202FFF7EEFC009B00209AB262F302
:104878000F001B0C63F31F4003B05DF804FB00BF7F
:10488800440A0108500400204C0A010800B583B00E
:104898000190011400B2FFF7C5FF03B05DF804FBF7
:1048A80008B5044802F08AF9034B1B68986801F0C0
:1048B800C5FC08BD680A01085004002008B5044872
:1048C80002F07CF9034B1B68986801F0B7FC08BD3F
:1048D800740A01085004002008B50346044802F091
:1048E8006DF9044B1B68986801F0A8FC08BD00BF6F
:1048F800980A01085004002008B501F0CFFA08BD55
:1049080008B50248FFF7F2FCFEE700BFA80A010855
:1049180008B5FFF7F5FF00BF08B5FFF7F1FF00BFC7
:1049280008B5FFF7EDFF00BF08B5FFF7E9FF00BFC7
:1049380008B5FFF7E5FF00BF08B5FFF7E1FF00BFC7
:1049480008B5FFF7DDFF00BF08B5FFF7D9FF00BFC7
:1049580008B5FFF7D5FF00BF08B5FFF7D1FF00BFC7
:1049680008B5FFF7CDFF00BF08B5FFF7C9FF00BFC7
:1049780008B5FFF7C5FF00BF08B5FFF7C1FF00BFC7
:1049880008B5FFF7BDFF00BF08B5FFF7B9FF00BFC7
:1049980008B5FFF7B5FF00BF08B5FFF7B1FF00BFC7
:1049A80008B5FFF7ADFF00BF08B5FFF7A9FF00BFC7
:1049B80008B5FFF7A5FF00BF08B5FFF7A1FF00BFC7
:1049C80008B5FFF79DFF00BF08B5FFF799FF00BFC7
:1049D80008B5FFF795FF00BF08B5FFF791FF00BFC7
:1049E80008B5FFF78DFF00BF08B5FFF789FF00BFC7
:1049F80008B5FFF785FF00BF08B5FFF781FF00BFC7
:104A080008B5FFF77DFF00BF08B5FFF779FF00BFC6
:104A180008B5FFF775FF00BF08B5FFF771FF00BFC6
:104A280008B5FFF76DFF00BF08B5FFF769FF00BFC6
:104A380008B5FFF765FF00BF08B5FFF761FF00BFC6
:104A480008B5FFF75DFF00BF08B5FFF759FF00BFC6
:104A580008B5FFF755FF00BF08B5FFF751FF00BFC6
:104A680008B5FFF74DFF00BF08B5FFF749FF00BFC6
:104A780008B5FFF745FF00BF08B5FFF741FF00BFC6
:104A880008B5FFF73DFF00BF08B5FFF739FF00BFC6
:104A980008B5FFF735FF00BF08B5FFF731FF00BFC6
:104AA80008B5FFF72DFF00BF08B5FFF729FF00BFC6
:104AB80008B5FFF725FF00BF08B5FFF721FF00BFC6
:104AC80008B5FFF71DFF00BF704700BFFEE700BF36
:104AD800FEE700BFFEE700BFFEE700BF704700BF6C
:104AE80008B50F4B1B78D3B10E4840F22551FEF79D
:104AF80065FBA0B10C4B186801F0B4FA012806D187
:104B0800084840F225510022FEF728FB08BD054859
:104B1800FEF744FBC1B2044B186801F0AFFA08BDB8
:104B28005C150020003801405815002070B586B08B
:104B3800064605200121FDF793FE4FF48040012130
:104B4800FDF78EFE4FF40073ADF8143018238DF87E
:104B5800173003258DF81650264C204605A9FDF779
:104B6800C1FD4FF48063ADF8143004238DF817307D
:104B78008DF81650204605A9FDF7B4FD01960023CF
:104B8800ADF80830ADF80A30ADF80C30ADF810309B
:104B98000C23ADF80E30184801A9FEF76BFA25234F
:104BA8008DF8003002238DF8013001238DF8023092
:104BB8008DF803306846FDF767FC202001F02CFAD9
:104BC8000E4B186098B101240D4B1C700A4D2846F5
:104BD8002146FEF7B5FA284640F225512246FEF74F
:104BE800BDFA28464021FEF7E5FA204600E00020FD
:104BF80006B070BD0008014000380140581500207B
:104C08005C15002020B310B50446144840F2255125
:104C18000022FEF7A3FA124B186801F019FA0128CE
:104C280009D10E4840F225510122FEF797FA0023D8
:104C38002370FF200FE00A4B186801F031FA20704A
:104C4800064840F225510122FEF788FA012002E0C9
:104C5800002040B2704740B210BD00BF003801408C
:104C68005815002008B501460548FEF793FA044890
:104C78004021FEF797FA0028F9D0012008BD00BFAF
:104C88000038014070B58CB001200146FDF7DAFD0F
:104C98001E4D2846FDF73AFC1D4B01931D4B5A68E3
:104CA800029210220392B3F9083004930024059469
:104CB800802306930794089409944FF400530A93A9
:104CC8000B94284601A9FDF7B5FC134802210122DF
:104CD800FDF732FE0F238DF800308DF801408DF876
:104CE800024001268DF803606846FDF7CDFB284693
:104CF80002213246FDF7CCFC4FF40030FDF7E4FC0E
:104D080028462146FDF7B6FC0CB070BD580002409D
:104D18000C3800406C1500200038004070B58CB08D
:104D280001200146FDF78EFD1D4D2846FDF7EEFBDF
:104D38001C4B01931C4BDA68029200240394B3F9CC
:104D480010300493059480230693079408940994DB
:104D58004FF400560A960B94284601A9FDF76AFC01
:104D6800124801210A46FDF7E7FD0E238DF80030B1
:104D78008DF8014001248DF802408DF80340684603
:104D8800FDF782FB284602212246FDF781FC3046CA
:104D9800FDF79AFC28462146FDF76CFC0CB070BD67
:104DA800440002400C3800406C15002000380040D8
:104DB80008B5FFF767FFFFF7B1FF02480121FDF7CC
:104DC800ADFD08BD0038004010B586B04FF48040F6
:104DD8000121FDF753FD08200121FDF741FD4FF4A6
:104DE8003043ADF8143004238DF8173003238DF8C1
:104DF8001630184C204605A9FDF774FC4FF4804383
:104E0800ADF8143018238DF81730204605A9FDF7A2
:104E180069FC0021ADF80010ADF80210ADF80410DF
:104E28000223ADF806300123ADF80830ADF80A10BA
:104E3800ADF80C10ADF80E100723ADF81030A4F53E
:104E480054442046FDF784FD20466946FDF740FDA1
:104E580006B010BD000C014030B583B04FF40050CF
:104E6800FDF720FC012817D14FF40050FDF72CFC6A
:104E78000A4D2B680A4CE068B4F9101098476B6823
:104E880060680DF10601984706480121FDF7F2FB1D
:104E980005480021FDF7EEFB03B030BD601500208A
:104EA8006C150020580002404400024008B54FF439
:104EB8000030FDF7F7FB012808D14FF40030FDF76B
:104EC80003FC034B9B689847FFF772FF08BD00BFC0
:104ED8006015002084B038B504AC84E80F00079B47
:104EE800DBB1059BDBB1099BDBB10A9BDBB10B9BFB
:104EF800DBB1104C04AD0FCD0FC42B6823600E4BF3
:104F080009AA07CA83E80700FFF75EFFFFF750FF0B
:104F18000A48FFF719FA012008E0002006E00020FF
:104F280004E0002002E0002000E00020BDE8384056
:104F380004B070476C15002060150020C00A0108F5
:104F480008B507480121FEF785F838B10448012162
:104F5800FEF78CF8034B1B6803B1984708BD00BFE8
:104F6800000C004080150020F0B589B08DE80F00D6
:104F78000E9D002D78D0DDE9006756EA07030BD1B6
:104F8800DDE90223B2F57A7F73F1000304DA3848C9
:104F9800FFF7ACF9002068E008200121FDF76EFC5E
:104FA8003448FDF7D7FD32238DF8103002238DF8F1
:104FB800113001238DF812308DF8133004A8FDF755
:104FC80063FA012E77F100031CDB2B4B1C68DDE92B
:104FD80002012A4A0023FCF737F936184F41A4FB8F
:104FE800060104FB0711264BA3FB0434A40922463F
:104FF8000023FCF729F90138ADF81800013CADF899
:1050080014401AE01C4B1C68DDE902011B4A00230E
:10501800FCF71AF90B46A4FB000104FB0311194B1A
:10502800A3FB0434A40C22460023FCF70DF9013835
:10503800ADF81800013CADF814400024ADF81A4052
:10504800ADF816400B4E304605A9FDF783FE3046F5
:1050580001212246FDF762FF30462146FDF73EFF5B
:10506800094B1D60012000E0002009B0F0BD00BF21
:10507800D40A0108000C00400000002040420F0044
:10508800D34D621083DE1B438015002010B5054CFC
:10509800204601210A46FDF741FF20460121FDF780
:1050A8001DFF10BD000C004010B5054C2046012125
:1050B8000022FDF733FF20460021FDF70FFF10BD4A
:1050C800000C004010B50446006B00F083FF20463A
:1050D80000F080FF10BD00BF70B506460C464C209E
:1050E80000F01AFF054680B11CB9B00000F014FFAB
:1050F80000E02046286320B9284600F06BFF002511
:1051080003E0A521B20001F007FD284670BD00BFED
:1051180038B5044615463430102201F03BFF002311
:1051280084F84330072D00D90725E562201D00F0DB
:10513800CDFB04F1180000F0C9FB2461C5F1080596
:10514800A561646238BD00BF38B5002406E01420AC
:105158000E4B00FB043000F0ADFB0134072CF6D9F0
:105168000B4D284600F0A6FB0A4C204600F0A2FB97
:10517800094800F09FFB094800F09CFB084800F034
:1051880099FB084B1D60084B1C6038BDB01500200A
:105198007C16002090160020581600209815002034
:1051A800A81600208C1500207416002010B504469F
:1051B8000E4B1B6858600E4B1B68984207D20D4B6C
:1051C80018680A4B1968043100F092FB10BD0A4BAD
:1051D8001868064B1968043100F08AFB074B1B68F6
:1051E8009C4201D2054B1C6010BD00BF5416002024
:1051F80070160020741600208C1500201C0000205A
:105208002DE9F04F83B00C9EDDF8348040B9474853
:10521800474940F2EB1201F0D1FC00F0FFFDFEE738
:105228008B46174699468246072E08D93F4840497B
:105238004FF4F67201F0C2FC00F0F0FDFEE71046F4
:105248000E99FFF749FF044600285DD0036B07F16C
:105258008045013D03EB850323F007050097594678
:1052680032460F9BFFF754FF284651464A4600F046
:10527800AFFD206010F0070F08D02C482C494FF4E0
:105288000C7201F09BFC00F0C9FDFEE7B8F1000FBD
:1052980001D0C8F8004000F0C9FD264A1368013360
:1052A8001360254B1B683BB9234B1C601368012B0B
:1052B8000CD1FFF749FF09E0204B1B6833B91E4B9F
:1052C8001B68DB6AB34201D81B4B1C60E06A1C4BAD
:1052D8001B68984201D91A4B18601A4A136863640C
:1052E80001331360184B1B68984201D9164B18609C
:1052F80000EB80008000154B1844211D00F0EAFAED
:1053080000F0A2FD012401E04FF0FF34012C09D187
:105318000A4B1B6833B1084B1B68DB6AB34201D2E6
:1053280000F074FD204603B0BDE8F08F100B0108B3
:10533800280B010850160020541600209015002054
:10534800BC16002078160020AC150020B0150020EF
:1053580010B584B0002300930193029303930F4880
:105368000F498022FFF74CFF0446012809D100F0BD
:1053780055FD01220B4B1A6000220B4B1A6000F0FE
:10538800B3FD44B909480A4940F2125201F016FC2B
:1053980000F044FDFEE704B010BD00BF4D56000804
:1053A8007C0B01089015002070160020100B0108D6
:1053B800280B0108024A136801331360704700BFC5
:1053C8006C16002038B5354B1B68002B60D1344B68
:1053D8001A6801321A601B682BBB324B1B681B68AA
:1053E80043B13148314940F28B6201F0E7FB00F0EC
:1053F80015FDFEE72B4B19682D4A106818601160DF
:105408002C490A6801320A601B681B6823B94FF0EF
:10541800FF32294B1A6006E0224B1B68DB68DB6809
:105428005A68254B1A601E4B1A68234B1B689A4210
:1054380032D31C4B1B681B6823B94FF0FF321E4B3D
:105448001A6038BD174B1B68DB68DC686368144A50
:1054580012689A4202D2184A136038BD251D2846A0
:1054680000F062FAA36A1BB104F1180000F05CFABC
:10547800E06A124B1B68984201D9104B186000EB88
:10548800800080000E4B1844294600F023FAD0E72C
:105498000C4A13680133136038BD00BF6C16002036
:1054A800701600208C150020100B0108280B01082D
:1054B80074160020881500201C000020AC15002060
:1054C800B01500208415002070B5314B1B6843B916
:1054D8003048314940F24C5201F070FB00F09EFC1C
:1054E800FEE700F0A3FC2A4B1A68013A1A601B6811
:1054F800002B46D1294B1B681BBB002444E0284BDA
:10550800DB68DC6804F1180000F00EFA261D30464E
:1055180000F00AFAE06A234B1B68984201D9214B34
:10552800186000EB800080001F4B1844314600F0E3
:10553800D1F9E26A1D4B1B68DB6A9A4202D3012546
:1055480000E00025164B1B68002BD8D1184B1B68B0
:1055580033B90AE0FFF736FF154A1368013B1360B9
:10556800134B1B68002BF5D101251DB9114B1B6886
:10557800012B08D100220F4B1A6000F047FC0124D0
:1055880002E0002400E0002400F05EFC204670BD2C
:105598006C160020100B0108280B0108501600207B
:1055A80058160020AC150020B01500205416002015
:1055B80084150020A416002010B580B10446FFF71A
:1055C800F9FE094B1B681C44084B1868043000F0AE
:1055D800ABF92046FFF7EAFDFFF776FF00E0002071
:1055E80008B900F013FC10BD7016002054160020F6
:1055F80010B51BE0FFF7DEFE0F4B1C68FFF764FFDA
:10560800A4B100F013FC0C4BDB68DC68201D00F033
:105618008BF90A4A1368013B1360094A1368013B76
:10562800136000F011FC2046FFF74CFD044B1B688B
:10563800002BDFD110BD00BF9815002050160020A8
:105648009415002008B5FFF7D3FF034B1B68012B07
:10565800F9D900F0DBFBF6E7B015002010B5204BB8
:105668001B689BB101221F4B1A6010BD1E4B1B68A3
:1056780043B91E481E4940F23D7201F09FFA00F0FE
:10568800CDFBFEE7184A1368013B1360164B1B68F5
:1056980003EB83039B00174AD358002BE6D0124B29
:1056A8001B6814469A00D11889002144486840684C
:1056B80048601A44920008322244904205D1416859
:1056C80003EB830292002244516003EB83039B00A7
:1056D800084A13445B68DA68074B1A6010BD00BFBC
:1056E8006C160020A4160020AC150020100B010831
:1056F800280B0108B01500205416002038B540B911
:10570800104811494FF4E96201F058FA00F086FB9D
:10571800FEE70C460D4D2968183100F0E9F82868B5
:10572800043000F001F9B4F1FF3F05D129680848B9
:10573800043100F0CFF838BD064B18682044FFF755
:1057480035FD38BD100B0108280B01085416002040
:10575800A81600207016002038B5C368DC6844B964
:1057680019481A4940F2B47201F028FA00F056FBC1
:10577800FEE704F11805284600F0D6F8144B1B681C
:105788009BB9251D284600F0CFF8E06A114B1B682D
:10579800984201D90F4B186000EB800080000E4B37
:1057A8001844294600F096F803E00C48294600F012
:1057B80091F8E26A0A4B1B68DB6A9A4201D301201E
:1057C80038BD002038BD00BF100B0108280B0108A8
:1057D8006C160020AC150020B015002058160020CB
:1057E8005416002008B540B90748084940F2D67257
:1057F80001F0E4F900F012FBFEE7054A12680260C6
:10580800044A1268426008BD100B0108280B010801
:10581800881500207016002038B540B91E481F4969
:105828004FF4FC6201F0CAF900F0F8FAFEE70D4601
:10583800044641B91848194940F2E17201F0BEF92D
:1058480000F0ECFAFEE700F0F1FA2B68B3F1FF3F45
:1058580018D02168124A1268914204D06168114A2E
:105868001268914210D90F4A11686068091A8B4270
:105878000CD91268121A9B1A2B602046FFF7B2FF48
:10588800002404E0002402E0012400E0012400F0E8
:10589800DBFA204638BD00BF100B0108280B0108B1
:1058A80088150020701600200122014B1A607047ED
:1058B800A416002000F1080343604FF0FF32826015
:1058C800C360036100230360704700BF00230361C6
:1058D800704700BF43685A684A6042688A605A68DD
:1058E8009160596041600861036801330360704743
:1058F80010B40C68B4F1FF3F01D1036907E000F16F
:10590800080300E05B685A681268A242FAD95A682C
:105918004A6091608B6059600861036801330360D5
:105928005DF8044B704700BF436882689A608368DB
:1059380042685A6003695A68824201D182685A6093
:10594800002202611A68013A1A601868704700BF9D
:1059580000230BE0074A02EBC3025268824204D1DB
:105968000021044A42F8331070470133072BF1D95C
:10597800704700BF0867002010B5044600F056FACB
:10598800A36BE46BA34214BF0024012400F05CFA6B
:10599800204610BD10B5044600F048FAA46BB4FACE
:1059A80084F4640900F050FA204610BD10B504468E
:1059B800036CEBB16AB980681A46FAF711FCA26861
:1059C800236C1344A3606268934211D32368A360D5
:1059D8000EE0C0681A46FAF703FC236C5B42E268E3
:1059E8001A44E26021688A4202D262681344E36082
:1059F800A36B0133A36310BD38B50346006858B1E3
:105A08001A6CDC681444DC605D68AC4200D3D86072
:105A18000846D968FAF7E4FB38BD00BF10B504465C
:105A280000F004FA0BE0636A63B104F12400FFF7A5
:105A380093FE08B1FFF738FFA36C013BA364A36C86
:105A4800002BF0DC4FF0FF33A36400F0FDF900F009
:105A5800EDF90BE0236963B104F11000FFF77CFE58
:105A680008B1FFF721FF636C013B6364636C002B93
:105A7800F0DC4FF0FF33636400F0E6F910BD00BFBF
:105A880038B540B91A481B4940F21B1201F096F884
:105A980000F0C4F9FEE70D46044600F0C7F9216896
:105AA800E26B236C03FB021060600020A063A1601E
:105AB800013A02FB0313E3604FF0FF336364A3640E
:105AC80055B9236983B104F11000FFF745FE012899
