:020000040800F2
:1000000000C0002065240008E94C0008ED4C000801
:10001000F14C0008F54C0008F94C00080000000005
:100020000000000000000000000000001160000857
:10003000FD4C00080000000085600008194B000816
:10004000314B0008394B0008414B0008494B000870
:10005000514B0008594B0008614B0008694B0008E0
:10006000714B0008794B0008814B0008894B000850
:10007000914B0008994B00087D500008D1500008B2
:10008000A14B0008A94B0008B14B0008B94B000870
:10009000C14B0008C94B0008D14B0008D94B0008E0
:1000A000E14B0008E94B0008F14B0008F94B000850
:1000B000014C0008094C0008B51E0008114C00084E
:1000C000194C0008214C0008294C0008314C00084C
:1000D000394C0008014D0008414C0008494C00080B
:1000E000514C0008594C0008614C0008694C00084C
:1000F000714C0008794C0008814C0008894C0008BC
:10010000914C0008994C000865510008A14C00086A
:10011000A94C0008B14C0008B94C0008C14C0008BB
:10012000C94C0008D14C0008D94C0008E14C00082B
:1001300000000000000000000000000000000000BF
:1001400000000000000000000000000000000000AF
:10015000000000000000000000000000000000009F
:10016000000000000000000000000000000000008F
:10017000000000000000000000000000000000007F
:10018000000000000000000000000000000000006F
:10019000000000000000000000000000000000005F
:1001A000000000000000000000000000000000004F
:1001B000000000000000000000000000000000003F
:1001C000000000000000000000000000000000002F
:1001D000000000000000000000000000000000001F
:0401E0005FF8E0F1F3
:1001E800844641EA000313F0030349D1403A23D37C
:1001F8000B6803604B6843608B688360CB68C3609F
:100208000B6903614B6943618B698361CB69C36186
:100218000B6A03624B6A43628B6A8362CB6AC3626E
:100228000B6B03634B6B43638B6B8363CB6BC36356
:1002380040304031403ADBD230320BD30B68036098
:100248004B6843608B688360CB68C36010301031A3
:10025800103AF3D20C3205D351F8043B40F8043B72
:10026800043AF9D2043208D0D2071CBF11F8013B76
:1002780000F8013B01D30B8803806046704700BF3C
:10028800082A13D38B07B1D010F00303AED0C3F103
:100298000403D21ADB071CBF11F8013B00F8013B2D
:1002A800A4D331F8023B20F8023B9FE7043AD9D3A4
:1002B800013A11F8013B00F8013BF9D20B780370C1
:1002C8004B7843708B7883706046704781F00041AB
:1002D80002E000BF83F0004330B54FEA41044FEA23
:1002E800430594EA050F08BF90EA020F1FBF54EABE
:1002F800000C55EA020C7FEA645C7FEA655C00F05A
:10030800E2804FEA5454D4EB5555B8BF6D420CDD2A
:100318002C4480EA020281EA030382EA000083EAAD
:10032800010180EA020281EA0303362D88BF30BD4D
:1003380011F0004F4FEA01314FF4801C4CEA1131A3
:1003480002D0404261EB410113F0004F4FEA033302
:100358004CEA133302D0524263EB430394EA050F8D
:1003680000F0A780A4F10104D5F1200E0DDB02FAFC
:100378000EFC22FA05F2801841F1000103FA0EF290
:10038800801843FA05F359410EE0A5F120050EF156
:10039800200E012A03FA0EFC28BF4CF0020C43FA87
:1003A80005F3C01851EBE37101F0004507D54FF094
:1003B800000EDCF1000C7EEB00006EEB0101B1F5E4
:1003C800801F1BD3B1F5001F0CD349085FEA30002A
:1003D8004FEA3C0C04F101044FEA445212F5800F35
:1003E80080F09A80BCF1004F08BF5FEA500C50F1D2
:1003F800000041EB045141EA050130BD5FEA4C0CB5
:10040800404141EB010111F4801FA4F10104E9D13D
:1004180091F0000F04BF01460020B1FA81F308BF34
:100428002033A3F10B03B3F120020CDA0C3208DD00
:1004380002F1140CC2F10C0201FA0CF021FA02F1DB
:100448000CE002F11402D8BFC2F1200C01FA02F14B
:1004580020FA0CFCDCBF41EA0C019040E41AA2BF70
:1004680001EB0451294330BD6FEA04041F3C1CDA38
:100478000C340EDC04F11404C4F1200220FA04F058
:1004880001FA02F340EA030021FA04F345EA030102
:1004980030BDC4F10C04C4F1200220FA02F001FAC4
:1004A80004F340EA0300294630BD21FA04F0294646
:1004B80030BD94F0000F83F4801306BF81F48011DF
:1004C8000134013D4EE77FEA645C18BF7FEA655C52
:1004D80029D094EA050F08BF90EA020F05D054EA24
:1004E800000C04BF1946104630BD91EA030F1EBF29
:1004F8000021002030BD5FEA545C05D1400049412D
:1005080028BF41F0004130BD14F580043CBF01F51F
:10051800801130BD01F0004545F0FE4141F4700105
:100528004FF0000030BD7FEA645C1ABF19461046E0
:100538007FEA655C1CBF0B46024650EA013406BFE1
:1005480052EA033591EA030F41F4002130BD00BFA0
:1005580090F0000F04BF0021704730B54FF480645D
:1005680004F132044FF000054FF0000150E700BFDE
:1005780090F0000F04BF0021704730B54FF480643D
:1005880004F1320410F0004548BF40424FF000012A
:100598003EE700BF42004FEAE2014FEA31014FEA6D
:1005A80002701FBF12F07F4393F07F4F81F06051BC
:1005B800704792F0000F14BF93F07F4F704730B52B
:1005C8004FF4607401F0004521F0004120E700BFBE
:1005D80050EA010208BF704730B54FF000050AE045
:1005E80050EA010208BF704730B511F0004502D546
:1005F800404261EB41014FF4806404F132045FEA48
:10060800915C3FF4DCAE4FF003025FEADC0C18BFEC
:1006180003325FEADC0C18BF033202EBDC02C2F1E2
:10062800200300FA03FC20FA02F001FA03FE40EA74
:100638000E0021FA02F11444C1E600BF70B54FF074
:10064800FF0C4CF4E06C1CEA11541DBF1CEA135556
:1006580094EA0C0F95EA0C0F00F0DEF82C4481EABE
:10066800030621EA4C5123EA4C5350EA013518BFDE
:1006780052EA033541F4801143F4801338D0A0FBCB
:1006880002CE4FF00005E1FB02E506F00042E0FB78
:1006980003E54FF00006E1FB03569CF0000F18BF7E
:1006A8004EF0010EA4F1FF04B6F5007F64F5407426
:1006B80004D25FEA4E0E6D4146EB060642EAC621B9
:1006C80041EA55514FEAC52040EA5E504FEACE2E26
:1006D800B4F1FD0C88BFBCF5E06F1ED8BEF1004F29
:1006E80008BF5FEA500E50F1000041EB045170BDA5
:1006F80006F0004646EA010140EA020081EA0301E9
:10070800B4EB5C04C2BFD4EB0C0541EA045170BDE4
:1007180041F480114FF0000E013C00F3AB8014F15E
:10072800360FDEBF002001F0004170BDC4F10004A7
:10073800203C35DA0C341BDC04F11404C4F1200528
:1007480000FA05F320FA04F001FA05F240EA020083
:1007580001F0004221F0004110EBD37021FA04F6B9
:1007680042EB06015EEA430E08BF20EAD37070BD73
:10077800C4F10C04C4F1200500FA04F320FA05F0D2
:1007880001FA04F240EA020001F0004110EBD370D4
:1007980041F100015EEA430E08BF20EAD37070BD44
:1007A800C4F1200500FA05F24EEA020E20FA04F31D
:1007B80001FA05F243EA020321FA04F001F00041CC
:1007C80021FA04F220EA020000EBD3705EEA430E3D
:1007D80008BF20EAD37070BD94F0000F0FD101F06C
:1007E8000046400041EB010111F4801F08BF013CA5
:1007F800F7D041EA060195F0000F18BF704703F0E3
:100808000046520043EB030313F4801F08BF013D69
:10081800F7D043EA0603704794EA0C0F0CEA135525
:1008280018BF95EA0C0F0CD050EA410618BF52EADF
:100838004306D1D181EA030101F000414FF00000E5
:1008480070BD50EA410606BF1046194652EA4306F3
:1008580019D094EA0C0F02D150EA013613D195EA67
:100868000C0F05D152EA03361CBF104619460AD1AF
:1008780081EA030101F0004141F0FE4141F47001B9
:100888004FF0000070BD41F0FE4141F4780170BDA9
:1008980070B54FF0FF0C4CF4E06C1CEA11541DBF0E
:1008A8001CEA135594EA0C0F95EA0C0F00F0A7F810
:1008B800A4EB050481EA030E52EA03354FEA01313D
:1008C80000F088804FEA03334FF0805545EA131350
:1008D80043EA12634FEA022245EA111545EA106518
:1008E8004FEA00260EF000419D4208BF964244F1AF
:1008F800FD0404F5407402D25B084FEA3202B61ACE
:1009080065EB03055B084FEA32024FF480104FF4A1
:10091800002CB6EB020E75EB030E22BFB61A754615
:1009280040EA0C005B084FEA3202B6EB020E75EBA8
:10093800030E22BFB61A754640EA5C005B084FEA10
:100948003202B6EB020E75EB030E22BFB61A7546DD
:1009580040EA9C005B084FEA3202B6EB020E75EBE8
:10096800030E22BFB61A754640EADC0055EA060EA9
:1009780018D04FEA051545EA16754FEA06164FEAEC
:10098800C30343EA52734FEAC2025FEA1C1CC0D198
:1009980011F4801F0BD141EA00014FF000004FF025
:1009A800004CB6E711F4801F04BF01430020B4F1E6
:1009B800FD0C88BFBCF5E06F3FF6AFAEB5EB030C9E
:1009C80004BFB6EB020C5FEA500C50F1000041EB9B
:1009D800045170BD0EF0004E4EEA113114EB5C0468
:1009E800C2BFD4EB0C0541EA045170BD41F480113B
:1009F8004FF0000E013C90E645EA060E8DE60CEA43
:100A0800135594EA0C0F08BF95EA0C0F3FF43BAF5F
:100A180094EA0C0F0AD150EA01347FF434AF95EA16
:100A28000C0F7FF425AF104619462CE795EA0C0FFA
:100A380006D152EA03353FF4FDAE1046194622E7C7
:100A480050EA410618BF52EA43067FF4C5AE50EAA1
:100A580041047FF40DAF52EA43057FF4EBAE12E791
:100A68004FF0FF3C06E000BF4FF0010C02E000BF72
:100A78004FF0010C4DF804CD4FEA410C7FEA6C5C55
:100A88004FEA430C18BF7FEA6C5C1BD001B050EAF8
:100A9800410C0CBF52EA430C91EA030F02BF90EAE3
:100AA800020F0020704710F1000F91EA030F58BFA2
:100AB800994208BF90422CBFD8176FEAE37040F004
:100AC800010070474FEA410C7FEA6C5C02D150EAA2
:100AD800013C07D14FEA430C7FEA6C5CD6D152EA5D
:100AE800033CD3D05DF8040B704700BF8446104622
:100AF80062468C461946634600E000BF01B5FFF721
:100B0800B7FF002848BF10F1000F01BD4DF808EDF0
:100B1800FFF7F4FF0CBF012000205DF808FB00BFC1
:100B28004DF808EDFFF7EAFF34BF012000205DF81B
:100B380008FB00BF4DF808EDFFF7E0FF94BF012068
:100B480000205DF808FB00BF4DF808EDFFF7CEFF69
:100B580094BF012000205DF808FB00BF4DF808EDA8
:100B6800FFF7C4FF34BF012000205DF808FB00BF79
:100B78004FEA410212F5001215D211D56FF47873BD
:100B8800B3EB625212D94FEAC12343F0004343EA60
:100B9800505311F0004F23FA02F018BF404270473B
:100BA8004FF00000704750EA013005D111F00040C5
:100BB80008BF6FF0004070474FF00000704700BF5B
:100BC8004A0011D212F5001211D20DD56FF47873C4
:100BD800B3EB62520ED44FEAC12343F0004343EA19
:100BE800505323FA02F070474FF00000704750EA64
:100BF800013002D14FF0FF3070474FF000007047CE
:100C08004FEA4102B2F1E04324BFB3F5001CDCF126
:100C1800FE5C0DD901F0004C4FEAC0024CEA50705E
:100C2800B2F1004F40EB830008BF20F0010070478D
:100C380011F0804F21D113F13872BCBF01F0004090
:100C4800704741F480114FEA5252C2F11802C2F1C2
:100C5800200C10FA0CF320FA02F018BF40F0010043
:100C68004FEAC1234FEAD32303FA0CFC40EA0C00F5
:100C780023FA02F34FEA4303CCE77FEA625307D132
:100C880050EA01331EBF4FF0FE4040F44000704769
:100C980001F0004040F0FE4040F40000704700BF03
:100CA80080F0004002E000BF81F0004142001FBF19
:100CB8005FEA410392EA030F7FEA226C7FEA236C22
:100CC8006AD04FEA1262D2EB1363C1BFD218414017
:100CD80048404140B8BF5B42192B88BF704710F0AD
:100CE800004F40F4000020F07F4018BF404211F050
:100CF800004F41F4000121F07F4118BF494292EAB8
:100D0800030F3FD0A2F1010241FA03FC10EB0C00E3
:100D1800C3F1200301FA03F100F0004302D5494270
:100D280060EB4000B0F5000F13D3B0F1807F06D31D
:100D380040084FEA310102F10102FE2A51D2B1F115
:100D4800004F40EBC25008BF20F0010040EA03000A
:100D58007047490040EB000010F4000FA2F10102B7
:100D6800EDD1B0FA80FCACF1080CB2EB0C0200FA41
:100D78000CF0AABF00EBC25052421843BCBFD0408F
:100D88001843704792F0000F81F4000106BF80F409
:100D980000000132013BB5E74FEA41037FEA226CCC
:100DA80018BF7FEA236C21D092EA030F04D092F097
:100DB800000F08BF0846704790EA010F1CBF0020CB
:100DC800704712F07F4F04D1400028BF40F0004028
:100DD800704712F100723CBF00F50000704700F048
:100DE800004343F0FE4040F4000070477FEA22626F
:100DF80016BF08467FEA23630146420206BF5FEA40
:100E0800412390EA010F40F4800070474FF000033F
:100E180004E000BF10F0004348BF40425FEA000C06
:100E280008BF704743F0964301464FF000001CE0AE
:100E380050EA010208BF70474FF000030AE000BF04
:100E480050EA010208BF704711F0004302D5404242
:100E580061EB41015FEA010C02BF844601460020B4
:100E680043F0B64308BFA3F18053A3F50003BCFACF
:100E78008CF2083AA3EBC25310DB01FA02FC63447C
:100E880000FA02FCC2F12002BCF1004F20FA02F283
:100E980043EB020008BF20F00100704702F1200276
:100EA80001FA02FCC2F1200250EA4C0021FA02F2D7
:100EB80043EB020008BF20EADC7070474FF0FF0CDC
:100EC8001CEAD0521EBF1CEAD15392EA0C0F93EAD7
:100ED8000C0F6FD01A4480EA010C400218BF5FEA79
:100EE80041211ED04FF0006343EA501043EA5111EC
:100EF800A0FB01310CF00040B1F5000F3EBF4900E6
:100F080041EAD3715B0040EA010062F17F02FD2AE9
:100F18001DD8B3F1004F40EBC25008BF20F00100CC
:100F2800704790F0000F0CF0004C08BF49024CEAE3
:100F3800502040EA51207F3AC2BFD2F1FF0340EA75
:100F4800C250704740F400004FF00003013A5DDCE6
:100F580012F1190FDCBF00F000407047C2F1000227
:100F6800410021FA02F1C2F1200200FA02FC5FEA14
:100F7800310040F1000053EA4C0308BF20EADC705E
:100F8800704792F0000F00F0004C02BF400010F4D0
:100F9800000F013AF9D040EA0C0093F0000F01F07D
:100FA800004C02BF490011F4000F013BF9D041EA9F
:100FB8000C018FE70CEAD15392EA0C0F18BF93EAA1
:100FC8000C0F0AD030F0004C18BF31F0004CD8D1CB
:100FD80080EA010000F00040704790F0000F17BF52
:100FE80090F0004F084691F0000F91F0004F14D098
:100FF80092EA0C0F01D142020FD193EA0C0F03D1F0
:101008004B0218BF084608D180EA010000F00040F2
:1010180040F0FE4040F40000704740F0FE4040F4CD
:10102800400070474FF0FF0C1CEAD0521EBF1CEA6C
:10103800D15392EA0C0F93EA0C0F69D0A2EB03028A
:1010480080EA010C49024FEA402037D04FF0805324
:1010580043EA111143EA10130CF000408B4238BFE9
:101068005B0042F17D024FF4000C8B4224BF5B1AF7
:1010780040EA0C00B3EB510F24BFA3EB510340EA45
:101088005C00B3EB910F24BFA3EB910340EA9C00F3
:10109800B3EBD10F24BFA3EBD10340EADC001B0163
:1010A80018BF5FEA1C1CE0D1FD2A3FF650AF8B4207
:1010B80040EBC25008BF20F0010070470CF0004C14
:1010C8004CEA50207F32C2BFD2F1FF0340EAC2503F
:1010D800704740F400004FF00003013A37E792F000
:1010E800000F00F0004C02BF400010F4000F013A5E
:1010F800F9D040EA0C0093F0000F01F0004C02BF59
:10110800490011F4000F013BF9D041EA0C0195E7C1
:101118000CEAD15392EA0C0F08D142027FF47DAF5A
:1011280093EA0C0F7FF470AF084676E793EA0C0F4A
:1011380004D14B023FF44CAF08466EE730F0004C48
:1011480018BF31F0004CCAD130F000427FF45CAFD8
:1011580031F000437FF43CAF5FE700BF4FF0FF3C46
:1011680006E000BF4FF0010C02E000BF4FF0010C99
:101178004DF804CD4FEA40024FEA41037FEA226C62
:1011880018BF7FEA236C11D001B052EA530C18BF84
:1011980090EA010F58BFB2EB030088BFC81738BFE9
:1011A8006FEAE17018BF40F0010070477FEA226CD7
:1011B80002D15FEA402C05D17FEA236CE4D15FEAD3
:1011C800412CE1D05DF8040B704700BF8446084607
:1011D8006146FFE70FB5FFF7C9FF002848BF10F1C8
:1011E800000F0FBD4DF808EDFFF7F4FF0CBF01200D
:1011F80000205DF808FB00BF4DF808EDFFF7EAFF97
:1012080034BF012000205DF808FB00BF4DF808ED51
:10121800FFF7E0FF94BF012000205DF808FB00BF46
:101228004DF808EDFFF7D2FF94BF012000205DF8CC
:1012380008FB00BF4DF808EDFFF7C8FF34BF0120D9
:1012480000205DF808FB00BF7BB972B90029BEBF5A
:1012580000204FF0004106E008BF00281CBF6FF0D7
:1012680000414FF0FF3000F053B882B0EC462DE952
:10127800005000F01DF8DDF804E002B00CBC704727
:1012880053B94AB9002908BF00281CBF4FF0FF31E5
:101298004FF0FF3000F03CB882B0EC462DE900502A
:1012A80000F01EF8DDF804E002B00CBC704700BF87
:1012B8002DE9F041069C904606460F461D4600F073
:1012C80029F808FB01FCA8FB002300FB05C5B21A9E
:1012D8002B4467EB03038646C4E90023BDE8F0818D
:1012E8002DE9F843089E1746804689461D4600F0BA
:1012F80067F900FB05F3A0FB074507FB0137B8EBCF
:1013080004043D4469EB0505C6E90045BDE8F883DA
:10131800704700BF00292DE9F043C0F2A8800026DD
:10132800002BC0F29E8081468E4690469C4617460A
:1013380004460D46002B3DD18A4259D9B2FA82F3B0
:101348003BB1C3F120029D4020FA02F29F401543B1
:101358009C40390CB5FBF1F01FFA87FE01FB1055D4
:101368000EFB00F3220C42EA0545AB4209D9ED1900
:1013780000F1FF3280F00B81AB4240F20881023865
:101388003D44ED1AB5FBF1F301FB13550EFB03FECB
:10139800A4B244EA0545AE4508D9ED1903F1FF3278
:1013A80080F0F780AE4540F2F480023B43EA004308
:1013B800002203E08B420FD900221346341C18BFC9
:1013C800012460424FF0000565EB4501584051404B
:1013D80000196941BDE8F083B3FA83F2002A40F0AE
:1013E80089808B4202D3804500F2E2800123E5E741
:1013F80012B90123B3FBF2F7B7FA87F8B8F1000F77
:101408003BD1ED1B4FEA174C1FFA87FE0122B5FBB3
:10141800FCF00CFB10550EFB00F3210C41EA0545CE
:10142800AB4207D9ED1900F1FF3102D2AB4200F20D
:10143800C3800846ED1AB5FBFCF30CFB13550EFBF5
:1014480003FEA4B244EA0545AE4507D9ED1903F1F8
:10145800FF3102D2AE4500F2AD800B4643EA0043AD
:10146800ACE752426FEA060663EB43035BE7404290
:1014780061EB41014FF0FF3652E707FA08F7C8F170
:10148800200225FA02F34FEA174CB3FBFCF11FFACE
:1014980087FE0CFB113324FA02F205FA08F50EFB5D
:1014A80001F92A43100C40EA0343994504FA08F469
:1014B80007D9DB1901F1FF3078D2994576D902397D
:1014C8003B44C9EB0303B3FBFCF00CFB10330EFBEE
:1014D80000F592B242EA03439D4207D9DB1900F1B5
:1014E800FF325FD29D425DD902383B445D1B40EA22
:1014F80001428CE7C2F1200328FA03F10CFA02FC3E
:1015080041EA0C0C4FEA1C402EFA03F1B1FBF0F54E
:101518001FFA8CF700FB151129FA03F30EFA02FEE5
:1015280007FB05F943EA0E0E4FEA1E4343EA014161
:10153800894508FA02F808D911EB0C0105F1FF33C7
:1015480032D2894530D9023D6144C9EB0101B1FB72
:10155800F0F300FB131107FB03F71FFA8EFE4EEAA8
:10156800014E774508D91EEB0C0E03F1FF3117D257
:10157800774515D9023BE64443EA0543A3FB0889AE
:10158800C7EB0E0ECE4509D305D0002216E710464C
:10159800F7E613460AE794404445F6D2013BF4E7E0
:1015A8000B46E9E71046A1E71D46CEE7014688E766
:1015B800134603E7023B51E702383D443AE700BFD0
:1015C8002DE9F043002B44D18A42154604464FD9F1
:1015D800B2FA82F70E464FB1C7F12003B94020FA9C
:1015E80003F602FA07F50E4300FA07F42F0CB6FBD0
:1015F800F7F01FFA85FE07FB10620EFB00F1260CC0
:1016080046EA0243994209D95B1900F1FF3280F09A
:10161800EE80994240F2EB8002382B44591AB1FB14
:10162800F7F307FB13110EFB03FEA4B244EA0141D2
:101638008E4508D9491903F1FF3280F0DA808E45CA
:1016480040F2D780023B43EA004000263146BDE81D
:10165800F0838B4247D8B3FA83F6002E48D18B42E9
:1016680002D3824200F2CF8001203146BDE8F083E8
:1016780012B90125B5FBF2F5B5FA85FCBCF1000FEE
:1016880078D1491B2F0C1FFA85FE0126B1FBF7F014
:1016980007FB10110EFB00F2230C43EA01418A42BA
:1016A80007D9491900F1FF3302D28A4200F2BC80FF
:1016B8001846891AB1FBF7F307FB13110EFB03FE5B
:1016C800A4B244EA0142964508D9521903F1FF3100
:1016D80080F09180964540F28E80023B43EA0040BC
:1016E8003146BDE8F083002630463146BDE8F08338
:1016F800C6F1200422FA04F5B3402B4321FA04F77B
:101708004FEA1348B7FBF8FC1FFA83F908FB1C776C
:1017180020FA04FE01FA06F509FB0CF44EEA050569
:101728004FEA154E4EEA0747BC4202FA06F204D9C0
:10173800FF180CF1FF3168D38C463F1BB7FBF8F458
:1017480008FB147709FB04F9ADB245EA074189455E
:1017580004D9C91804F1FF355DD32C4644EA0C447A
:10176800A4FB0223C9EB0101994249D345D0204685
:1017780000266BE7CCF1200405FA0CF521FA04F3F6
:101788002A0CB3FBF2F61FFA85FE02FB163820FA84
:1017980004F701FA0CF10EFB06F90F433C0C44EA7E
:1017A8000843994500FA0CF407D95B1906F1FF3193
:1017B80038D2994536D9023E2B44C9EB0303B3FB13
:1017C800F2F002FB10330EFB00F1BFB247EA03430D
:1017D800994207D95B1900F1FF3721D299421FD9E5
:1017E80002382B441746591A40EA06464EE7104677
:1017F80014E7134627E70B4670E7B0409042B6D28D
:10180800601E002622E7304620E7BC4294D9ACF19E
:10181800020C1F4491E789459FD9023C19449DE772
:101828003846DFE70E46C8E70238294441E700BFDB
:1018380008B500F011F8012803D1054802F0D8FDD9
:1018480002E0044802F0D4FD02F0E6FC002008BDE6
:10185800040601081C06010808B500F0AFF80128C5
:1018680005D100F007F8012802D0002000E0002090
:1018780040B208BDF0B589B002F07EF8012804D066
:101888002B4802F0D7FD00244FE001F0F9FD044693
:10189800012804D0274802F0CDFD002445E0264861
:1018A800264901F0B9FE2648264901F0B5FE264B27
:1018B800264A1360264FBB61502307936D4607F1F4
:1018C8000C060FCE0FC596E8070085E8070097E8D5
:1018D8000E00002002F08CF9012825D11D4802F0E5
:1018E80087FD00201C4902F0F9F904201B4902F089
:1018F800F5F908201A4902F0F1F92020194902F0F7
:10190800EDF92420184902F0E9F93020174902F0CE
:10191800E5F93420164902F0E1F93820154902F0BA
:10192800DDF900F045FA00E0002460B209B0F0BD2E
:1019380034060108540601086C060108053A000837
:1019480074060108211B0008F9500008D00800207F
:10195800D4080020800601084D1A0008691A0008FA
:10196800851A0008A11A0008BD1A0008D91A00082B
:10197800F11A0008091B00080120704700B583B060
:101988000023ADF8023002A901F8040D184601221F
:101998000DF1020302F05AFA40B203B05DF804FBFD
:1019A80000B583B00146002002AB23F8020D0122E6
:1019B80002F018FA40B203B05DF804FB10B54FF01E
:1019C8000060002100F03CFE4FF4407000F0F6FD8E
:1019D800124B134A1A60134A9A60134A5A60134901
:1019E8004FF4E1320A608B60002002F0DDF9012833
:1019F8000FD10F480F4B03600F4B83600F4B4360B1
:101A080002F060FC0446012805D10D4802F0F0FC04
:101A180002E0002400E0002460B210BD1409002098
:101A28004D4D0008254E0008854E0008FC08002092
:101A38000809002081190008A9190008851900085B
:101A48009406010800B583B0042A02D101A8FEF764
:101A5800C7FB019800F074F903B05DF804FB00BF00
:101A680000B583B0042A02D101A8FEF7B9FB01989A
:101A780000F06EF903B05DF804FB00BF00B583B059
:101A8800042A02D101A8FEF7ABFB019800F068F91F
:101A980003B05DF804FB00BF00B583B0042A02D18F
:101AA80001A8FEF79DFB019800F062F903B05DF80C
:101AB80004FB00BF00B583B0042A02D101A8FEF7D9
:101AC8008FFB019800F064F903B05DF804FB00BFD8
:101AD800042A07D100B583B001A8FEF781FB03B043
:101AE8005DF804FB704700BF042A07D100B583B036
:101AF80001A8FEF775FB03B05DF804FB704700BF53
:101B0800042A07D100B583B001A8FEF769FB03B02A
:101B18005DF804FB704700BF2DE9F0479CB006460E
:101B280009A835494A22FEF75BFB00240194029478
:101B38000394049405940694079408942746A046B1
:101B480048E0304621B202F041FA054601A80021DA
:101B5800202205F0EFF801A8691C2A7805F028FB77
:101B68009CB901A82549012205F0D8FA20B92448D2
:101B780009A902F03DFC2BE001A82249012205F049
:101B8800CDFA00BB4FF0010A22E023B2012B07D1A6
:101B980001A800210A2206F05DFC5FFA80F817E030
:101BA80023B2022B08D101A81649012205F0B6FA82
:101BB80060B94FF001090BE001A800210A2206F0E4
:101BC80049FCC7B204E04FF0020A01E04FF00209F5
:101BD8000134A4B2304602F0EFF923B29842B0DCE7
:101BE80050464FFA88F14A467BB200F00FFB0120BD
:101BF8001CB0BDE8F08700BFB4060108AC060108B8
:101C0800B0180108B0060108074B5B79012B04D115
:101C1800054A1368013313607047022B03D1024A47
:101C28001368013B1360704720090020074B5B795C
:101C3800012B04D1054A1368013313607047022B46
:101C480003D1024A1368013B13607047280900203A
:101C5800034A002313605371024A1360537170479B
:101C68002809002020090020F0B58BB002E0C82028
:101C780002F00CFA204B1C6820460021FFF7B2FA4C
:101C88000028F4D11D4B1D6828460021FFF7AAFA49
:101C98000028ECD1089409950AAB13E9030000F079
:101CA800FBFA012803D0164802F0C4FB21E01548CE
:101CB80002F0EEFB02F01AFC05A800F0C5FB069F37
:101CC800079E0598FEF766FC04460D463846FEF763
:101CD80061FCCDE900013046FEF75CFCCDE902016C
:101CE800094822462B4602F00BFC642002F0CEF98C
:101CF800E2E70BB0F0BD00BF340900203009002036
:101D0800000701081C0701083807010830B585B02D
:101D1800084C2168084B1A68002020601860074D9D
:101D2800684600F0D9FA9DE8070085E8070005B085
:101D380030BD00BF280900202009002008670020C6
:101D480008B50146014802F0A3FB08BD5807010881
:101D580008B50146014802F09BFB08BD6807010869
:101D680008B50146014802F093FB08BD7807010851
:101D780010B50446FEF70EFC02460B46024802F078
:101D880087FB024B1C6010BD88070108340900203E
:101D980010B50446FEF7FEFB02460B46024802F069
:101DA80077FB024B1C6010BDA40701083009002016
:101DB80030B599B02E4B16932E4B15932E4B179387
:101DC80018AB13E9070000F09DF8012804D02B4850
:101DD80002F030FB002447E000F00EFA012804D09E
:101DE800274802F027FB00243EE0264B0F93264BA2
:101DF8001093264B119300220023CDE90A23244A8D
:101E08000023CDE90C23234B0E936C460CAD0FCD6C
:101E18000FC495E80F0084E80F000AAB0CCB002034
:101E280002F0A8FD012804D01B4802F003FB00249F
:101E38001AE0002002F0D6FD184802F029FB4FF402
:101E4800806300930DF1270015490022022302F058
:101E5800AFF90446012804D0124802F0EBFA002436
:101E680002E0114802F0C4FA60B219B030BD00BFF8
:101E7800351C0008111C0008591C0008FC07010843
:101E8800140801088D510008B1520008CD5200080D
:101E9800A0860100151D000828080108400801084F
:101EA800711C0008580801087408010808B513488F
:101EB80000238384012101F071F938B1104B9B682C
:101EC80003B198470D48192101F064F90B4808211E
:101ED80001F064F918B10A4B1B6803B19847074829
:101EE800102101F05BF918B1054B5B6803B1984705
:101EF8000248192101F04EF908BD00BF0008004052
:101F08003809002070B58CB001AB83E80700029B4C
:101F1800002B75D0002875D03C4B01AA07CA83E86E
:101F280007000420012100F04DFD0820012100F0E8
:101F38003BFD374E304600F0B1FE4FF44074ADF82B
:101F4800104048238DF8133003238DF81230314D9B
:101F5800284604A900F06AFC2846214600F0B4FC93
:101F68001E238DF8143000248DF815408DF8164086
:101F780001258DF8175005A800F02AFB42F21073CE
:101F8800ADF82830244B1B68244AA2FB03239B0985
:101F9800013BADF82430ADF82A40ADF82640304674
:101FA80009A900F07BFF0823ADF81830ADF81A40F6
:101FB800ADF81C50ADF81E40ADF82040304606A9DB
:101FC80001F0B6F80C23ADF81830ADF81A40ADF8AA
:101FD8001C50ADF81E40ADF82040304606A901F06F
:101FE800A7F83046192101F0D5F8304619212A46BC
:101FF80001F038F83046294601F014F8284602E086
:10200800002000E000200CB070BD00BF380900209F
:1020180000080040000C014000000020D34D621071
:102028002DE9F04182B00520012100F0BDFC4026D9
:10203800ADF8046018278DF8077003258DF8065051
:10204800244C204601A900F0F1FB2046314600F05F
:102058003DFC0520012100F0A7FC8026ADF80460B6
:102068004FF010088DF807808DF80650204601A91A
:1020780000F0DCFB2046314600F028FC0520012159
:1020880000F092FC4FF48076ADF804608DF807807C
:102098008DF80650204601A900F0C8FB20463146BD
:1020A80000F014FC0520012100F07EFC4FF40066CE
:1020B800ADF804608DF807708DF80650204601A928
:1020C80000F0B4FB2046314600F000FC02B0BDE849
:1020D800F08100BF0008014070B588B04FF400607F
:1020E800012100F061FC6323ADF818301B4B1B681D
:1020F8001B4AA2FB03239B0D013BADF814300025BE
:10210800ADF81A50ADF816508DF81C50154C2046F5
:1021180005A900F0C3FE6023ADF804300126ADF830
:102128000660ADF80850ADF80A50ADF80C502046DE
:1021380001A900F041FF2046082100F0B5FF204624
:10214800314600F09BFF2046314600F079FF2046DB
:10215800314600F067FF08B070BD00BF00000020E6
:102168006BCA5F6B002C014070B588B0022001215A
:1021780000F028FC1D4C204600F090FD6323ADF8CC
:1021880018301B4B1B681B4AA2FB03239B0D013B0A
:10219800ADF814300025ADF81A50ADF816502046A9
:1021A80005A900F07BFE6023ADF804300126ADF8E8
:1021B8000660ADF80850ADF80A50ADF80C5020464E
:1021C80001A900F0B5FE2046082100F065FF204671
:1021D800314600F053FF2046314600F031FF2046DB
:1021E800314600F01FFF08B070BD00BF000400407A
:1021F800000000206BCA5F6B08B5FFF711FFFFF7FF
:102208006BFFFFF7B1FF012008BD00BFF8B5174607
:102218001D4A928D92B21D4CA48DA6B202FB01F10B
:102228001B4C84FB01E5C917C1EB6515ADB206FB74
:1022380003F384FB0314DB17C3EB6414A4B2022872
:1022480006D1551BADB21348802100F03DFB03E0D9
:102258001048802100F03AFB022F07D1341BA4B2AA
:102268000C484FF4807100F02FFB04E009484FF44C
:10227800807100F02BFB0448294600F01FFF03483B
:10228800214600F01DFFF8BD00040040002C01406D
:102298001F85EB510008014000B583B002AB03E98C
:1022A800030001980021FEF79DFF60B9084B02AAC0
:1022B80012E9030083E80300064B00221A605A6003
:1022C8009A60012000E0002003B05DF804FB00BF25
:1022D80050090020440900202DE9F04F87B0054639
:1022E80090460846FEF792FD554C26683146FEF7A3
:1022F80099FE07464046FEF789FD3146FEF792FEF5
:10230800804638464146FEF7D1FC4FF07C51FEF737
:10231800D5FD064640463946FEF7C6FC6168FEF71D
:1023280081FE0390FEF736F982468B460CF0D0FF0B
:10233800804689463046FEF72DF906460F46404648
:10234800494632463B46FEF779F9FEF759FC804686
:10235800504659460DF004F8864601F100443046CF
:10236800394672462346FEF769F9FEF749FC82466C
:10237800344CA068FEF70EF90CF0AAFF06460F468B
:102388004046FEF707F980468946304639464246B8
:102398004B46FEF753F9CDE90401A068FEF7FAF8B9
:1023A8000CF0DEFFCDE900015046FEF7F3F80646D3
:1023B8000F46DDE9000132463B46FEF73FF902468B
:1023C8000B46DDE90401FDF785FFFEF719FC82469F
:1023D800A068FEF7DFF80CF0C3FF02460B46404644
:1023E8004946FEF72BF980468946A068FEF7D2F8E1
:1023F8000CF06EFF02460B4630463946FEF71EF9D2
:1024080002460B4640464946FDF766FFFEF7F8FBD5
:10241800064620685146FEF749FC20606068314650
:10242800FEF744FC6060A0680399FEF73FFCA060DB
:1024380094E8070085E80700284607B0BDE8F08F54
:1024480050090020440900200346034A07CA83E8CC
:1024580007001846704700BF44090020002103E028
:102468000A4B5B584350043109480A4B42189A42B8
:10247800F6D3094A02E0002342F8043B074B9A428C
:10248800F9D300F073F8FFF7D3F97047293F010833
:1024980000000020CC080020D00800205867002049
:1024A80082B00023019300932C4A136843F48033CD
:1024B80013602A4B1B6803F400330093019B01331C
:1024C8000193009B1BB9019BB3F5A06FF1D1234B7E
:1024D8001B6813F4003F02D00123009301E000239E
:1024E8000093009B012B36D11D4B1A6842F0100255
:1024F8001A601A6822F003021A601A6842F002028F
:102508001A60A3F580535A685A605A685A605A6824
:1025180042F480625A605A6822F47C125A605A68FF
:1025280042F4E8125A601A6842F080721A600B4B43
:102538001B6813F0007FFAD0084B5A6822F0030298
:102548005A605A6842F002025A60044B5B6803F012
:102558000C03082BF9D102B0704700BF00100240ED
:102568000020024008B5FFF79BFF08BD08B5104BD7
:102578001A6842F001021A6059680E4A0A405A6005
:102588001A6822F0847222F480321A601A6822F4DF
:1025980080221A605A6822F4FE025A604FF41F0221
:1025A8009A60FFF7DFFF4FF00062034B9A6008BDA7
:1025B800001002400000FFF800ED00E040F0BF60AE
:1025C80040F40030014BD860704700BF00ED00E0D8
:1025D800C3780BB310B4184BDA68D243C2F30222A3
:1025E800C2F104040F2323FA02F1437803FA04F238
:1025F80083780B4013431B010278DBB20F490A446E
:1026080082F800330378580903F01F03012202FA05
:1026180003F341F820300BE003785A0903F01F0355
:102628000121994002F12003044A42F8231070471F
:102638005DF8044B704700BF00ED00E000E100E0EA
:1026480021F0604121F07F010843014B98607047F9
:1026580000ED00E0036823F001031B041B0C03607A
:102668000023036043608360C360364B984205D102
:10267800354A536843F00F0353607047334B984211
:1026880005D1314A536843F0F00353607047304B2B
:10269800984205D12C4A536843F4706353607047DD
:1026A8002C4B984205D1284A536843F47043536031
:1026B8007047294B984205D1234A536843F4702345
:1026C80053607047254B984205D11F4A536843F41D
:1026D800700353607047224B984205D11A4A5368D9
:1026E80043F07063536070471E4B984205D11E4AF1
:1026F800536843F00F03536070471C4B984205D151
:10270800194A536843F0F00353607047184B9842D6
:1027180005D1154A536843F4706353607047154BED
:10272800984205D1104A536843F470435360704788
:10273800114B984204D10C4A536843F470235360F8
:10274800704700BF08000240000002401C00024021
:102758003000024044000240580002406C00024031
:102768008000024008040240000402401C040240A9
:1027780030040240440402405804024010B4036884
:1027880023F4FF4323F070038C680A6A14430A6930
:1027980014434A6914438A691443CA6914434A6A48
:1027A80014438A6A224313430360CB6843600B686F
:1027B80083604B68C3605DF8044B704721B10368C0
:1027C80043F0010303607047036823F001031B040F
:1027D8001B0C0360704700BF1AB1036819430160FE
:1027E8007047036823EA01010160704710F0805FB9
:1027F80002D0054B1B6801E0044B1B68034201D063
:102808000120704700207047000402400000024089
:1028180010F0805F02D0034B58607047024B58603D
:10282800704700BF0004024000000240F0B5CB78BA
:1028380003F00F02154613F0100F01D08D781543E1
:102848000B78E3B10668002216E0012393400C8858
:102858001C409C420FD197000F24BC4026EA040676
:1028680005FA07F42643CC78282C01D1436102E00D
:10287800482C00D103610132072AE6D906600B888B
:10288800FF2B20D9476800241AE004F1080201232D
:1028980093400A881A409A4211D14FEA840E0F22B7
:1028A80002FA0EF627EA060205FA0EF71743CA7867
:1028B800282A00D14361CA78482A00D1036101342B
:1028C800072CE2D94760F0BD01617047416170474C
:1028D80010B4294B5B6803F00C03042B05D0082BBC
:1028E80006D013BB254B036021E0244B03601EE098
:1028F800214A53685268C3F38343023312F4803F7A
:1029080004D11F4A02FB03F3036010E01A4A52681D
:1029180012F4003F04D01A4A02FB03F3036006E0F6
:10292800164A02FB03F3036001E0144B0360124AEA
:102938005368C3F30313134CE15CC9B20368CB407B
:1029480043605168C1F30221615CC9B223FA01F105
:1029580081605168C1F3C221615CC9B2CB40C360D8
:102968005268C2F3813208498A5CD2B2B3FBF2F3EF
:1029780003615DF8044B70470010024000127A00B2
:1029880000093D00080000200400002021B1054B8B
:102998005A69104358617047024A536923EA000094
:1029A800506170470010024021B1054B9A691043ED
:1029B80098617047024A936923EA00009061704762
:1029C8000010024021B1054BDA691043D861704705
:1029D800024AD36923EA0000D06170470010024020
:1029E80021B1054BDA681043D8607047024AD368B2
:1029F80023EA0000D06070470010024021B1054B67
:102A08001A69104318617047024A136923EA0000E3
:102A180010617047001002402DE9F041038803F46B
:102A280041570D884E888C88B1F806800A89B1F81C
:102A38000AC08B89B1F80EE03543254348EA0504FE
:102A480014434CEA04021A434EEA02033B43038050
:102A5800838B23F400631B041B0C83830B8A038280
:102A6800BDE8F08129B103889BB243F0400303809D
:102A78007047038823F040031B041B0C0380704736
:102A880022B183889BB21943818070478388C943E8
:102A980089B219408180704729B103889BB243F4F9
:102AA800005303807047038823F400531B041B0C56
:102AB8000380704730B4048C24F001042404240CEF
:102AC8000484048B058CADB224F0F3042404240C94
:102AD8001B019BB21A431443124B984212D003F5C0
:102AE800006398420ED0B0F1804F0BD0A3F5983315
:102AF800984207D003F58063984203D003F58063BA
:102B0800984205D125F00205294341F0010104E06E
:102B180025F00A03194341F001010483018430BC04
:102B2800704700BF002C014070B4048C24F01004DE
:102B38002404240C0484048B058CADB20E01B6B2B7
:102B480024F440742405240D1B039BB21C43120279
:102B580092B21443124B984212D003F50063984284
:102B68000ED0B0F1804F0BD0A3F59833984207D020
:102B780003F58063984203D003F58063984205D13A
:102B880025F02001314341F0100104E025F0A005B3
:102B9800294341F010010483018470BC704700BFD1
:102BA800002C014070B4048C24F480742404240C98
:102BB8000484848B058CAEB20D02ADB224F0F3040C
:102BC8002404240C1B019BB21A431443124B984251
:102BD80012D003F5006398420ED0B0F1804F0BD0AD
:102BE800A3F59833984207D003F58063984203D041
:102BF80003F58063984205D126F40071294341F416
:102C0800807104E026F42063194341F480718483C1
:102C1800018470BC704700BF002C014070B4058C63
:102C280025F480552D042D0C0584858B048CA4B2C5
:102C38000E03B6B225F440752D052D0D120292B281
:102C480015431B039BB21D43134B984212D003F547
:102C5800006398420ED0B0F1804F0BD0A3F59833A3
:102C6800984207D003F58063984203D003F5806348
:102C7800984205D124F40054344344F4805406E0C7
:102C880024F400746404640C0C4344F48054858375
:102C9800048470BC704700BF002C014008B56F4B1E
:102CA80098420AD14FF400600121FFF799FE4FF4D2
:102CB80000600021FFF794FE08BDB0F1804F08D1F5
:102CC80001200146FFF79AFE01200021FFF796FE3A
:102CD80008BD634B984208D102200121FFF78EFE00
:102CE80002200021FFF78AFE08BD5E4B984208D1FA
:102CF80004200121FFF782FE04200021FFF77EFE59
:102D080008BD594B984208D108200121FFF776FEEB
:102D180008200021FFF772FE08BD544B984208D1E5
:102D280010200121FFF76AFE10200021FFF766FE40
:102D380008BD4F4B984208D120200121FFF75EFEC5
:102D480020200021FFF75AFE08BD4A4B98420AD1BD
:102D58004FF400500121FFF743FE4FF400500021CB
:102D6800FFF73EFE08BD444B98420AD14FF40020BD
:102D78000121FFF735FE4FF400200021FFF730FE58
:102D880008BD3E4B98420AD14FF480100121FFF74D
:102D980027FE4FF480100021FFF722FE08BD384BB4
:102DA80098420AD14FF400100121FFF719FE4FF4A1
:102DB80000100021FFF714FE08BD324B984208D1DD
:102DC80040200121FFF71AFE40200021FFF716FEE0
:102DD80008BD2D4B984208D180200121FFF70EFE37
:102DE80080200021FFF70AFE08BD284B98420AD12F
:102DF8004FF480700121FFF701FE4FF4807000212D
:102E0800FFF7FCFD08BD224B98420AD14FF48030F1
:102E18000121FFF7E5FD4FF480300021FFF7E0FDC9
:102E280008BD1C4B98420AD14FF400300121FFF72E
:102E3800D7FD4FF400300021FFF7D2FD08BD164B37
:102E4800984209D14FF480200121FFF7C9FD4FF4C2
:102E580080200021FFF7C4FD08BD00BF002C014001
:102E68000004004000080040000C00400010004032
:102E78000014004000340140004C01400050014063
:102E88000054014000180040001C00400020004091
:102E980000400140004401400048014003889BB2C3
:102EA800214A904212D002F5006290420ED0B0F151
:102EB800804F0BD0A2F59832904207D002F580627D
:102EC800904203D002F58062904203D123F0700350
:102ED8004A881343154A904208D002F5806290420E
:102EE80004D023F440739BB2CA88134303808B88B1
:102EF80083850B8803850C4B98420FD003F500633C
:102F080098420BD003F54063984207D003F58063DD
:102F1800984203D003F58063984201D10B7A038667
:102F280001238382704700BF002C0140001000403D
:102F380030B4038C23F001031B041B0C0384038CA3
:102F48008488A4B2028B22F073021204120C0D883A
:102F58002A4323F002031B041B0C0D892B434D88C5
:102F68002B43144DA8420FD005F50065A8420BD09D
:102F780005F54065A84207D005F58065A84203D04D
:102F880005F58065A8420DD123F008034D892B4330
:102F980023F004038D882B4324F440748D892C433B
:102FA800CD892C4384800283CA888286038430BCFE
:102FB800704700BF002C014030B4038C23F48053C9
:102FC8001B041B0C0384038C8588ADB2828B22F40E
:102FD800E6421204120C0C882402A4B2224323F401
:102FE80000531B041B0C0C892403A4B223434C88F4
:102FF8002403A4B223430A4CA04203D004F500647E
:10300800A04205D125F480458C89A401A4B22543AA
:1030180085808283CA88A0F84020038430BC70472A
:10302800002C014029B103889BB243F001030380BF
:103038007047038823F001031B041B0C03807047AF
:1030480049B1B0F844306FEA43436FEA53439BB247
:10305800A0F844307047B0F84430C3F30E03A0F82A
:103068004430704722B183899BB2194381817047EC
:103078008389C94389B219408181704729B103887E
:103088009BB243F0800303807047038823F08003DA
:103098001B041B0C03807047038B23F008031B04DD
:1030A8001B0C194301837047838B23F400631B04B3
:1030B8001B0C090289B20B438383704781867047D2
:1030C800A0F84010704700BF038B23F00C031B04CB
:1030D8001B0C0383038B9BB219430183704700BF0A
:1030E800038B23F440631B041B0C0383038B9BB2E9
:1030F800090289B219430183704700BF838B23F00B
:103108000C031B041B0C8383838B9BB219438183A1
:10311800704700BF838B23F440631B041B0C83831D
:10312800838B9BB2090289B219438183704700BF20
:1031380038B505460C460B884BB94988A2882389BF
:10314800FFF7B8FC2846E188FFF7BEFF38BD042B1F
:1031580009D14988A2882389FFF7E6FC2846E18837
:10316800FFF7BEFF38BD082B09D14988A2882389FB
:10317800FFF718FD2846E188FFF7C0FF38BD4988EA
:10318800A2882389FFF74AFD2846E188FFF7C2FF96
:1031980038BD00BFC94389B201827047028A83895A
:1031A8000B40114202D01BB9002070470020704725
:1031B80001207047C94389B20182704730B587B092
:1031C80004460D46038A23F440531B041B0CCA888B
:1031D8001343038283899BB223F4B05323F00C0179
:1031E800A8882A896B89024313430B43A381A38AC6
:1031F80023F440731B041B0CAA891343A38201A860
:10320800FFF766FB1E4B9C4201D1049B00E0039B29
:10321800A28912B2002A08DA03EB830303EB8303C3
:1032280029684900B3FBF1F107E003EB830303EBE3
:10323800830329688900B3FBF1F1124BA3FB012337
:1032480058090501642300FB1313A28912B2002A4E
:1032580009DAD90032310B4AA2FB0131C1F342121B
:1032680042EA050307E01B013233064AA2FB0323A7
:10327800C3F343132B439BB2238107B030BD00BF78
:10328800003801401F85EB5129B183899BB243F473
:10329800005383817047838923F400531B041B0C5C
:1032A8008381704710B4C1F3421401F01F01012358
:1032B8008B40012C01D10C3004E0022C01D11030DC
:1032C80000E014301AB102681343036003E0026897
:1032D80022EA030303605DF8044B7047C1F3080159
:1032E800818070478088C0F30800704703881942BE
:1032F80001D0012070470020704700BFC94389B240
:103308000180704710B4C1F3421201F01F04012379
:10331800A340012A03D1828992B2134008E0022A0D
:1033280003D1028A92B2134002E0828A92B2134019
:10333800090A01228A40018889B20A4013B11AB9E0
:10334800002002E0002000E001205DF8044B7047F7
:1033580010B500F0EDFF1B281FD00D2803D1012266
:10336800344B1A7019E0082809D1334B1B68A3B1F4
:10337800013B0021314AD1542F4A13600DE0A0F1DE
:103388002003DBB25E2B53D82B4B1B68FF2B04D8D2
:103398002A4AD0540133284A1360264B1B78002B45
:1033A80033D0274803F018FD264B1B68986803F0B4
:1033B80053F8214B1B6873B1234C20482146002247
:1033C80000F00EFA2148214603F006FD1D4B1B684C
:1033D800986803F041F8194800214FF4807203F00F
:1033E800A9FC0024144B1C6019481A4903F0F4FC8A
:1033F800144B1B68986803F02FF801F023FB164B59
:1034080018600C4B1C70012010BD134B186801F09C
:103418003BFB01F051FB01F05DFB0D48074903F050
:10342800DBFC084B1B68986803F016F8012010BDF8
:10343800002010BD180000205C0C00205C0B002050
:1034480068200108500400205C0900209008010849
:10345800B0180108980801085809002008B5642028
:1034680000F014FE01F09CF808BD00BF08B5FFF796
:10347800F5FFFFF76DFF642000F008FEF9E700BFD5
:1034880010B584B04FF4806300930DF10F00094923
:103498000022022300F08CFE0446012804D00648CE
:1034A80000F0C8FF002402E0044800F0A1FF60B269
:1034B80004B010BD75340008A8080108C808010840
:1034C80070B5C0B004460E46684600214FF48072BD
:1034D80003F030FC204603F0F3FDB0F5807F04DDF7
:1034E800134800F0A7FF00201FE0204603F0E8FD86
:1034F80002466846214603F05BFE68460D4904F023
:1035080047FE054648B9204603F0DAFD0246304634
:10351800214603F04DFE012007E003F0D1FD0246ED
:103528003046294603F044FE012040B070BD00BF7C
:10353800E80801080409010870B5C0B004460E4641
:10354800684600214FF4807203F0F4FB204603F034
:10355800B7FDB0F5807F04DD2A4800F06BFF00203E
:103568004DE0204603F0ACFD02466846214603F0D4
:103578001FFE002333606846292103F0DDFC044662
:1035880008B1002303706846282103F0D5FCA8B3CE
:1035980024B91D4800F04EFF002030E001301B49DF
:1035A80004F0F6FD044600F0DBFC306022E0212048
:1035B80000F02EFD054620B9154800F03BFF00201D
:1035C8001DE0204603F07CFDC2B22A70202A04D9EF
:1035D800104800F02FFF002011E0681C214603F07E
:1035E800E7FD3068294600F0D1FC0020074904F0C7
:1035F800CFFD0446002CDAD1012000E0012040B0C4
:1036080070BD00BFE8080108080901084009010861
:10361800440901085C0901082DE9F04129B9174856
:1036280000F008FF0020BDE8F08180460E46144BEC
:1036380018881F2805D9134800F0FCFE0020BDE8B3
:10364800F081114D00EB4000C00028440130414694
:1036580003F0D8FC0A4F3C88404603F031FD04EBE8
:103668004403DB00E8543B8803EB4302D2001544D3
:103678006E6101333B800120BDE8F08180090108BB
:1036880068110020A0090108680E0020F0B587B075
:1036980000230293039304930593019321B92E48C1
:1036A80000F0C8FE002454E005460E4602A9FFF7C4
:1036B80007FF044618B9294800F0BCFE49E028462F
:1036C80001A9FFF739FF0446E0B9254800F0B2FE2A
:1036D8003FE0244A6B002B44DB00D018013002A9DC
:1036E800D25C03F01BFD50B905EB4502D2001E4B1E
:1036F80013445B68019831469847074609E001344E
:10370800A4B200E0002425B2184B1B889D42E0DBE0
:103718000127164B1B889D4207D1154800F08AFEE9
:103728003046144903F0E8FB0027019C08E02046D6
:1037380000F058FC00F070FC204600F059FC0446EC
:10374800204600F05BFC0028F1D0019800F010FC46
:103758003C4660B207B0F0BDC8090108EC09010891
:10376800000A0108680E0020780E00206811002069
:10377800180A01082C0A010870B584B0154B18689E
:10378800002100F06BFC144B186800F0AFFB012817
:10379800F4D0114B186800F0C9FB044618B90F485B
:1037A80000F048FEEAE70068A16AFFF76FFF84F8B7
:1037B8002C00684601F0D2F804F118069DE80F00C5
:1037C80086E80F00012384F82D30606800F03EFC85
:1037D800D4E700BF640E0020600E0020400A0108F4
:1037E8002DE9F04F99B00D9121B9594800F022FE0A
:1037F8000020AAE007461646302000F009FC0446DF
:1038080020B9544800F016FE00209EE0524B18687C
:1038180000F060FB012804D1504800F00BFE0020A6
:1038280093E04F4D284600214FF4007203F082FACE
:103838002760A56210AF384601F090F804F108053A
:1038480097E80F0085E80F00201D00F0E9FB002332
:1038580084F82D30404B1868214600F051FB414B4D
:10386800186800F0F3FB032208E06068314600F0B6
:10387800F5FB94F82D30EAB2012B05D0531EDDB2CA
:10388800002AF2D1012500E00025002314931593A6
:103898001693179394F92C30012B04D114A83249AC
:1038A80003F02AFB03E014A8304903F025FBD4E910
:1038B8000623D4E90289CDE90E23B2EB080863EBAD
:1038C80009094FEA89034FEA880643EA98777B019A
:1038D80043EAD6637201901B63EB070110EB080201
:1038E80041EB0903DB0043EA5273D2000A920B93BF
:1038F800D4E90889D4E904ABB8EB0A0669EB0B07ED
:10390800A26AD4E90201CDE90001CDE902ABDDE903
:103918000E01CDE90401CDE90689DDE90A01801926
:103928007941CDE908010D98114914AB03F07AFAF1
:10393800606800F0A7FB204600F06EFB25B10D483B
:1039480000F078FD002000E0012019B0BDE8F08FFC
:10395800600A0108840A0108600E0020AC0A010808
:10396800600C0020640E0020C40A0108CC0A01087B
:10397800D40A0108F80A010810B584B017480021D4
:103988004FF4407203F0D6F90022154B1A8010202C
:1039980000F086FA134B186020B9134800F04AFD6E
:1039A800002417E0114800F03BFB4FF480630093BC
:1039B8000DF10F000E490022022300F0F9FB044626
:1039C800012804D00B4800F035FD002402E00A4825
:1039D80000F00EFD60B204B010BD00BF680E0020FC
:1039E80068110020600E0020140B0108640E0020EE
:1039F80081370008300B0108540B010830B587B037
:103A08006C46094D0FCD0FC495E8030044F8040B2C
:103A180024F8021B090C21700448694600F0E8FCF0
:103A2800012007B030BD00BF7C0B0108B0180108A9
:103A3800704700BF08B5024B186800F007FB08BDC7
:103A4800F812002008B5044B1B68034408461946C1
:103A5800FCF7C6FB08BD00BF6C11002000B589B09B
:103A6800002106E02F4B1B685B5CA52B03D00131BE
:103A780089B21F29F6D92B4B1B6805A819440922BE
:103A8800FCF7AEFBB5238DF80430BDF81530ADF862
:103A9800053000238DF8073001228DF808208DF8B5
:103AA80009308DF80A308DF80B308DF80C308DF810
:103AB8000D308DF80E309DF81830934205D1002353
:103AC8008DF80F308DF8103003E0BDF81B30ADF8DD
:103AD8000F30154B186801A90D22FCF781FB9DF8E2
:103AE80018306BB9104B1968BDF819000D31BDF8C5
:103AF8001B20FFF7A7FFBDF81B000D3080B200E0C8
:103B08000D200022134605E007490968C95C4A40B0
:103B180001339BB28342F7D3034B1B681A5409B095
:103B28005DF804FBF0120020F412002008B5034BE6
:103B38001B681844FCF754FB08BD00BF6C1100203B
:103B4800F0B585B0002406E0214B1B681B5DA52B52
:103B580003D00134A4B21F2CF6D91E2C35D81C4B27
:103B6800196801A821440922FCF73AFB9DF808309E
:103B78005BB3BDF80960BDF80B70154B1B680934C1
:103B88001C44304621463A46FFF7D0FF002519E08D
:103B98002AB202EB42039B000E49CB5AB3420FD123
:103BA80002EB42039B000B441B7A012B08D102EB6A
:103BB800420292000A445368304621463AB2984776
:103BC8000135ADB22BB21F2BE2DD05B0F0BD00BF51
:103BD800F01200207011002008B5044B186800216D
:103BE80000F03CFAFFF7ACFFF7E700BFF81200203F
:103BF80084B030B585B0044609A880E80E00BDF948
:103C08004C0000F005FA2B4B1860002844D09DF8B2
:103C1800283073B9202000F0FBF9274D28602020B8
:103C280000F0F6F9254B18602B68002B36D00028D9
:103C380036D0224B1B680D931F4B1B680B93202318
:103C4800ADF83830ADF8303001238DF828301C4BF2
:103C580010931C4B11931C4B1293204609A900F09A
:103C68007DF801281ED1194800F0DAF94FF4806375
:103C780000930DF10F0016490022032300F098FA73
:103C88000446012804D0134800F0D4FB00240AE0BD
:103C9800114800F0ADFB06E0002404E0002402E037
:103CA800002400E0002460B205B0BDE8304004B054
:103CB800704700BF6C110020F4120020F0120020A1
:103CC800393A0008653A00083D3A0008F812002021
:103CD800E13B0008DC1C0108FC1C010870B400234F
:103CE80017E01CB204EB440292001B4DAA5A824210
:103CF8000DD104EB440292002A44127A012A06D11B
:103D080004EB4404A4002C446160012022E0013348
:103D18009BB21AB21F2AE4DD002213E014B204EBAE
:103D280044039B000C4D2B441B7A4BB92A46650073
:103D38002B199B00D618D05271600123337205E00D
:103D4800013292B213B21F2BE8DD00230BB9002019
:103D580000E0012070BC70477011002070B584B07D
:103D68000546C3B2012B15D80C46A9B18E6901AB23
:103D780001F11C0207CA83E8070063690093231D49
:103D88000FCBB047012809D1064B43F82540012342
:103D9800237004E0002002E0002000E0002040B290
:103DA80004B070BDFC12002038B50546C3B2012B23
:103DB8000ED80C4671B18B6873B11B6808689847B8
:103DC800034650B1064B43F825400123237104E014
:103DD800002302E0002300E0002358B238BD00BFF2
:103DE80004130020F8B51C46C3B2012B1CD80D469D
:103DF8001646D9B1E4B1144B53F82030D3B11A792F
:103E0800D2B19F680AE0BB6800B228449847A8B1BD
:103E1800B0F1FF3F14D0238801332380208803B2F8
:103E2800B342F0D101200CE000200AE0002008E0B5
:103E3800002006E0002004E0002002E0002000E06E
:103E4800FF2040B2F8BD00BF04130020F8B51C469F
:103E5800C3B2012B18D80D461646B9B1C4B10F4BE1
:103E680053F82030B3B11A79B2B19F6806E07A6886
:103E78001BB2E85C904723880133238023881AB259
:103E8800B242F4D10120F8BD0020F8BD0020F8BDF1
:103E98000020F8BD0020F8BD0020F8BD0413002064
:103EA80038B505460C2000F0B3F888B10446A800E0
:103EB80000F0AEF8206020B9204600F0ADF80020F0
:103EC80038BD65810023A380E3802381204638BD67
:103ED800002038BD28B1428903899A4203D10120C4
:103EE8007047012070470020704700BF18B1038950
:103EF8001BB100207047002070470120704700BFA9
:103F0800034688B181B10268C08842F82010DA8877
:103F1800501C5989884202D10022DA8001E001321E
:103F2800DA801A8901321A81704700BF90B110B443
:103F380003460168828851F82200541C59898C4232
:103F480002D100229A8001E001329A801A89013A4E
:103F58001A8101E0002070475DF8044B704700BFEC
:103F680008B5082000F054F800220260426008BD3D
:103F7800034630B970475C68184600F04DF8234690
:103F880000E010B5002BF6D110BD00BF90B138B5D8
:103F98000D46044669B1082000F03AF8024640B1DF
:103FA80005600023436000E01C466368002BFBD1DA
:103FB800626038BD704700BF4368002002E00130EE
:103FC80080B25B68002BFAD100B2704742680023C8
:103FD80004E08B4204D001339BB25268002AF8D126
:103FE8001068704708B1006870470020704700BF2C
:103FF80008B1406870470020704700BF18B1436897
:104008001BB901207047012070470020704700BF8E
:1040180008B502F08FF808BD08B502F0E9F808BD48
:1040280010B5044601200021032201F073FE206030
:1040380020B100210A460B4601F09CFE20680021B1
:1040480001220B4601F01CFF10BD00BF08B500217E
:104058000A460B4601F08EFE08BD00BF10B50446A7
:1040680049B9204600214FF0FF320B4601F008FF06
:104078000128F6D110BD0A4600210B4601F000FFC9
:1040880010BD00BF08B501F08DFF08BD38B5054665
:10409800002403E0012001F09DFB0134AC42F9D378
:1040A80038BD00BF00220AE053B2C3EBC3039B0034
:1040B8000649CB5C0BB9D0B205E00132D2B253B29B
:1040C8000F2BF1DDFF2040B2704700BF1013002016
:1040D8002DE9F04184B0304B1868FFF7B7FF2F483F
:1040E80000F0D6F9022704262B4B18680021FFF7A9
:1040F800B5FF00244CE065B2C5EBC5039B00284A18
:10410800D35C012B42D1C5EBC5039B0013441B7A3A
:10411800013B032B03D8DFE803F014050B114FF024
:10412800020810E0022F01DC0137FFB2B8460AE0AE
:10413800052E01D80136F6B2B04604E04FF0070864
:1041480001E04FF00108EB005B1B9B00144A13448D
:104158001869191D9A895B69CDF8008001910021C1
:10416800029103910F4901F059F9012804D00E4832
:10417800414600F05FF9B7E7C5EBC505AD0002227F
:10418800074B5A550948414600F082F90134E4B218
:1041980063B20F2BAFDDA7E70C1300201C1D01082D
:1041A80010130020F40A0108381D0108601D0108D9
:1041B800F8B520B10C4617461E46054621B91248E7
:1041C80000F038F90020F8BDFFF76CFFB0F1FF3FB1
:1041D80004D10E4800F02EF90020F8BD0C49C200A9
:1041E800131A9B000B441C615F611E72069CDC6005
:1041F8002870131A9B000124CC54064895F9001026
:1042080000F046F92046F8BD901D0108BC1D0108C4
:1042180010130020E01D010800B587B00F48FFF714
:10422800FFFE0123009305AB019300230293039340
:104238000B480C494FF4807201F0F0F8012804D0C3
:10424800094800F0F7F8002005E0084800F020F9D8
:1042580001F08CF9012007B05DF804FB0C13002075
:10426800D94000081C1E0108241E0108401E010830
:104278000346094A126812B90849074A1160064AF2
:10428800106803446A46934202D8034A1360704791
:104298004FF0FF30704700BFDC1400205867002043
:1042A8004FF400534B600020704700BF022801D82C
:1042B8000120704700207047002070474FF0FF3002
:1042C800704700BF08B530B1054B186003689847C0
:1042D800034610B902E0002300E0012358B208BDEC
:1042E800D014002010B50446034B1B685B6803B16B
:1042F8009847204610BD00BFD014002008B5C0B2B2
:10430800FFF7F0FF08BD00BF012807D00DE04D1CE6
:104318000878FFF7F3FF0134294602E070B5164626
:104328000024B442F3DB304670BD4FF0FF307047D5
:1043380000B583B0074B1B689B6823B10DF10700DC
:104348009847012802D19DF8070000E0002003B03B
:104358005DF804FBD014002008B5FFF7E9FF08BD9D
:1043680040B10FE0FFF7F8FF10B1307001340136AB
:10437800013503E070B50E4600242546002DF1DD19
:10438800204670BD4FF0FF30704700BF0FB470B5C6
:10439800A2B001A80021802202F0CCFC00252E4604
:1043A80014E0013C02D106E04CF25034FFF7C0FFA4
:1043B80003460028F5D00CB956B911E02AB222A953
:1043C8000A4402F8843C0135ADB201367F2EEBDD9C
:1043D80027AA219201A8269907F06AFC012000E08B
:1043E800FF2040B222B0BDE8704004B0704700BF63
:1043F8000FB430B5C3B046AC54F8045B01A8002133
:104408004FF4807202F096FC419401A82946224696
:1044180007F01CFC002805DB01A802F0DDFC0448BD
:1044280002F0DAFC43B0BDE8304004B0704700BF8A
:10443800682001080FB430B5C3B046AC54F8045B2B
:1044480001A800214FF4807202F074FC419401A885
:104458002946224607F0FAFB00280DDB09482521EA
:10446800292200F045FB084802F0B6FC01A802F03A
:10447800B3FC064802F0B0FC43B0BDE8304004B0DD
:10448800704700BF5C1E0108641E0108681E010811
:104498000FB430B5C3B046AC54F8045B01A8002192
:1044A8004FF4807202F046FC419401A82946224646
:1044B80007F0CCFB00280DDB09482821212200F059
:1044C80017FB084802F088FC01A802F085FC0648A2
:1044D80002F082FC43B0BDE8304004B0704700BF32
:1044E8006C1E0108641E0108681E010808B500F06A
:1044F800D5FA00F0A7FA014B186008BDD4140020C3
:104508000FB430B5C3B046AC54F8045B01A8002121
:104518004FF4807202F00EFC419401A8294622460D
:1045280007F094FB0446184A136801331360012B03
:1045380004D101A8154902F0DFFC16E0022B04D1D2
:1045480001A8134902F0D8FC0FE0032B04D101A8FD
:10455800104902F0D1FC08E0042B06D101A80E494D
:1045680002F0CAFC0022084B1A60002C06DB0B4B39
:10457800186800F089FA01A802F02EFC43B0BDE8E3
:10458800304004B0704700BFD8140020BC1E01089A
:10459800C41E0108CC1E0108D41E0108D414002032
:1045A800F0B5C1B0684600214FF4807202F0C2FB3A
:1045B800CF4802F011FCCF4802F082FD083087B2E4
:1045C800002405E06846CC4902F096FC0134E4B2C8
:1045D8007D080135AC42F5DBC848694602F0FCFBB2
:1045E800684600214FF4807202F0A4FB6846C44973
:1045F80002F082FC684602F063FDC6B205E0684638
:10460800C04902F079FC0136F6B27C1EA642F6DB00
:10461800BB4E6846314602F06FFCB848694602F066
:10462800DBFB684600214FF4807202F083FB68468A
:10463800314602F061FCB34E6846314602F05CFC3C
:104648006846314602F058FC6846314602F054FC90
:104658006846314602F050FC6846AB4902F04CFC13
:104668006846AA4902F048FC684602F029FDC6B22D
:1046780005E06846A34902F03FFC0136F6B2B442B1
:10468800F7DC9F4E6846314602F036FC9B48694687
:1046980002F0A2FB684600214FF4807202F04AFB48
:1046A8006846314602F028FC684602F009FDC6B2A9
:1046B80005E06846934902F01FFC0136F6B2B442A1
:1046C800F7DC8F4E6846314602F016FC8B48694687
:1046D80002F082FB684600214FF4807202F02AFB48
:1046E8006846314602F008FC864E6846314602F0BC
:1046F80003FC6846314602F0FFFB6846314602F08B
:10470800FBFB6846314602F0F7FB6846804902F039
:10471800F3FB68467F4902F0EFFB684602F0D0FCE5
:10472800C6B205E06846774902F0E6FB0136F6B204
:10473800B442F7DC724E6846314602F0DDFB6F4842
:10474800694602F049FB684600214FF4807202F086
:10475800F1FA6846314602F0CFFB684602F0B0FC39
:10476800C6B205E06846674902F0C6FB0136F6B2F4
:10477800B442F7DC624E6846314602F0BDFB5F4842
:10478800694602F029FB684600214FF4807202F066
:10479800D1FA6846314602F0AFFB5A4E68463146B8
:1047A80002F0AAFB6846314602F0A6FB684631468D
:1047B80002F0A2FB6846314602F09EFB6846564965
:1047C80002F09AFB6846554902F096FB684602F0EB
:1047D80077FCC6B205E068464A4902F08DFB01360F
:1047E800F6B2B442F7DC464E6846314602F084FB26
:1047F8004248694602F0F0FA684600214FF4807298
:1048080002F098FA6846314602F076FB684602F0F4
:1048180057FCC6B205E068463A4902F06DFB01361E
:10482800F6B2B442F7DC364E6846314602F064FB15
:104838003248694602F0D0FA684600214FF4807287
:1048480002F078FA6846314602F056FB2D4E68466B
:10485800314602F051FB6846314602F04DFB68468E
:10486800314602F049FB6846314602F045FB68468E
:10487800204902F041FB684602F022FCC6B205E07E
:104888006846204902F038FB0136F6B2B442F7DC3C
:104898001B4E6846314602F02FFB1848694602F065
:1048A8009BFA684600214FF4807202F043FA68468A
:1048B800314602F021FB684602F002FCC6B205E070
:1048C8006846104902F018FB0136F6B2B442F7DC2C
:1048D80068460B4902F010FB0848694602F07CFA6A
:1048E800684600214FF4807202F024FA00241DE08B
:1048F80068200108DC1E01080C1F0108101F0108B0
:10490800181F01082C1F01081C1F0108301F01086F
:10491800381F0108501F0108581F0108701F01089F
:1049280068460B4902F0E8FA0134E4B2A542F7DC24
:104938000848694602F050FA684600214FF4807230
:1049480002F0F8F9044802F047FA41B0F0BD00BFA0
:104958000C1F0108101F01086820010810B4044644
:10496800034B0FCB84E80F0020465DF8044B7047DB
:10497800E014002082B070B582B0044606A981E830
:104988000C00C3B2012B1FD80A9B00930FC90B9DC3
:10499800A8470546012819D104EB8404E4000F4B0D
:1049A8001C4406AE0FCE0FC40FCE0FC496E803000A
:1049B80084E80300DDE90823CDE900230848DDE9A0
:1049C8000623FFF765FD02E0002500E0002568B238
:1049D80002B0BDE8704002B0704700BFF01400207C
:1049E800841F010870B50446C3B2012B14D800EB2C
:1049F8008003DB00094A134493F8203063B9154655
:104A080086003318DB0013449B6998473444E4005C
:104A18002C44012384F8203070BD00BFF01400201E
:104A280008B503460A460548194602F0D5F9044B6D
:104A38001B68986801F010FD08BD00BFE41F01085D
:104A48005004002000B583B00C4802F0C5F90C4BA7
:104A58001B68986801F000FD0A4869460DF10202DA
:104A6800FFF794FC009B00209AB262F30F001B0C26
:104A780063F31F4003B05DF804FB00BFF01F01089B
:104A880050040020F81F010800B583B001900114FC
:104A980000B2FFF7C5FF03B05DF804FB08B5044892
:104AA80002F09AF9034B1B68986801F0D5FC08BD21
:104AB8000C2001085004002008B5044802F08CF9C5
:104AC800034B1B68986801F0C7FC08BD1420010857
:104AD8005004002008B5044802F07EF9034B1B6817
:104AE800986801F0B9FC08BD202001085004002096
:104AF80008B50346044802F06FF9044B1B68986830
:104B080001F0AAFC08BD00BF4420010850040020A1
:104B180008B501F0D1FA08BD08B50248FFF78AFCCC
:104B2800FEE700BF5420010808B5FFF7F5FF00BFF6
:104B380008B5FFF7F1FF00BF08B5FFF7EDFF00BFAD
:104B480008B5FFF7E9FF00BF08B5FFF7E5FF00BFAD
:104B580008B5FFF7E1FF00BF08B5FFF7DDFF00BFAD
:104B680008B5FFF7D9FF00BF08B5FFF7D5FF00BFAD
:104B780008B5FFF7D1FF00BF08B5FFF7CDFF00BFAD
:104B880008B5FFF7C9FF00BF08B5FFF7C5FF00BFAD
:104B980008B5FFF7C1FF00BF08B5FFF7BDFF00BFAD
:104BA80008B5FFF7B9FF00BF08B5FFF7B5FF00BFAD
:104BB80008B5FFF7B1FF00BF08B5FFF7ADFF00BFAD
:104BC80008B5FFF7A9FF00BF08B5FFF7A5FF00BFAD
:104BD80008B5FFF7A1FF00BF08B5FFF79DFF00BFAD
:104BE80008B5FFF799FF00BF08B5FFF795FF00BFAD
:104BF80008B5FFF791FF00BF08B5FFF78DFF00BFAD
:104C080008B5FFF789FF00BF08B5FFF785FF00BFAC
:104C180008B5FFF781FF00BF08B5FFF77DFF00BFAC
:104C280008B5FFF779FF00BF08B5FFF775FF00BFAC
:104C380008B5FFF771FF00BF08B5FFF76DFF00BFAC
:104C480008B5FFF769FF00BF08B5FFF765FF00BFAC
:104C580008B5FFF761FF00BF08B5FFF75DFF00BFAC
:104C680008B5FFF759FF00BF08B5FFF755FF00BFAC
:104C780008B5FFF751FF00BF08B5FFF74DFF00BFAC
:104C880008B5FFF749FF00BF08B5FFF745FF00BFAC
:104C980008B5FFF741FF00BF08B5FFF73DFF00BFAC
:104CA80008B5FFF739FF00BF08B5FFF735FF00BFAC
:104CB80008B5FFF731FF00BF08B5FFF72DFF00BFAC
:104CC80008B5FFF729FF00BF08B5FFF725FF00BFAC
:104CD80008B5FFF721FF00BF08B5FFF71DFF00BFAC
:104CE800704700BFFEE700BFFEE700BFFEE700BF5A
:104CF800FEE700BF704700BF08B50F4B1B78D3B164
:104D08000E4840F22551FEF7FDFAA0B10C4B186889
:104D180001F0B6FA012806D1084840F225510022D0
:104D2800FEF7C0FA08BD0548FEF7DCFAC1B2044B2D
:104D3800186801F0B1FA08BD441500200038014098
:104D480040150020F0B587B0074605200121FDF782
:104D58002BFE4FF480400121FDF726FE4FF400732F
:104D6800ADF8143018238DF8173003268DF8166027
:104D7800264C204605A9FDF759FD4FF48063ADF890
:104D8800143004258DF817508DF81660204605A9B3
:104D9800FDF74CFD01970024ADF80840ADF80A4036
:104DA800ADF80C40ADF810400C23ADF80E301848A3
:104DB8000DEB0501FEF702FA25238DF800308DF87A
:104DC80001508DF8024001238DF803306846FDF745
:104DD800FFFB202001F02EFA0E4B186098B1012439
:104DE8000D4B1C700A4D28462146FEF74DFA284601
:104DF80040F225512246FEF755FA28464021FEF793
:104E08007DFA204600E0002007B0F0BD0008014010
:104E180000380140401500204415002020B310B58B
:104E28000446144840F225510022FEF73BFA124B83
:104E3800186801F01BFA012809D10E4840F22551E3
:104E48000122FEF72FFA00232370FF200FE00A4B00
:104E5800186801F033FA2070064840F22551012203
:104E6800FEF720FA012002E0002040B2704740B26D
:104E780010BD00BF003801404015002008B50146AC
:104E88000548FEF72BFA04484021FEF72FFA0028C0
:104E9800F9D0012008BD00BF0038014070B58CB0C2
:104EA80001200146FDF772FD1E4D2846FDF7D2FB95
:104EB8001D4B01931D4B5A68029210220392B3F9BD
:104EC80008300493002405948023069307940894DB
:104ED80009944FF400530A930B94284601A9FDF74F
:104EE8004DFC134802210122FDF7CAFD0F238DF85E
:104EF800003001268DF801608DF802408DF80360BE
:104F08006846FDF765FB284602213246FDF764FC3A
:104F18004FF40030FDF77CFC28462146FDF74EFC97
:104F28000CB070BD580002400C38004054150020E9
:104F380000380040F0B58DB001200146FDF726FD90
:104F48001E4D2846FDF786FB1D4B01931D4BDA6865
:104F5800029200240394B3F910300493059480233B
:104F680006930794089409944FF400560A960B94F4
:104F7800284601A9FDF702FC134801210A46FDF75E
:104F88007FFD0E238DF8003002278DF801708DF813
:104F9800024001248DF803406846FDF719FB2846B6
:104FA80039462246FDF718FC3046FDF731FC284605
:104FB8002146FDF703FC0DB0F0BD00BF44000240E0
:104FC8000C380040541500200038004008B5FFF7A1
:104FD80065FFFFF7AFFF02480121FDF743FD08BD5C
:104FE8000038004010B586B04FF480400121FDF72D
:104FF800E9FC08200121FDF7D7FC4FF43043ADF858
:10500800143004238DF8173003238DF81630184C0C
:10501800204605A9FDF70AFC4FF48043ADF814308B
:1050280018238DF81730204605A9FDF7FFFB00214E
:10503800ADF80010ADF80210ADF804100223ADF879
:1050480006300123ADF80830ADF80A10ADF80C10A1
:10505800ADF80E100723ADF81030A4F554442046DF
:10506800FDF71AFD20466946FDF7D6FC06B010BDCF
:10507800000C014030B583B04FF40050FDF7B6FB8B
:10508800012817D14FF40050FDF7C2FB0A4D2B68D9
:105098000A4CE068B4F9101098476B6860680DF125
:1050A8000601984706480121FDF788FB05480021BD
:1050B800FDF784FB03B030BD4815002054150020CF
:1050C800580002404400024008B54FF40030FDF794
:1050D8008DFB012808D14FF40030FDF799FB034BF5
:1050E8009B689847FFF772FF08BD00BF481500206E
:1050F80084B038B504AC84E80F00079BDBB1059B8E
:10510800DBB1099BDBB10A9BDBB10B9BDBB1104C1C
:1051180004AD0FCD0FC42B6823600E4B09AA07CA34
:1051280083E80700FFF75EFFFFF750FF0A48FFF725
:10513800AFF9012008E0002006E0002004E000208C
:1051480002E0002000E00020BDE8384004B07047CD
:1051580054150020481500206C20010808B50748A0
:105168000121FEF71BF838B104480121FEF722F8A7
:10517800034B1B6803B1984708BD00BF000C0040F3
:1051880068150020F0B589B08DE80F000E9D002D40
:1051980079D0DDE9006756EA07030BD1DDE9022380
:1051A800B2F57A7F73F1000304DA3848FFF742F961
:1051B800002069E008200121FDF704FC3448FDF7D0
:1051C8006DFD32238DF8103003238DF81130002344
:1051D8008DF8123001238DF8133004A8FDF7F8F983
:1051E800012E77F100031CDB2A4B1C68DDE9020164
:1051F800294A0023FCF728F836184F41A4FB06017A
:1052080004FB0711254BA3FB0434A4092246002301
:10521800FCF71AF80138ADF81800013CADF8144055
:105228001AE01C4B1C68DDE902011B4A0023FCF74D
:105238000BF80B46A4FB000104FB0311184BA3FB5E
:105248000434A40C22460023FBF7FEFF0138ADF816
:105258001800013CADF814400024ADF81A40ADF830
:1052680016400B4E304605A9FDF718FE30460121C1
:105278002246FDF7F7FE30462146FDF7D3FE094BDF
:105288001D60012000E0002009B0F0BD8020010869
:10529800000C00400000002040420F00D34D621077
:1052A80083DE1B436815002010B5054C20460121FC
:1052B8000A46FDF7D7FE20460121FDF7B3FE10BDD3
:1052C800000C004010B5054C204601210022FDF7D6
:1052D800C9FE20460021FDF7A5FE10BD000C0040C8
:1052E80010B50446006B00F083FF204600F080FFF5
:1052F80010BD00BF70B506460C464C2000F01AFFE2
:10530800054680B11CB9B00000F014FF00E020464B
:10531800286320B9284600F06BFF002503E0A5218B
:10532800B20001F007FD284670BD00BF38B504463D
:1053380015463430102201F03BFF002384F8433037
:10534800072D00D90725E562201D00F0CDFB04F1EB
:10535800180000F0C9FB2461C5F10805A561646265
:1053680038BD00BF38B5002406E014200E4B00FB02
:10537800043000F0ADFB0134072CF6D90B4D28465C
:1053880000F0A6FB0A4C204600F0A2FB094800F0FA
:105398009FFB094800F09CFB084800F099FB084B6C
:1053A8001D60084B1C6038BD98150020641600204D
:1053B8007816002040160020801500209016002046
:1053C800741500205C16002010B504460E4B1B68AF
:1053D80058600E4B1B68984207D20D4B18680A4B51
:1053E8001968043100F092FB10BD0A4B1868064B8F
:1053F8001968043100F08AFB074B1B689C4201D2F4
:10540800054B1C6010BD00BF3C160020581600203C
:105418005C160020741500201C0000202DE9F04FB8
:1054280083B00C9EDDF8348040B94748474940F2C4
:10543800EB1201F0D1FC00F0FFFDFEE78B461746AA
:1054480099468246072E08D93F4840494FF4F672DC
:1054580001F0C2FC00F0F0FDFEE710460E99FFF7E0
:1054680049FF044600285DD0036B07F18045013DE4
:1054780003EB850323F007050097594632460F9B37
:10548800FFF754FF284651464A4600F0AFFD20601A
:1054980010F0070F08D02C482C494FF40C7201F07B
:1054A8009BFC00F0C9FDFEE7B8F1000F01D0C8F879
:1054B800004000F0C9FD264A136801331360254BEC
:1054C8001B683BB9234B1C601368012B0CD1FFF7F9
:1054D80049FF09E0204B1B6833B91E4B1B68DB6A88
:1054E800B34201D81B4B1C60E06A1C4B1B689842F6
:1054F80001D91A4B18601A4A1368636401331360A0
:10550800184B1B68984201D9164B186000EB8000B5
:105518008000154B1844211D00F0EAFA00F0A2FDA6
:10552800012401E04FF0FF34012C09D10A4B1B681C
:1055380033B1084B1B68DB6AB34201D200F074FD3B
:10554800204603B0BDE8F08FBC200108D420010834
:10555800381600203C16002078150020A4160020DC
:1055680060160020941500209815002010B584B00E
:10557800002300930193029303930F480F4980225D
:10558800FFF74CFF0446012809D100F055FD012220
:105598000B4B1A6000220B4B1A6000F0B3FD44B9A4
:1055A80009480A4940F2125201F016FC00F044FD85
:1055B800FEE704B010BD00BF6958000828210108A3
:1055C8007815002058160020BC200108D4200108B6
:1055D800024A136801331360704700BF5416002055
:1055E80038B5354B1B68002B60D1344B1A68013233
:1055F8001A601B682BBB324B1B681B6843B13148D0
:10560800314940F28B6201F0E7FB00F015FDFEE73F
:105618002B4B19682D4A1068186011602C490A68CC
:1056280001320A601B681B6823B94FF0FF32294B0F
:105638001A6006E0224B1B68DB68DB685A68254B5A
:105648001A601E4B1A68234B1B689A4232D31C4BB4
:105658001B681B6823B94FF0FF321E4B1A6038BD18
:10566800174B1B68DB68DC686368144A12689A4247
:1056780002D2184A136038BD251D284600F062FA88
:10568800A36A1BB104F1180000F05CFAE06A124B3F
:105698001B68984201D9104B186000EB800080000D
:1056A8000E4B1844294600F023FAD0E70C4A136839
:1056B8000133136038BD00BF54160020581600206F
:1056C80074150020BC200108D42001085C160020B5
:1056D800701500201C00002094150020981500204B
:1056E8006C15002070B5314B1B6843B930483149FF
:1056F80040F24C5201F070FB00F09EFCFEE700F017
:10570800A3FC2A4B1A68013A1A601B68002B46D181
:10571800294B1B681BBB002444E0284BDB68DC6872
:1057280004F1180000F00EFA261D304600F00AFABF
:10573800E06A234B1B68984201D9214B186000EBA3
:10574800800080001F4B1844314600F0D1F9E26A0E
:105758001D4B1B68DB6A9A4202D3012500E0002535
:10576800164B1B68002BD8D1184B1B6833B90AE0BD
:10577800FFF736FF154A1368013B1360134B1B688C
:10578800002BF5D101251DB9114B1B68012B08D140
:1057980000220F4B1A6000F047FC012402E00024AD
:1057A80000E0002400F05EFC204670BD5416002086
:1057B800BC200108D420010838160020401600201B
:1057C80094150020981500203C1600206C15002028
:1057D8008C16002010B580B10446FFF7F9FE094B7E
:1057E8001B681C44084B1868043000F0ABF92046CD
:1057F800FFF7EAFDFFF776FF00E0002008B900F0A8
:1058080013FC10BD581600203C16002010B51BE0F4
:10581800FFF7DEFE0F4B1C68FFF764FFA4B100F032
:1058280013FC0C4BDB68DC68201D00F08BF90A4A7E
:105838001368013B1360094A1368013B136000F0C9
:1058480011FC2046FFF74CFD044B1B68002BDFD1F1
:1058580010BD00BF80150020381600207C150020E0
:1058680008B5FFF7D3FF034B1B68012BF9D900F0EC
:10587800DBFBF6E79815002010B5204B1B689BB1A1
:1058880001221F4B1A6010BD1E4B1B6843B91E48EE
:105898001E4940F23D7201F09FFA00F0CDFBFEE791
:1058A800184A1368013B1360164B1B6803EB83030C
:1058B8009B00174AD358002BE6D0124B1B6814469E
:1058C8009A00D118890021444868406848601A4401
:1058D800920008322244904205D1416803EB8302CA
:1058E80092002244516003EB83039B00084A13444F
:1058F8005B68DA68074B1A6010BD00BF54160020B9
:105908008C16002094150020BC200108D420010822
:10591800981500203C16002038B540B910481149A8
:105928004FF4E96201F058FA00F086FBFEE70C46F6
:105938000D4D2968183100F0E9F82868043000F0A6
:1059480001F9B4F1FF3F05D129680848043100F096
:10595800CFF838BD064B18682044FFF735FD38BD31
:10596800BC200108D42001083C1600209016002015
:105978005816002038B5C368DC6844B919481A4974
:1059880040F2B47201F028FA00F056FBFEE704F189
:105998001805284600F0D6F8144B1B689BB9251D3E
:1059A800284600F0CFF8E06A114B1B68984201D9ED
:1059B8000F4B186000EB800080000E4B18442946FE
:1059C80000F096F803E00C48294600F091F8E26AE6
:1059D8000A4B1B68DB6A9A4201D3012038BD0020BC
:1059E80038BD00BFBC200108D4200108541600208F
:1059F8009415002098150020401600203C16002021
:105A080008B540B90748084940F2D67201F0E4F9F0
:105A180000F012FBFEE7054A12680260044A1268A9
:105A2800426008BDBC200108D42001087015002080
:105A38005816002038B540B91E481F494FF4FC627B
:105A480001F0CAF900F0F8FAFEE70D46044641B93C
:105A58001848194940F2E17201F0BEF900F0ECFA79
:105A6800FEE700F0F1FA2B68B3F1FF3F18D0216888
:105A7800124A1268914204D06168114A1268914230
:105A880010D90F4A11686068091A8B420CD912683C
:105A9800121A9B1A2B602046FFF7B2FF002404E07D
:105AA800002402E0012400E0012400F0DBFA204693
:105AB80038BD00BFBC200108D420010870150020A3
:105AC800581600200122014B1A6070478C160020DE
