:020000040800F2
:1000000000C000208D1F00081D4600082146000882
:1000100025460008294600082D460008000000007B
:1000200000000000000000000000000099570008D8
:1000300031460008000000000D5800084544000843
:100040005D440008654400086D44000875440008DC
:100050007D440008854400088D440008954400084C
:100060009D440008A5440008AD440008B5440008BC
:10007000BD440008C5440008094800085D48000860
:10008000CD440008D5440008DD440008E5440008DC
:10009000ED440008F5440008FD440008054500084B
:1000A0000D450008154500081D45000825450008B8
:1000B0002D45000835450008A11B00083D450008F6
:1000C000454500084D450008554500085D450008B8
:1000D000654500086D450008754500087D45000828
:1000E000854500088D450008954500089D45000898
:1000F000A5450008AD450008B5450008BD45000808
:10010000C5450008CD450008F1480008D545000860
:10011000DD450008E5450008ED450008F545000807
:10012000FD450008054600080D4600081546000874
:1001300000000000000000000000000000000000BF
:1001400000000000000000000000000000000000AF
:10015000000000000000000000000000000000009F
:10016000000000000000000000000000000000008F
:10017000000000000000000000000000000000007F
:10018000000000000000000000000000000000006F
:10019000000000000000000000000000000000005F
:1001A000000000000000000000000000000000004F
:1001B000000000000000000000000000000000003F
:1001C000000000000000000000000000000000002F
:1001D000000000000000000000000000000000001F
:0401E0005FF8E0F1F3
:1001E800844641EA000313F0030349D1403A23D37C
:1001F8000B6803604B6843608B688360CB68C3609F
:100208000B6903614B6943618B698361CB69C36186
:100218000B6A03624B6A43628B6A8362CB6AC3626E
:100228000B6B03634B6B43638B6B8363CB6BC36356
:1002380040304031403ADBD230320BD30B68036098
:100248004B6843608B688360CB68C36010301031A3
:10025800103AF3D20C3205D351F8043B40F8043B72
:10026800043AF9D2043208D0D2071CBF11F8013B76
:1002780000F8013B01D30B8803806046704700BF3C
:10028800082A13D38B07B1D010F00303AED0C3F103
:100298000403D21ADB071CBF11F8013B00F8013B2D
:1002A800A4D331F8023B20F8023B9FE7043AD9D3A4
:1002B800013A11F8013B00F8013BF9D20B780370C1
:1002C8004B7843708B7883706046704781F00041AB
:1002D80002E000BF83F0004330B54FEA41044FEA23
:1002E800430594EA050F08BF90EA020F1FBF54EABE
:1002F800000C55EA020C7FEA645C7FEA655C00F05A
:10030800E2804FEA5454D4EB5555B8BF6D420CDD2A
:100318002C4480EA020281EA030382EA000083EAAD
:10032800010180EA020281EA0303362D88BF30BD4D
:1003380011F0004F4FEA01314FF4801C4CEA1131A3
:1003480002D0404261EB410113F0004F4FEA033302
:100358004CEA133302D0524263EB430394EA050F8D
:1003680000F0A780A4F10104D5F1200E0DDB02FAFC
:100378000EFC22FA05F2801841F1000103FA0EF290
:10038800801843FA05F359410EE0A5F120050EF156
:10039800200E012A03FA0EFC28BF4CF0020C43FA87
:1003A80005F3C01851EBE37101F0004507D54FF094
:1003B800000EDCF1000C7EEB00006EEB0101B1F5E4
:1003C800801F1BD3B1F5001F0CD349085FEA30002A
:1003D8004FEA3C0C04F101044FEA445212F5800F35
:1003E80080F09A80BCF1004F08BF5FEA500C50F1D2
:1003F800000041EB045141EA050130BD5FEA4C0CB5
:10040800404141EB010111F4801FA4F10104E9D13D
:1004180091F0000F04BF01460020B1FA81F308BF34
:100428002033A3F10B03B3F120020CDA0C3208DD00
:1004380002F1140CC2F10C0201FA0CF021FA02F1DB
:100448000CE002F11402D8BFC2F1200C01FA02F14B
:1004580020FA0CFCDCBF41EA0C019040E41AA2BF70
:1004680001EB0451294330BD6FEA04041F3C1CDA38
:100478000C340EDC04F11404C4F1200220FA04F058
:1004880001FA02F340EA030021FA04F345EA030102
:1004980030BDC4F10C04C4F1200220FA02F001FAC4
:1004A80004F340EA0300294630BD21FA04F0294646
:1004B80030BD94F0000F83F4801306BF81F48011DF
:1004C8000134013D4EE77FEA645C18BF7FEA655C52
:1004D80029D094EA050F08BF90EA020F05D054EA24
:1004E800000C04BF1946104630BD91EA030F1EBF29
:1004F8000021002030BD5FEA545C05D1400049412D
:1005080028BF41F0004130BD14F580043CBF01F51F
:10051800801130BD01F0004545F0FE4141F4700105
:100528004FF0000030BD7FEA645C1ABF19461046E0
:100538007FEA655C1CBF0B46024650EA013406BFE1
:1005480052EA033591EA030F41F4002130BD00BFA0
:1005580090F0000F04BF0021704730B54FF480645D
:1005680004F132044FF000054FF0000150E700BFDE
:1005780090F0000F04BF0021704730B54FF480643D
:1005880004F1320410F0004548BF40424FF000012A
:100598003EE700BF42004FEAE2014FEA31014FEA6D
:1005A80002701FBF12F07F4393F07F4F81F06051BC
:1005B800704792F0000F14BF93F07F4F704730B52B
:1005C8004FF4607401F0004521F0004120E700BFBE
:1005D80050EA010208BF704730B54FF000050AE045
:1005E80050EA010208BF704730B511F0004502D546
:1005F800404261EB41014FF4806404F132045FEA48
:10060800915C3FF4DCAE4FF003025FEADC0C18BFEC
:1006180003325FEADC0C18BF033202EBDC02C2F1E2
:10062800200300FA03FC20FA02F001FA03FE40EA74
:100638000E0021FA02F11444C1E600BF70B54FF074
:10064800FF0C4CF4E06C1CEA11541DBF1CEA135556
:1006580094EA0C0F95EA0C0F00F0DEF82C4481EABE
:10066800030621EA4C5123EA4C5350EA013518BFDE
:1006780052EA033541F4801143F4801338D0A0FBCB
:1006880002CE4FF00005E1FB02E506F00042E0FB78
:1006980003E54FF00006E1FB03569CF0000F18BF7E
:1006A8004EF0010EA4F1FF04B6F5007F64F5407426
:1006B80004D25FEA4E0E6D4146EB060642EAC621B9
:1006C80041EA55514FEAC52040EA5E504FEACE2E26
:1006D800B4F1FD0C88BFBCF5E06F1ED8BEF1004F29
:1006E80008BF5FEA500E50F1000041EB045170BDA5
:1006F80006F0004646EA010140EA020081EA0301E9
:10070800B4EB5C04C2BFD4EB0C0541EA045170BDE4
:1007180041F480114FF0000E013C00F3AB8014F15E
:10072800360FDEBF002001F0004170BDC4F10004A7
:10073800203C35DA0C341BDC04F11404C4F1200528
:1007480000FA05F320FA04F001FA05F240EA020083
:1007580001F0004221F0004110EBD37021FA04F6B9
:1007680042EB06015EEA430E08BF20EAD37070BD73
:10077800C4F10C04C4F1200500FA04F320FA05F0D2
:1007880001FA04F240EA020001F0004110EBD370D4
:1007980041F100015EEA430E08BF20EAD37070BD44
:1007A800C4F1200500FA05F24EEA020E20FA04F31D
:1007B80001FA05F243EA020321FA04F001F00041CC
:1007C80021FA04F220EA020000EBD3705EEA430E3D
:1007D80008BF20EAD37070BD94F0000F0FD101F06C
:1007E8000046400041EB010111F4801F08BF013CA5
:1007F800F7D041EA060195F0000F18BF704703F0E3
:100808000046520043EB030313F4801F08BF013D69
:10081800F7D043EA0603704794EA0C0F0CEA135525
:1008280018BF95EA0C0F0CD050EA410618BF52EADF
:100838004306D1D181EA030101F000414FF00000E5
:1008480070BD50EA410606BF1046194652EA4306F3
:1008580019D094EA0C0F02D150EA013613D195EA67
:100868000C0F05D152EA03361CBF104619460AD1AF
:1008780081EA030101F0004141F0FE4141F47001B9
:100888004FF0000070BD41F0FE4141F4780170BDA9
:1008980070B54FF0FF0C4CF4E06C1CEA11541DBF0E
:1008A8001CEA135594EA0C0F95EA0C0F00F0A7F810
:1008B800A4EB050481EA030E52EA03354FEA01313D
:1008C80000F088804FEA03334FF0805545EA131350
:1008D80043EA12634FEA022245EA111545EA106518
:1008E8004FEA00260EF000419D4208BF964244F1AF
:1008F800FD0404F5407402D25B084FEA3202B61ACE
:1009080065EB03055B084FEA32024FF480104FF4A1
:10091800002CB6EB020E75EB030E22BFB61A754615
:1009280040EA0C005B084FEA3202B6EB020E75EBA8
:10093800030E22BFB61A754640EA5C005B084FEA10
:100948003202B6EB020E75EB030E22BFB61A7546DD
:1009580040EA9C005B084FEA3202B6EB020E75EBE8
:10096800030E22BFB61A754640EADC0055EA060EA9
:1009780018D04FEA051545EA16754FEA06164FEAEC
:10098800C30343EA52734FEAC2025FEA1C1CC0D198
:1009980011F4801F0BD141EA00014FF000004FF025
:1009A800004CB6E711F4801F04BF01430020B4F1E6
:1009B800FD0C88BFBCF5E06F3FF6AFAEB5EB030C9E
:1009C80004BFB6EB020C5FEA500C50F1000041EB9B
:1009D800045170BD0EF0004E4EEA113114EB5C0468
:1009E800C2BFD4EB0C0541EA045170BD41F480113B
:1009F8004FF0000E013C90E645EA060E8DE60CEA43
:100A0800135594EA0C0F08BF95EA0C0F3FF43BAF5F
:100A180094EA0C0F0AD150EA01347FF434AF95EA16
:100A28000C0F7FF425AF104619462CE795EA0C0FFA
:100A380006D152EA03353FF4FDAE1046194622E7C7
:100A480050EA410618BF52EA43067FF4C5AE50EAA1
:100A580041047FF40DAF52EA43057FF4EBAE12E791
:100A68004FF0FF3C06E000BF4FF0010C02E000BF72
:100A78004FF0010C4DF804CD4FEA410C7FEA6C5C55
:100A88004FEA430C18BF7FEA6C5C1BD001B050EAF8
:100A9800410C0CBF52EA430C91EA030F02BF90EAE3
:100AA800020F0020704710F1000F91EA030F58BFA2
:100AB800994208BF90422CBFD8176FEAE37040F004
:100AC800010070474FEA410C7FEA6C5C02D150EAA2
:100AD800013C07D14FEA430C7FEA6C5CD6D152EA5D
:100AE800033CD3D05DF8040B704700BF8446104622
:100AF80062468C461946634600E000BF01B5FFF721
:100B0800B7FF002848BF10F1000F01BD4DF808EDF0
:100B1800FFF7F4FF0CBF012000205DF808FB00BFC1
:100B28004DF808EDFFF7EAFF34BF012000205DF81B
:100B380008FB00BF4DF808EDFFF7E0FF94BF012068
:100B480000205DF808FB00BF4DF808EDFFF7CEFF69
:100B580094BF012000205DF808FB00BF4DF808EDA8
:100B6800FFF7C4FF34BF012000205DF808FB00BF79
:100B78004FEA410212F5001215D211D56FF47873BD
:100B8800B3EB625212D94FEAC12343F0004343EA60
:100B9800505311F0004F23FA02F018BF404270473B
:100BA8004FF00000704750EA013005D111F00040C5
:100BB80008BF6FF0004070474FF00000704700BF5B
:100BC8004A0011D212F5001211D20DD56FF47873C4
:100BD800B3EB62520ED44FEAC12343F0004343EA19
:100BE800505323FA02F070474FF00000704750EA64
:100BF800013002D14FF0FF3070474FF000007047CE
:100C08004FEA4102B2F1E04324BFB3F5001CDCF126
:100C1800FE5C0DD901F0004C4FEAC0024CEA50705E
:100C2800B2F1004F40EB830008BF20F0010070478D
:100C380011F0804F21D113F13872BCBF01F0004090
:100C4800704741F480114FEA5252C2F11802C2F1C2
:100C5800200C10FA0CF320FA02F018BF40F0010043
:100C68004FEAC1234FEAD32303FA0CFC40EA0C00F5
:100C780023FA02F34FEA4303CCE77FEA625307D132
:100C880050EA01331EBF4FF0FE4040F44000704769
:100C980001F0004040F0FE4040F40000704700BF03
:100CA80080F0004002E000BF81F0004142001FBF19
:100CB8005FEA410392EA030F7FEA226C7FEA236C22
:100CC8006AD04FEA1262D2EB1363C1BFD218414017
:100CD80048404140B8BF5B42192B88BF704710F0AD
:100CE800004F40F4000020F07F4018BF404211F050
:100CF800004F41F4000121F07F4118BF494292EAB8
:100D0800030F3FD0A2F1010241FA03FC10EB0C00E3
:100D1800C3F1200301FA03F100F0004302D5494270
:100D280060EB4000B0F5000F13D3B0F1807F06D31D
:100D380040084FEA310102F10102FE2A51D2B1F115
:100D4800004F40EBC25008BF20F0010040EA03000A
:100D58007047490040EB000010F4000FA2F10102B7
:100D6800EDD1B0FA80FCACF1080CB2EB0C0200FA41
:100D78000CF0AABF00EBC25052421843BCBFD0408F
:100D88001843704792F0000F81F4000106BF80F409
:100D980000000132013BB5E74FEA41037FEA226CCC
:100DA80018BF7FEA236C21D092EA030F04D092F097
:100DB800000F08BF0846704790EA010F1CBF0020CB
:100DC800704712F07F4F04D1400028BF40F0004028
:100DD800704712F100723CBF00F50000704700F048
:100DE800004343F0FE4040F4000070477FEA22626F
:100DF80016BF08467FEA23630146420206BF5FEA40
:100E0800412390EA010F40F4800070474FF000033F
:100E180004E000BF10F0004348BF40425FEA000C06
:100E280008BF704743F0964301464FF000001CE0AE
:100E380050EA010208BF70474FF000030AE000BF04
:100E480050EA010208BF704711F0004302D5404242
:100E580061EB41015FEA010C02BF844601460020B4
:100E680043F0B64308BFA3F18053A3F50003BCFACF
:100E78008CF2083AA3EBC25310DB01FA02FC63447C
:100E880000FA02FCC2F12002BCF1004F20FA02F283
:100E980043EB020008BF20F00100704702F1200276
:100EA80001FA02FCC2F1200250EA4C0021FA02F2D7
:100EB80043EB020008BF20EADC7070474FF0FF3CAC
:100EC80006E000BF4FF0010C02E000BF4FF0010C3C
:100ED8004DF804CD4FEA40024FEA41037FEA226C05
:100EE80018BF7FEA236C11D001B052EA530C18BF27
:100EF80090EA010F58BFB2EB030088BFC81738BF8C
:100F08006FEAE17018BF40F0010070477FEA226C79
:100F180002D15FEA402C05D17FEA236CE4D15FEA75
:100F2800412CE1D05DF8040B704700BF84460846A9
:100F38006146FFE70FB5FFF7C9FF002848BF10F16A
:100F4800000F0FBD4DF808EDFFF7F4FF0CBF0120AF
:100F580000205DF808FB00BF4DF808EDFFF7EAFF39
:100F680034BF012000205DF808FB00BF4DF808EDF4
:100F7800FFF7E0FF94BF012000205DF808FB00BFE9
:100F88004DF808EDFFF7D2FF94BF012000205DF86F
:100F980008FB00BF4DF808EDFFF7C8FF34BF01207C
:100FA80000205DF808FB00BF53B94AB9002908BF03
:100FB80000281CBF4FF0FF314FF0FF3000F03CB865
:100FC80082B0EC462DE9005000F01EF8DDF804E090
:100FD80002B00CBC704700BF2DE9F041069C90465A
:100FE80006460F461D4600F029F808FB01FCA8FB41
:100FF800002300FB05C5B21A2B4467EB03038646A2
:10100800C4E90023BDE8F0812DE9F843089E17469E
:10101800804689461D4600F067F900FB05F3A0FBF2
:10102800074507FB0137B8EB04043D4469EB0505A8
:10103800C6E90045BDE8F883704700BF00292DE9DF
:10104800F043C0F2A8800026002BC0F29E808146A3
:101058008E4690469C46174604460D46002B3DD1C9
:101068008A4259D9B2FA82F33BB1C3F120029D40BA
:1010780020FA02F29F4015439C40390CB5FBF1F071
:101088001FFA87FE01FB10550EFB00F3220C42EA03
:101098000545AB4209D9ED1900F1FF3280F00B810B
:1010A800AB4240F2088102383D44ED1AB5FBF1F33A
:1010B80001FB13550EFB03FEA4B244EA0545AE45F9
:1010C80008D9ED1903F1FF3280F0F780AE4540F200
:1010D800F480023B43EA0043002203E08B420FD92D
:1010E80000221346341C18BF012460424FF000054B
:1010F80065EB45015840514000196941BDE8F0834E
:10110800B3FA83F2002A40F089808B4202D38045EB
:1011180000F2E2800123E5E712B90123B3FBF2F7FD
:10112800B7FA87F8B8F1000F3BD1ED1B4FEA174C1F
:101138001FFA87FE0122B5FBFCF00CFB10550EFBD5
:1011480000F3210C41EA0545AB4207D9ED1900F13E
:10115800FF3102D2AB4200F2C3800846ED1AB5FB5C
:10116800FCF30CFB13550EFB03FEA4B244EA054541
:10117800AE4507D9ED1903F1FF3102D2AE4500F2B1
:10118800AD800B4643EA0043ACE752426FEA0606DD
:1011980063EB43035BE7404261EB41014FF0FF36ED
:1011A80052E707FA08F7C8F1200225FA02F34FEAD6
:1011B800174CB3FBFCF11FFA87FE0CFB113324FA22
:1011C80002F205FA08F50EFB01F92A43100C40EA71
:1011D8000343994504FA08F407D9DB1901F1FF30F4
:1011E80078D2994576D902393B44C9EB0303B3FB5E
:1011F800FCF00CFB10330EFB00F592B242EA0343FD
:101208009D4207D9DB1900F1FF325FD29D425DD9BB
:1012180002383B445D1B40EA01428CE7C2F12003DF
:1012280028FA03F10CFA02FC41EA0C0C4FEA1C40C4
:101238002EFA03F1B1FBF0F51FFA8CF700FB15113C
:1012480029FA03F30EFA02FE07FB05F943EA0E0E2C
:101258004FEA1E4343EA0141894508FA02F808D9D2
:1012680011EB0C0105F1FF3332D2894530D9023D2B
:101278006144C9EB0101B1FBF0F300FB131107FB5B
:1012880003F71FFA8EFE4EEA014E774508D91EEB8A
:101298000C0E03F1FF3117D2774515D9023BE6440E
:1012A80043EA0543A3FB0889C7EB0E0ECE4509D3D5
:1012B80005D0002216E71046F7E613460AE79440E1
:1012C8004445F6D2013BF4E70B46E9E71046A1E7AF
:1012D8001D46CEE7014688E7134603E7023B51E780
:1012E80002383D443AE700BF2DE9F043002B44D1D2
:1012F8008A42154604464FD9B2FA82F70E464FB1D4
:10130800C7F12003B94020FA03F602FA07F50E43A5
:1013180000FA07F42F0CB6FBF7F01FFA85FE07FB5F
:1013280010620EFB00F1260C46EA0243994209D9E5
:101338005B1900F1FF3280F0EE80994240F2EB80B9
:1013480002382B44591AB1FBF7F307FB13110EFBB4
:1013580003FEA4B244EA01418E4508D9491903F1B4
:10136800FF3280F0DA808E4540F2D780023B43EAB4
:10137800004000263146BDE8F0838B4247D8B3FAD7
:1013880083F6002E48D18B4202D3824200F2CF80EE
:1013980001203146BDE8F08312B90125B5FBF2F50D
:1013A800B5FA85FCBCF1000F78D1491B2F0C1FFA48
:1013B80085FE0126B1FBF7F007FB10110EFB00F2CA
:1013C800230C43EA01418A4207D9491900F1FF3346
:1013D80002D28A4200F2BC801846891AB1FBF7F3A0
:1013E80007FB13110EFB03FEA4B244EA0142964523
:1013F80008D9521903F1FF3180F09180964540F2E7
:101408008E80023B43EA00403146BDE8F083002667
:1014180030463146BDE8F083C6F1200422FA04F5CF
:10142800B3402B4321FA04F74FEA1348B7FBF8FC03
:101438001FFA83F908FB1C7720FA04FE01FA06F567
:1014480009FB0CF44EEA05054FEA154E4EEA07472C
:10145800BC4202FA06F204D9FF180CF1FF3168D336
:101468008C463F1BB7FBF8F408FB147709FB04F91B
:10147800ADB245EA0741894504D9C91804F1FF35D9
:101488005DD32C4644EA0C44A4FB0223C9EB0101BA
:10149800994249D345D0204600266BE7CCF1200479
:1014A80005FA0CF521FA04F32A0CB3FBF2F61FFA3D
:1014B80085FE02FB163820FA04F701FA0CF10EFB40
:1014C80006F90F433C0C44EA0843994500FA0CF42A
:1014D80007D95B1906F1FF3138D2994536D9023E52
:1014E8002B44C9EB0303B3FBF2F002FB10330EFBF2
:1014F80000F1BFB247EA0343994207D95B1900F1EB
:10150800FF3721D299421FD902382B441746591A5E
:1015180040EA06464EE7104614E7134627E70B460F
:1015280070E7B0409042B6D2601E002622E73046EF
:1015380020E7BC4294D9ACF1020C1F4491E78945DD
:101548009FD9023C19449DE73846DFE70E46C8E7B5
:101558000238294441E700BF08B500F011F8012816
:1015680003D1054802F04EFC02E0044802F04AFCB0
:1015780002F096FB002008BD28EC000840EC0008AB
:1015880008B500F007F9012805D100F007F801288F
:1015980002D0002000E0002040B208BDF0B589B0BC
:1015A80001F034FF012804D0274802F04DFC002444
:1015B80047E001F0AFFC0446012804D0234802F0BC
:1015C80043FC00243DE02248224901F06FFD2248F7
:1015D800224901F06BFD224B224A1360224FBB6166
:1015E8007F2307936D4607F10C060FCE0FC596E8CB
:1015F800070085E8070097E80E00002002F042F88F
:1016080001281DD1194802F0FDFB0020184902F0FD
:10161800AFF80420174902F0ABF80820164902F089
:10162800A7F82020154902F0A3F82820144902F051
:101638009FF83020134902F09BF800F067FA00E0A9
:10164800002460B209B0F0BD58EC000878EC00083E
:1016580090EC00089934000898EC0008D9180008A4
:1016680085480008D0080020D4080020A4EC000811
:1016780025180008411800085D18000879180008A6
:1016880099180008B91800080120704710B50446D9
:101698000548202101F0A2FB0028F9D0024801F0FA
:1016A80099FB2070012010BD0038014008B50146A3
:1016B800054801F08BFB0448802101F08FFB0028CE
:1016C800F9D0012008BD00BF0038014000B583B043
:1016D8000023ADF8023002A901F8040D18460122D2
:1016E8000DF1020302F0F6F840B203B05DF804FB16
:1016F80000B583B00146002002AB23F8020D012299
:1017080002F0BAF840B203B05DF804FB70B586B0D9
:1017180006460520012100F0DBFE4FF48040012140
:1017280000F0D6FE4FF40073ADF8143018238DF88E
:10173800173003258DF81650154C204605A900F0E2
:1017480009FE4FF48063ADF8143004238DF8173088
:101758008DF81650204605A900F0FCFD01960023DF
:10176800ADF80830ADF80A30ADF80C30ADF81030EF
:101778000C23ADF80E3004F54054204601A901F0C1
:10178800B1FA2046012101F013FB012006B070BD1B
:101798000008014010B54FF00060002100F0E4FCA3
:1017A8004FF4407000F09EFC124B134A1A60134A23
:1017B8009A60134A5A6013494FF4E1320A608B6009
:1017C800002002F03BF801280FD10F480F4B0360AF
:1017D8000F4B83600F4B436002F0B8FA04460128B0
:1017E80005D10D4802F00EFB02E0002400E00024C1
:1017F80060B210BD140900201517000895160008DE
:10180800B5160008FC0800200809002091160008F9
:10181800F9160008D5160008B8EC000800B583B022
:10182800042A02D101A8FEF7DBFC019800F05EF95A
:1018380003B05DF804FB00BF00B583B0042A02D1F1
:1018480001A8FEF7CDFC019800F052F903B05DF84D
:1018580004FB00BF00B583B0042A02D101A8FEF73B
:10186800BFFC019800F046F903B05DF804FB00BF27
:1018780000B583B0042A02D101A8FEF7B1FC019893
:10188800FFF7C8FA00F038F903B05DF804FB00BFB1
:1018980000B583B0042A02D101A8FEF7A1FC019883
:1018A800FFF7B8FA00F02AF903B05DF804FB00BFAF
:1018B80000B583B0042A02D101A8FEF791FC019873
:1018C800FFF7A8FA00F01CF903B05DF804FB00BFAD
:1018D8002DE9F0479CB0064609A835494A22FEF78B
:1018E8007FFC0024019402940394049405940694C4
:1018F800079408942746A04648E0304621B202F0F3
:10190800A9F8054601A80021202204F0A3FD01A89A
:10191800691C2A7804F0EEFF9CB901A82549012228
:1019280004F09EFF20B9244809A902F06BFA2BE0C5
:1019380001A82249012204F093FF00BB4FF0010ADD
:1019480022E023B2012B07D101A800210A2206F0C8
:1019580021F95FFA80F817E023B2022B08D101A819
:101968001649012204F07CFF60B94FF001090BE031
:1019780001A800210A2206F00DF9C7B204E04FF0D1
:10198800020A01E04FF002090134A4B2304602F025
:1019980057F823B29842B0DC50464FFA88F14A46CD
:1019A8007BB200F0A9FA01201CB0BDE8F08700BFA7
:1019B800D8EC0008D0EC0008C8FD0008D4EC0008FA
:1019C800704700BF0C4B5B7A012B08D10A49D1E95B
:1019D8000023013243F10003C1E900237047022BC1
:1019E80008D10549D1E9002312F1FF3243F1FF3351
:1019F800C1E90023704700BF280900200C4B5B7A1F
:101A0800012B08D10A49D1E90023013243F100032F
:101A1800C1E900237047022B08D10549D1E9002309
:101A280012F1FF3243F1FF33C1E90023704700BFD1
:101A380038090020054B00200021C3E900010022DD
:101A48005A72034BC3E900015A72704738090020E3
:101A58002809002030B593B002E0642002F05AF85B
:101A68001A4B18680021FFF76DFA0028F5D1184BBA
:101A78000D93184B0E93184B0F9300220023CDE9BA
:101A88000823164A0023CDE90A23154B0C936C460C
:101A98000AAD0FCD0FC495E80F0084E80F0008AB1E
:101AA8000CCB002002F016FC012803D00D4802F0F0
:101AB800CBF909E0002002F039FC0B4802F0F2F9FA
:101AC800642002F027F8FBE713B030BD200900209E
:101AD80019490008394A0008554A0008A08601003B
:101AE800C919000824ED000840ED0008704700BF40
:101AF800704700BF704700BF704700BF704700BF06
:101B0800014B1860704700BF2009002010B586B04F
:101B1800194B0493194B0393194B059306AB13E91F
:101B2800070000F065F8012804D0164802F08CF987
:101B380000241DE000F0D6F9012804D0124802F074
:101B480083F9002414E04FF4806300930DF10B0037
:101B58000E490022022302F06FF80446012804D03F
:101B68000B4802F071F9002402E00A4802F04AF931
:101B780060B206B010BD00BF051A0008CD190008F4
:101B88003D1A000860ED000878ED00085D1A0008AD
:101B98008CED000824ED000808B513480023838461
:101BA800012101F08FF838B1104B9B6803B19847B9
:101BB8000D48192101F082F80B48082101F082F83C
:101BC80018B10A4B1B6803B198470748102101F068
:101BD80079F818B1054B5B6803B198470248192199
:101BE80001F06CF808BD00BF00080040480900205B
:101BF800F0B58DB001AB83E80700029B002B75D0D0
:101C0800002875D03C4B01AA07CA83E807000420C6
:101C1800012100F06BFC0820012100F059FC374E2F
:101C2800304600F0CFFD4FF44075ADF81050482312
:101C38008DF8133003248DF81240314F384604A92B
:101C480000F088FB3846294600F0D2FB1E238DF8A9
:101C580014308DF8154001248DF816408DF8174082
:101C680005A800F049FA42F21073ADF82830254B68
:101C78001B68254AA2FB03239B09013BADF82430CE
:101C88000025ADF82A50ADF82650304609A900F0D5
:101C980099FE0823ADF81830ADF81A50ADF81C407D
:101CA800ADF81E50ADF82050304606A900F0D4FF1C
:101CB8000C23ADF81830ADF81A50ADF81C40ADF84B
:101CC8001E50ADF82050304606A900F0C5FF30463A
:101CD800192100F0F3FF30461921224600F056FF83
:101CE8003046214600F032FF204602E0002000E0A6
:101CF80000200DB0F0BD00BF4809002000080040DA
:101D0800000C014000000020D34D62102DE9F04185
:101D180082B00520012100F0DBFB4026ADF804600D
:101D280018278DF8077003258DF80650244C204697
:101D380001A900F00FFB2046314600F05BFB0520AF
:101D4800012100F0C5FB8026ADF804604FF01008B3
:101D58008DF807808DF80650204601A900F0FAFAA0
:101D68002046314600F046FB0520012100F0B0FB7B
:101D78004FF48076ADF804608DF807808DF8065032
:101D8800204601A900F0E6FA2046314600F032FB71
:101D98000520012100F09CFB4FF40066ADF80460BB
:101DA8008DF807708DF80650204601A900F0D2FA88
:101DB8002046314600F01EFB02B0BDE8F08100BFAE
:101DC8000008014070B588B04FF40060012100F0B0
:101DD8007FFB6323ADF818301B4B1B681B4AA2FB23
:101DE80003239B0D013BADF814300025ADF81A50C4
:101DF800ADF816508DF81C50154C204605A900F07A
:101E0800E1FD6023ADF804300126ADF80660ADF8B9
:101E18000850ADF80A50ADF80C50204601A900F062
:101E28005FFE2046082100F0D3FE2046314600F030
:101E3800B9FE2046314600F097FE2046314600F0B4
:101E480085FE08B070BD00BF000000206BCA5F6B44
:101E5800002C014070B588B00220012100F046FB3B
:101E68001D4C204600F0AEFC6323ADF818301B4B28
:101E78001B681B4AA2FB03239B0D013BADF81430E2
:101E88000025ADF81A50ADF81650204605A900F007
:101E980099FD6023ADF804300126ADF80660ADF871
:101EA8000850ADF80A50ADF80C50204601A900F0D2
:101EB800D3FD2046082100F083FE2046314600F07D
:101EC80071FE2046314600F04FFE2046314600F0B4
:101ED8003DFE08B070BD00BF0004004000000020B7
:101EE8006BCA5F6B08B5FFF711FFFFF76BFFFFF7D2
:101EF800B1FF012008BD00BFF8B517461D4A928DF5
:101F080092B21D4CA48DA6B202FB01F11B4C84FBBE
:101F180001E5C917C1EB6515ADB206FB03F384FBF8
:101F28000314DB17C3EB6414A4B2022806D1551BB3
:101F3800ADB21348802100F05BFA03E0104880211D
:101F480000F058FA022F07D1341BA4B20C484FF402
:101F5800807100F04DFA04E009484FF4807100F0F8
:101F680049FA0448294600F03DFE0348214600F09E
:101F78003BFEF8BD00040040002C01401F85EB51DA
:101F880000080140002103E00A4B5B58435004312C
:101F980009480A4B42189A42F6D3094A02E000233C
:101FA80042F8043B074B9A42F9D300F073F8FFF765
:101FB800D3FA7047DD1F010800000020CC0800207C
:101FC800D00800202467002082B0002301930093EA
:101FD8002C4A136843F4803313602A4B1B6803F4BC
:101FE80000330093019B01330193009B1BB9019BB4
:101FF800B3F5A06FF1D1234B1B6813F4003F02D057
:102008000123009301E000230093009B012B36D1AC
:102018001D4B1A6842F010021A601A6822F0030277
:102028001A601A6842F002021A60A3F580535A68CF
:102038005A605A685A605A6842F480625A605A680C
:1020480022F47C125A605A6842F4E8125A601A68FC
:1020580042F080721A600B4B1B6813F0007FFAD0B5
:10206800084B5A6822F003025A605A6842F002028A
:102078005A60044B5B6803F00C03082BF9D102B0DB
:10208800704700BF001002400020024008B5FFF76B
:102098009BFF08BD08B5104B1A6842F001021A6090
:1020A80059680E4A0A405A601A6822F0847222F46B
:1020B80080321A601A6822F480221A605A6822F460
:1020C800FE025A604FF41F029A60FFF7DFFF4FF0DD
:1020D8000062034B9A6008BD001002400000FFF840
:1020E80000ED00E040F0BF6040F40030014BD860E4
:1020F800704700BF00ED00E0C3780BB310B4184B75
:10210800DA68D243C2F30222C2F104040F2323FA8D
:1021180002F1437803FA04F283780B4013431B015E
:102128000278DBB20F490A4482F800330378580971
:1021380003F01F03012202FA03F341F820300BE0F9
:1021480003785A0903F01F030121994002F1200383
:10215800044A42F8231070475DF8044B704700BFEB
:1021680000ED00E000E100E021F0604121F07F0196
:102178000843014B9860704700ED00E0036823F0C6
:1021880001031B041B0C036000230360436083608E
:10219800C360364B984205D1354A536843F00F0364
:1021A80053607047334B984205D1314A536843F026
:1021B800F00353607047304B984205D12C4A53685E
:1021C80043F47063536070472C4B984205D1284AFA
:1021D800536843F4704353607047294B984205D1C4
:1021E800234A536843F4702353607047254B984241
:1021F80005D11F4A536843F4700353607047224B5C
:10220800984205D11A4A536843F070635360704787
:102218001E4B984205D11E4A536843F00F03536082
:1022280070471C4B984205D1194A536843F0F00394
:1022380053607047184B984205D1154A536843F4C8
:10224800706353607047154B984205D1104A536824
:1022580043F4704353607047114B984204D10C4AC1
:10226800536843F470235360704700BF080002406E
:10227800000002401C0002403000024044000240BE
:10228800580002406C0002408000024008040240EE
:10229800000402401C04024030040240440402408E
:1022A8005804024010B4036823F4FF4323F070037A
:1022B8008C680A6A14430A6914434A6914438A6990
:1022C8001443CA6914434A6A14438A6A224313436B
:1022D8000360CB6843600B6883604B68C3605DF83C
:1022E800044B704721B1036843F001030360704752
:1022F800036823F001031B041B0C0360704700BF35
:102308001AB10368194301607047036823EA0101A1
:102318000160704710F0805F02D0054B1B6801E038
:10232800044B1B68034201D001207047002070470E
:10233800000402400000024010F0805F02D0034B0E
:1023480058607047024B5860704700BF0004024055
:1023580000000240F0B5CB7803F00F02154613F0E9
:10236800100F01D08D7815430B78E3B10668002271
:1023780016E0012393400C881C409C420FD1970023
:102388000F24BC4026EA040605FA07F42643CC7855
:10239800282C01D1436102E0482C00D103610132AD
:1023A800072AE6D906600B88FF2B20D94768002446
:1023B8001AE004F10802012393400A881A409A425D
:1023C80011D14FEA840E0F2202FA0EF627EA06020E
:1023D80005FA0EF71743CA78282A00D14361CA784C
:1023E800482A00D103610134072CE2D94760F0BDC7
:1023F800016170474161704710B4294B5B6803F075
:102408000C03042B05D0082B06D013BB254B036007
:1024180021E0244B03601EE0214A53685268C3F34D
:102428008343023312F4803F04D11F4A02FB03F3B3
:10243800036010E01A4A526812F4003F04D01A4AA6
:1024480002FB03F3036006E0164A02FB03F3036092
:1024580001E0144B0360124A5368C3F30313134C8F
:10246800E15CC9B20368CB4043605168C1F3022103
:10247800615CC9B223FA01F181605168C1F3C221DC
:10248800615CC9B2CB40C3605268C2F3813208496B
:102498008A5CD2B2B3FBF2F303615DF8044B704778
:1024A8000010024000127A0000093D0008000020D8
:1024B8000400002021B1054B5A6910435861704748
:1024C800024A536923EA0000506170470010024035
:1024D80021B1054B9A69104398617047024A936984
:1024E80023EA0000906170470010024021B1054BBB
:1024F800DA691043D8617047024AD36923EA0000B9
:10250800D06170470010024021B1054BDA681043D2
:10251800D8607047024AD36823EA0000D060704749
:102528000010024021B1054B1A6910431861704729
:10253800024A136923EA0000106170470010024044
:102548002DE9F041038803F441570D884E888C88A3
:10255800B1F806800A89B1F80AC08B89B1F80EE093
:102568003543254348EA050414434CEA04021A4358
:102578004EEA02033B430380838B23F400631B046E
:102588001B0C83830B8A0382BDE8F08129B1038881
:102598009BB243F0400303807047038823F0400355
:1025A8001B041B0C0380704722B183889BB219431C
:1025B800818070478388C94389B2194081807047F8
:1025C80029B103889BB243F4005303807047038802
:1025D80023F400531B041B0C0380704730B4048C95
:1025E80024F001042404240C0484048B058CADB26B
:1025F80024F0F3042404240C1B019BB21A43144353
:10260800124B984212D003F5006398420ED0B0F1F5
:10261800804F0BD0A3F59833984207D003F5806319
:10262800984203D003F58063984205D125F002054E
:10263800294341F0010104E025F00A03194341F060
:1026480001010483018430BC704700BF002C0140A5
:1026580070B4048C24F010042404240C0484048B27
:10266800058CADB20E01B6B224F440742405240DD5
:102678001B039BB21C43120292B21443124B9842A2
:1026880012D003F5006398420ED0B0F1804F0BD002
:10269800A3F59833984207D003F58063984203D096
:1026A80003F58063984205D125F02001314341F0BC
:1026B800100104E025F0A005294341F0100104832E
:1026C800018470BC704700BF002C014070B4048CBA
:1026D80024F480742404240C0484848B058CAEB206
:1026E8000D02ADB224F0F3042404240C1B019BB2A8
:1026F8001A431443124B984212D003F500639842D0
:102708000ED0B0F1804F0BD0A3F59833984207D084
:1027180003F58063984203D003F58063984205D19E
:1027280026F40071294341F4807104E026F4206303
:10273800194341F480718483018470BC704700BFE1
:10274800002C014070B4058C25F480552D042D0C07
:102758000584858B048CA4B20E03B6B225F44075AB
:102768002D052D0D120292B215431B039BB21D437A
:10277800134B984212D003F5006398420ED0B0F183
:10278800804F0BD0A3F59833984207D003F58063A8
:10279800984203D003F58063984205D124F400548D
:1027A800344344F4805406E024F400746404640C54
:1027B8000C4344F480548583048470BC704700BF84
:1027C800002C014008B56F4B98420AD14FF40060C5
:1027D8000121FFF799FE4FF400600021FFF794FEF6
:1027E80008BDB0F1804F08D101200146FFF79AFEDD
:1027F80001200021FFF796FE08BD634B984208D1DF
:1028080002200121FFF78EFE02200021FFF78AFE39
:1028180008BD5E4B984208D104200121FFF782FED3
:1028280004200021FFF77EFE08BD594B984208D1CD
:1028380008200121FFF776FE08200021FFF772FE2D
:1028480008BD544B984208D110200121FFF76AFEB9
:1028580010200021FFF766FE08BD4F4B984208D1B3
:1028680020200121FFF75EFE20200021FFF75AFEFD
:1028780008BD4A4B98420AD14FF400500121FFF796
:1028880043FE4FF400500021FFF73EFE08BD444BC5
:1028980098420AD14FF400200121FFF735FE4FF48A
:1028A80000200021FFF730FE08BD3E4B98420AD1B8
:1028B8004FF480100121FFF727FE4FF4801000210C
:1028C800FFF722FE08BD384B98420AD14FF400109A
:1028D8000121FFF719FE4FF400100021FFF714FE45
:1028E80008BD324B984208D140200121FFF71AFE5B
:1028F80040200021FFF716FE08BD2D4B984208D155
:1029080080200121FFF70EFE80200021FFF70AFE3C
:1029180008BD284B98420AD14FF480700121FFF777
:1029280001FE4FF480700021FFF7FCFD08BD224B2B
:1029380098420AD14FF480300121FFF7E5FD4FF4AA
:1029480080300021FFF7E0FD08BD1C4B98420AD1FA
:102958004FF400300121FFF7D7FD4FF4003000217C
:10296800FFF7D2FD08BD164B984209D14FF48020DD
:102978000121FFF7C9FD4FF480200021FFF7C4FDB6
:1029880008BD00BF002C01400004004000080040C2
:10299800000C0040001000400014004000340140CA
:1029A800004C014000500140005401400018004014
:1029B800001C00400020004000400140004401404D
:1029C8000048014003889BB2214A904212D002F588
:1029D800006290420ED0B0F1804F0BD0A2F5983231
:1029E800904207D002F58062904203D002F58062DF
:1029F800904203D123F070034A881343154A90424A
:102A080008D002F58062904204D023F440739BB250
:102A1800CA88134303808B8883850B8803850C4BF6
:102A280098420FD003F5006398420BD003F540633A
:102A3800984207D003F58063984203D003F580637A
:102A4800984201D10B7A038601238382704700BF25
:102A5800002C01400010004030B4038C23F0010327
:102A68001B041B0C0384038C8488A4B2028B22F001
:102A780073021204120C0D882A4323F002031B046C
:102A88001B0C0D892B434D882B43144DA8420FD0A6
:102A980005F50065A8420BD005F54065A84207D0AA
:102AA80005F58065A84203D005F58065A8420DD1DB
:102AB80023F008034D892B4323F004038D882B430F
:102AC80024F440748D892C43CD892C43848002835F
:102AD800CA888286038430BC704700BF002C01403E
:102AE80030B4038C23F480531B041B0C0384038C25
:102AF8008588ADB2828B22F4E6421204120C0C884F
:102B08002402A4B2224323F400531B041B0C0C8997
:102B18002403A4B223434C882403A4B223430A4CBD
:102B2800A04203D004F50064A04205D125F48045F5
:102B38008C89A401A4B2254385808283CA88A0F821
:102B48004020038430BC7047002C014029B1038821
:102B58009BB243F0010303807047038823F001030D
:102B68001B041B0C0380704749B1B0F844306FEA6E
:102B780043436FEA53439BB2A0F844307047B0F820
:102B88004430C3F30E03A0F84430704722B1838960
:102B98009BB21943818170478389C94389B219401F
:102BA8008181704729B103889BB243F08003038079
:102BB8007047038823F080031B041B0C03807047B5
:102BC800038B23F008031B041B0C19430183704774
:102BD800838B23F400631B041B0C090289B20B438B
:102BE8008383704781867047A0F84010704700BF04
:102BF800038B23F00C031B041B0C0383038B9BB276
:102C080019430183704700BF038B23F440631B04FF
:102C18001B0C0383038B9BB2090289B219430183FE
:102C2800704700BF838B23F00C031B041B0C8383AA
:102C3800838B9BB219438183704700BF838B23F436
:102C480040631B041B0C8383838B9BB2090289B2EC
:102C580019438183704700BF38B505460C460B8879
:102C68004BB94988A2882389FFF7B8FC2846E18830
:102C7800FFF7BEFF38BD042B09D14988A2882389F4
:102C8800FFF7E6FC2846E188FFF7BEFF38BD082BB2
:102C980009D14988A2882389FFF718FD2846E188C9
:102CA800FFF7C0FF38BD4988A2882389FFF74AFD8E
:102CB8002846E188FFF7C2FF38BD00BFC94389B283
:102CC80001827047028A83890B40114202D01BB9E6
:102CD800002070470020704701207047C94389B21F
:102CE8000182704730B587B004460D46038A23F445
:102CF80040531B041B0CCA881343038283899BB26D
:102D080023F4B05323F00C01A8882A896B89024365
:102D180013430B43A381A38A23F440731B041B0CA6
:102D2800AA891343A38201A8FFF766FB1E4B9C42A6
:102D380001D1049B00E0039BA28912B2002A08DAA1
:102D480003EB830303EB830329684900B3FBF1F129
:102D580007E003EB830303EB830329688900B3FBD4
:102D6800F1F1124BA3FB012358090501642300FB71
:102D78001313A28912B2002A09DAD90032310B4A98
:102D8800A2FB0131C1F3421242EA050307E01B012D
:102D98003233064AA2FB0323C3F343132B439BB2EC
:102DA800238107B030BD00BF003801401F85EB51BB
:102DB80029B183899BB243F4005383817047838987
:102DC80023F400531B041B0C83817047C1F30801D3
:102DD800818070478088C0F30800704703881942D3
:102DE80001D0012070470020704700BF10B500F0E7
:102DF800E3FF1B281FD00D2803D10122344B1A7082
:102E080019E0082809D1334B1B68A3B1013B002105
:102E1800314AD1542F4A13600DE0A0F12003DBB2F0
:102E28005E2B53D82B4B1B68FF2B04D82A4AD0544F
:102E38000133284A1360264B1B78002B33D02748D0
:102E480003F05AFB264B1B68986802F071FE214B71
:102E58001B6873B1234C20482146002200F00AFA6F
:102E68002148214603F048FB1D4B1B68986802F077
:102E78005FFE194800214FF4807203F0EBFA00243A
:102E8800144B1C6019481A4903F036FB144B1B6895
:102E9800986802F04DFE01F079FA164B18600C4B59
:102EA8001C70012010BD134B186801F091FA01F055
:102EB80099FA01F0A5FA0D48074903F01DFB084BE4
:102EC8001B68986802F034FE012010BD002010BD78
:102ED80018000020580C0020580B00204C05010851
:102EE8005004002058090020A8ED0008C8FD00087B
:102EF800B0ED00085409002008B501F001F808BD3C
:102F080008B5FFF7F9FFFFF771FF642000F002FE34
:102F1800F9E700BF10B584B04FF4806300930DF15A
:102F28000F0009490022022300F086FE044601280A
:102F380004D0064800F088FF002402E0044800F0AE
:102F480061FF60B204B010BD092F0008C0ED000891
:102F5800E0ED000870B5C0B004460E466846002192
:102F68004FF4807203F076FA204603F04BFCB0F57C
:102F7800807F04DD134800F067FF00201FE0204633
:102F880003F040FC02466846214603F0B3FC68465D
:102F98000D4904F09DFC054648B9204603F032FC73
:102FA80002463046214603F0A5FC012007E003F065
:102FB80029FC02463046294603F09CFC012040B01B
:102FC80070BD00BF00EE00081CEE000870B5C0B070
:102FD80004460E46684600214FF4807203F03AFA20
:102FE800204603F00FFCB0F5807F04DD2A4800F08E
:102FF8002BFF00204DE0204603F004FC0246684603
:10300800214603F077FC002333606846292103F04A
:1030180035FB044608B1002303706846282103F0F5
:103028002DFBA8B324B91D4800F00EFF002030E0A6
:1030380001301B4904F04CFC044600F0D5FC30601C
:1030480022E0212000F028FD054620B9154800F0AF
:10305800FBFE00201DE0204603F0D4FBC2B22A701C
:10306800202A04D9104800F0EFFE002011E0681C67
:10307800214603F03FFC3068294600F0CBFC0020D5
:10308800074904F025FC0446002CDAD1012000E0B1
:10309800012040B070BD00BF00EE000820EE00081F
:1030A80058EE00085CEE000874EE00082DE9F041C7
:1030B80029B9174800F0C8FE0020BDE8F081804615
:1030C8000E46144B18881F2805D9134800F0BCFE7B
:1030D8000020BDE8F081114D00EB4000C0002844FD
:1030E8000130414603F030FB0A4F3C88404603F06C
:1030F80089FB04EB4403DB00E8543B8803EB430201
:10310800D20015446E6101333B800120BDE8F08197
:1031180098EE000864110020B8EE0008640E002044
:10312800F0B587B0002302930393049305930193AA
:1031380021B92E4800F088FE002454E005460E46CA
:1031480002A9FFF707FF044618B9294800F07CFEDA
:1031580049E0284601A9FFF739FF0446E0B92548A8
:1031680000F072FE3FE0244A6B002B44DB00D018CD
:10317800013002A9D25C03F073FB50B905EB45029C
:10318800D2001E4B13445B680198314698470746A6
:1031980009E00134A4B200E0002425B2184B1B88D2
:1031A8009D42E0DB0127164B1B889D4207D115483D
:1031B80000F04AFE3046144903F040FA0027019C0B
:1031C80008E0204600F052FC00F06AFC204600F0BF
:1031D80053FC0446204600F055FC0028F1D0019825
:1031E80000F00AFC3C4660B207B0F0BDE0EE000813
:1031F80004EF000818EF0008640E0020740E002089
:103208006411002030EF000844EF000870B584B066
:10321800154B1868002100F065FC144B186800F085
:10322800A9FB0128F4D0114B186800F0C3FB044631
:1032380018B90F4800F008FEEAE70068A16AFFF72E
:103248006FFF84F82C00684601F038F804F118067E
:103258009DE80F0086E80F00012384F82D30606890
:1032680000F038FCD4E700BF600E00205C0E0020A0
:1032780058EF00082DE9F04F99B00D9121B9594840
:1032880000F0E2FD0020AAE007461646302000F0D4
:1032980003FC044620B9544800F0D6FD00209EE007
:1032A800524B186800F05AFB012804D1504800F02E
:1032B800CBFD002093E04F4D284600214FF40072CB
:1032C80003F0C8F82760A56210AF384600F0F6FF93
:1032D80004F1080597E80F0085E80F00201D00F0AD
:1032E800E3FB002384F82D30404B1868214600F09A
:1032F8004BFB414B186800F0EDFB032208E06068C7
:10330800314600F0EFFB94F82D30EAB2012B05D0DE
:10331800531EDDB2002AF2D1012500E0002500236A
:10332800149315931693179394F92C30012B04D109
:1033380014A8324903F082F903E014A8304903F0D5
:103348007DF9D4E90623D4E90289CDE90E23B2EB4D
:10335800080863EB09094FEA89034FEA880643EA3C
:1033680098777B0143EAD6637201901B63EB0701F0
:1033780010EB080241EB0903DB0043EA5273D20069
:103388000A920B93D4E90889D4E904ABB8EB0A068E
:1033980069EB0B07A26AD4E90201CDE90001CDE986
:1033A80002ABDDE90E01CDE90401CDE90689DDE9CD
:1033B8000A0180197941CDE908010D98114914AB2A
:1033C80003F0D4F8606800F0A1FB204600F068FB29
:1033D80025B10D4800F038FD002000E0012019B0AB
:1033E800BDE8F08F78EF00089CEF00085C0E002025
:1033F800C4EF00085C0C0020600E0020DCEF000821
:10340800E4EF0008ECEF000810F0000810B584B0F5
:10341800174800214FF4407203F01CF80022154BA6
:103428001A80102000F080FA134B186020B9134856
:1034380000F00AFD002417E0114800F035FB4FF4B6
:10344800806300930DF10F000E490022022300F063
:10345800F3FB0446012804D00B4800F0F5FC0024D7
:1034680002E00A4800F0CEFC60B204B010BD00BF14
:10347800640E0020641100205C0E00202CF000086F
:10348800600E00201532000848F000086CF00008B3
:1034980030B587B06C46094D0FCD0FC495E80300D1
:1034A80044F8040B24F8021B090C217004486946EF
:1034B80000F0A8FC012007B030BD00BF94F0000860
:1034C800C8FD0008704700BF08B5024B186800F037
:1034D80001FB08BDF412002008B5044B1B68034427
:1034E80008461946FCF77CFE08BD00BF681100209D
:1034F80000B589B0002106E02F4B1B685B5CA52B4B
:1035080003D0013189B21F29F6D92B4B1B6805A8B6
:1035180019440922FCF764FEB5238DF80430BDF880
:103528001530ADF8053000238DF8073001228DF8ED
:1035380008208DF809308DF80A308DF80B308DF899
:103548000C308DF80D308DF80E309DF81830934200
:1035580005D100238DF80F308DF8103003E0BDF849
:103568001B30ADF80F30154B186801A90D22FCF778
:1035780037FE9DF818306BB9104B1968BDF8190063
:103588000D31BDF81B20FFF7A7FFBDF81B000D305C
:1035980080B200E00D200022134605E007490968C3
:1035A800C95C4A4001339BB28342F7D3034B1B6883
:1035B8001A5409B05DF804FBEC120020F012002048
:1035C80008B5034B1B681844FCF70AFE08BD00BF8A
:1035D80068110020F0B585B0002406E0214B1B6877
:1035E8001B5DA52B03D00134A4B21F2CF6D91E2CC9
:1035F80035D81C4B196801A821440922FCF7F0FDB5
:103608009DF808305BB3BDF80960BDF80B70154B29
:103618001B6809341C44304621463A46FFF7D0FF60
:10362800002519E02AB202EB42039B000E49CB5A4F
:10363800B3420FD102EB42039B000B441B7A012BD0
:1036480008D102EB420292000A44536830462146F0
:103658003AB298470135ADB22BB21F2BE2DD05B067
:10366800F0BD00BFEC1200206C11002008B5044B1F
:103678001868002100F036FAFFF7ACFFF7E700BF43
:10368800F412002084B030B585B0044609A880E85B
:103698000E00BDF94C0000F0FFF92B4B1860002814
:1036A80044D09DF8283073B9202000F0F5F9274D53
:1036B8002860202000F0F0F9254B18602B68002BBB
:1036C80036D0002836D0224B1B680D931F4B1B6841
:1036D8000B932023ADF83830ADF8303001238DF846
:1036E80028301C4B10931C4B11931C4B12932046F3
:1036F80009A900F07DF801281ED1194800F0D4F975
:103708004FF4806300930DF10F0016490022022345
:1037180000F092FA0446012804D0134800F094FB04
:1037280000240AE0114800F06DFB06E0002404E0E4
:10373800002402E0002400E0002460B205B0BDE8E7
:10374800304004B0704700BF68110020F01200201C
:10375800EC120020CD340008F9340008D1340008F8
:10376800F412002075360008F4010108140201085B
:1037780030B4002317E01CB204EB440292001B4D46
:10378800AA5A82420DD104EB440292002A44127ACA
:10379800012A06D104EB4404A4002C4461600120F2
:1037A80022E001339BB21AB21F2AE4DD002213E0A3
:1037B80010B200EB40039B000C4C23441B7A4BB91E
:1037C8002246440023189B001344596018460123DD
:1037D800037205E0013292B213B21F2BE8DD002319
:1037E8000BB9002000E0012030BC70476C110020AC
:1037F80070B584B00546C3B2012B15D80C46A9B1E3
:103808008E6901AB01F11C0207CA83E807006369EE
:103818000093231D0FCBB047012809D1064B43F86D
:1038280025400123237004E0002002E0002000E08E
:10383800002040B204B070BDF812002038B505462B
:10384800C3B2012B0ED80C4671B18B6873B11B68DB
:1038580008689847034650B1064B43F825400123B2
:10386800237104E0002302E0002300E0002358B2A3
:1038780038BD00BF00130020F8B51C46C3B2012BA9
:1038880019D80D461646C1B1CCB1114B53F82030AA
:10389800BBB11A79BAB19F6807E0BB6800B2284487
:1038A800984790B1238801332380208803B2B3421C
:1038B800F3D10120F8BD0020F8BD0020F8BD00209C
:1038C800F8BD0020F8BD0020F8BD0120F8BD00BFFC
:1038D80000130020F8B51C46C3B2012B18D80D46BA
:1038E8001646B9B1C4B10F4B53F82030B3B11A79A9
:1038F800B2B19F6806E07A681BB2E85C90472388FB
:103908000133238023881AB2B242F4D10120F8BDD2
:103918000020F8BD0020F8BD0020F8BD0020F8BD4B
:103928000020F8BD0013002038B505460C2000F033
:10393800B3F888B10446A80000F0AEF8206020B9BA
:10394800204600F0ADF8002038BD65810023A38033
:10395800E3802381204638BD002038BD28B1428944
:1039680003899A4203D10120704701207047002043
:10397800704700BF18B103891BB1002070470020B1
:1039880070470120704700BF034688B181B10268C3
:10399800C08842F82010DA88501C5989884202D120
:1039A8000022DA8001E00132DA801A8901321A81B4
:1039B800704700BF90B110B403460168828851F87F
:1039C8002200541C59898C4202D100229A8001E0BD
:1039D80001329A801A89013A1A8101E00020704761
:1039E8005DF8044B704700BF08B5082000F054F894
:1039F80000220260426008BD034630B970475C6827
:103A0800184600F04DF8234600E010B5002BF6D11B
:103A180010BD00BF90B138B50D46044669B1082005
:103A280000F03AF8024640B105600023436000E028
:103A38001C466368002BFBD1626038BD704700BF2D
:103A48004368002002E0013080B25B68002BFAD1A5
:103A580000B270474268002304E08B4204D001336F
:103A68009BB25268002AF8D11068704708B1006804
:103A780070470020704700BF08B1406870470020B9
:103A8800704700BF18B143681BB901207047012077
:103A980070470020704700BF08B501F00FFF08BD50
:103AA80008B501F069FF08BD10B5044601200021E2
:103AB800032201F0F3FC206020B100210A460B46E6
:103AC80001F01CFD2068002101220B4601F09CFD3D
:103AD80010BD00BF08B500210A460B4601F00EFDD7
:103AE80008BD00BF10B5044649B9204600214FF073
:103AF800FF320B4601F088FD0128F6D110BD0A46B9
:103B080000210B4601F080FD10BD00BF08B501F093
:103B18000DFE08BD38B50546002403E0012001F07C
:103B28001DFA0134AC42F9D338BD00BF00220AE0C7
:103B380053B2C3EBC3039B000649CB5C0BB9D0B2AD
:103B480005E00132D2B253B20F2BF1DDFF2040B2B3
:103B5800704700BF0C1300202DE9F04184B0304BB2
:103B68001868FFF7B7FF2F4800F09CF902270426D2
:103B78002B4B18680021FFF7B5FF00244CE065B215
:103B8800C5EBC5039B00284AD35C012B42D1C5EB8A
:103B9800C5039B0013441B7A013B032B03D8DFE8C2
:103BA80003F014050B114FF0020810E0022F01DC9E
:103BB8000137FFB2B8460AE0052E01D80136F6B241
:103BC800B04604E04FF0070801E04FF00108EB00B1
:103BD8005B1B9B00144A13441869191D9A895B6979
:103BE800CDF8008001910021029103910F4900F066
:103BF800D9FF012804D00E48414600F025F9B7E75F
:103C0800C5EBC505AD000222074B5A550948414688
:103C180000F048F90134E4B263B20F2BAFDDA7E737
:103C280008130020340201080C1300200CF00008CF
:103C38005002010878020108F8B520B10C46174671
:103C48001E46054621B9124800F0FEF80020F8BDCE
:103C5800FFF76CFFB0F1FF3F04D10E4800F0F4F815
:103C68000020F8BD0C49C200131A9B000B441C61CC
:103C78005F611E72069CDC602870131A9B00012489
:103C8800CC54064895F9001000F00CF92046F8BD10
:103C9800A8020108D40201080C130020F802010848
:103CA80000B587B00F48FFF7FFFE0123009305AB6F
:103CB80001930023029303930B480C494FF480723D
:103CC80000F070FF012804D0094800F0BDF800207A
:103CD80005E0084800F0E6F801F00CF8012007B00C
:103CE8005DF804FB08130020613B00083403010859
:103CF8003C030108580301080346094A126812B92F
:103D08000849074A1160064A106803446A46934204
:103D180002D8034A136070474FF0FF30704700BF66
:103D2800D0140020246700204FF400534B6000207B
:103D3800704700BF022801D8012070470020704753
:103D4800002070474FF0FF30704700BF08B530B112
:103D5800054B186003689847034610B902E0002332
:103D680000E0012358B208BDCC14002010B5044669
:103D7800034B1B685B6803B19847204610BD00BF22
:103D8800CC14002008B5C0B2FFF7F0FF08BD00BF93
:103D9800012807D00DE04D1C0878FFF7F3FF013428
:103DA800294602E070B516460024B442F3DB3046DB
:103DB80070BD4FF0FF30704700B583B0054B1B68EE
:103DC8009B6813B10DF1070098479DF8070003B0F1
:103DD8005DF804FBCC14002008B5FFF7EDFF08BD23
:103DE80030B10CE0FFF7F8FF28700134013502E02C
:103DF80038B50D460024002CF4DD012038BD4FF005
:103E0800FF3070470FB430B5C3B046AC54F8045B0C
:103E180001A800214FF4807202F01CFB419401A814
:103E28002946224607F0C6FA002805DB01A802F059
:103E380063FB044802F060FB43B0BDE8304004B0C7
:103E4800704700BF4C0501080FB430B5C3B046AC8D
:103E580054F8045B01A800214FF4807202F0FAFACA
:103E6800419401A82946224607F0A4FA00280DDB50
:103E7800094828211F2200F0D1FA084802F03CFB2B
:103E880001A802F039FB064802F036FB43B0BDE852
:103E9800304004B0704700BF740301087C03010878
:103EA800800301080FB430B5C3B046AC54F8045BC6
:103EB80001A800214FF4807202F0CCFA419401A8C5
:103EC8002946224607F076FA00280DDB0948282102
:103ED800202200F0A3FA084802F00EFB01A802F025
:103EE8000BFB064802F008FB43B0BDE8304004B0C5
:103EF800704700BF840301087C03010880030108A0
:103F0800F0B5C1B0684600214FF4807202F0A2FA01
:103F1800CF4802F0F1FACF4802F074FC083087B2BB
:103F2800002405E06846CC4902F088FB0134E4B27D
:103F38007D080135AC42F5DBC848694602F0DCFA79
:103F4800684600214FF4807202F084FA6846C4493A
:103F580002F074FB684602F055FCC6B205E06846FC
:103F6800C04902F06BFB0136F6B27C1EA642F6DBB6
:103F7800BB4E6846314602F061FBB848694602F01C
:103F8800BBFA684600214FF4807202F063FA684673
:103F9800314602F053FBB34E6846314602F04EFB01
:103FA8006846314602F04AFB6846314602F046FB55
:103FB8006846314602F042FB6846AB4902F03EFBD8
:103FC8006846AA4902F03AFB684602F01BFCC6B2F2
:103FD80005E06846A34902F031FB0136F6B2B44267
:103FE800F7DC9F4E6846314602F028FB9B4869463D
:103FF80002F082FA684600214FF4807202F02AFA31
:104008006846314602F01AFB684602F0FBFBC6B26E
:1040180005E06846934902F011FB0136F6B2B44256
:10402800F7DC8F4E6846314602F008FB8B4869463C
:1040380002F062FA684600214FF4807202F00AFA30
:104048006846314602F0FAFA864E6846314602F072
:10405800F5FA6846314602F0F1FA6846314602F050
:10406800EDFA6846314602F0E9FA6846804902F0FE
:10407800E5FA68467F4902F0E1FA684602F0C2FBB9
:10408800C6B205E06846774902F0D8FA0136F6B2BA
:10409800B442F7DC724E6846314602F0CFFA6F48F8
:1040A800694602F029FA684600214FF4807202F04E
:1040B800D1F96846314602F0C1FA684602F0A2FB1F
:1040C800C6B205E06846674902F0B8FA0136F6B2AA
:1040D800B442F7DC624E6846314602F0AFFA5F48F8
:1040E800694602F009FA684600214FF4807202F02E
:1040F800B1F96846314602F0A1FA5A4E684631468F
:1041080002F09CFA6846314602F098FA6846314651
:1041180002F094FA6846314602F090FA6846564929
:1041280002F08CFA6846554902F088FA684602F0AF
:1041380069FBC6B205E068464A4902F07FFA0136D3
:10414800F6B2B442F7DC464E6846314602F076FADB
:104158004248694602F0D0F9684600214FF480725F
:1041680002F078F96846314602F068FA684602F0CB
:1041780049FBC6B205E068463A4902F05FFA0136E3
:10418800F6B2B442F7DC364E6846314602F056FACB
:104198003248694602F0B0F9684600214FF480724F
:1041A80002F058F96846314602F048FA2D4E684642
:1041B800314602F043FA6846314602F03FFA684653
:1041C800314602F03BFA6846314602F037FA684653
:1041D800204902F033FA684602F014FBC6B205E043
:1041E8006846204902F02AFA0136F6B2B442F7DCF2
:1041F8001B4E6846314602F021FA1848694602F01B
:104208007BF9684600214FF4807202F023F9684672
:10421800314602F013FA684602F0F4FAC6B205E035
:104228006846104902F00AFA0136F6B2B442F7DCE1
:1042380068460B4902F002FA0848694602F05CF940
:10424800684600214FF4807202F004F900241DE052
:104258004C050108F4030108240401082804010896
:104268003004010844040108340401084804010822
:104278005004010868040108700401088804010852
:1042880068460B4902F0DAF90134E4B2A542F7DCDA
:104298000848694602F030F9684600214FF48072F8
:1042A80002F0D8F8044802F027F941B0F0BD00BF89
:1042B80024040108280401084C05010810B4044628
:1042C800034B0FCB84E80F0020465DF8044B704782
:1042D800D814002082B070B582B0044606A981E8DF
:1042E8000C00C3B2012B16D80A9B00930FC90B9D73
:1042F800A8470546012810D104EB8404E4000A4BC2
:104308001C4406AE0FCE0FC40FCE0FC496E80300B0
:1043180084E8030002E0002500E0002568B202B04E
:10432800BDE8704002B07047E814002070B504463C
:10433800C3B2012B14D800EB8003DB00094A1344F5
:1043480093F8203063B9154686003318DB00134410
:104358009B6998473444E4002C44012384F82030B6
:1043680070BD00BFE814002008B503460A4605489A
:10437800194602F0C1F8044B1B68986801F0D8FB95
:1043880008BD00BFC80401085004002000B583B070
:104398000C4802F0B1F80C4B1B68986801F0C8FB98
:1043A8000A4869460DF1020202F0CCF8009B002091
:1043B8009AB262F30F001B0C63F31F4003B05DF861
:1043C80004FB00BFD404010850040020DC040108E9
:1043D80000B583B00190011400B2FFF7C5FF03B028
:1043E8005DF804FB08B5044802F086F8034B1B6827
:1043F800986801F09DFB08BDF804010850040020EE
:1044080008B5044802F078F8034B1B68986801F077
:104418008FFB08BD040501085004002008B50346B9
:10442800044802F069F8044B1B68986801F080FBA7
:1044380008BD00BF280501085004002008B501F098
:10444800FFF908BD08B50248FFF7FEFCFEE700BF0C
:104458003805010808B5FFF7F5FF00BF08B5FFF7F5
:10446800F1FF00BF08B5FFF7EDFF00BF08B5FFF784
:10447800E9FF00BF08B5FFF7E5FF00BF08B5FFF784
:10448800E1FF00BF08B5FFF7DDFF00BF08B5FFF784
:10449800D9FF00BF08B5FFF7D5FF00BF08B5FFF784
:1044A800D1FF00BF08B5FFF7CDFF00BF08B5FFF784
:1044B800C9FF00BF08B5FFF7C5FF00BF08B5FFF784
:1044C800C1FF00BF08B5FFF7BDFF00BF08B5FFF784
:1044D800B9FF00BF08B5FFF7B5FF00BF08B5FFF784
:1044E800B1FF00BF08B5FFF7ADFF00BF08B5FFF784
:1044F800A9FF00BF08B5FFF7A5FF00BF08B5FFF784
:10450800A1FF00BF08B5FFF79DFF00BF08B5FFF783
:1045180099FF00BF08B5FFF795FF00BF08B5FFF783
:1045280091FF00BF08B5FFF78DFF00BF08B5FFF783
:1045380089FF00BF08B5FFF785FF00BF08B5FFF783
:1045480081FF00BF08B5FFF77DFF00BF08B5FFF783
:1045580079FF00BF08B5FFF775FF00BF08B5FFF783
:1045680071FF00BF08B5FFF76DFF00BF08B5FFF783
:1045780069FF00BF08B5FFF765FF00BF08B5FFF783
:1045880061FF00BF08B5FFF75DFF00BF08B5FFF783
:1045980059FF00BF08B5FFF755FF00BF08B5FFF783
:1045A80051FF00BF08B5FFF74DFF00BF08B5FFF783
:1045B80049FF00BF08B5FFF745FF00BF08B5FFF783
:1045C80041FF00BF08B5FFF73DFF00BF08B5FFF783
:1045D80039FF00BF08B5FFF735FF00BF08B5FFF783
:1045E80031FF00BF08B5FFF72DFF00BF08B5FFF783
:1045F80029FF00BF08B5FFF725FF00BF08B5FFF783
:1046080021FF00BF08B5FFF71DFF00BF08B5FFF782
:1046180019FF00BF704700BFFEE700BFFEE700BFFD
:10462800FEE700BFFEE700BF704700BF70B58CB063
:1046380001200146FDF73EFF1E4D2846FDF79EFD71
:104648001D4B01931D4B5A68029210220392B3F935
:104658000830049300240594802306930794089453
:1046680009944FF400530A930B94284601A9FDF7C7
:1046780019FE134802210122FDF796FF0F238DF83A
:1046880000308DF801408DF8024001268DF8036056
:104698006846FDF731FD284602213246FDF730FE17
:1046A8004FF40030FDF748FE28462146FDF71AFE74
:1046B8000CB070BD580002400C3800404415002072
:1046C8000038004070B58CB001200146FDF7F2FEBD
:1046D8001D4D2846FDF752FD1C4B01931C4BDA6813
:1046E800029200240394B3F91030049305948023B4
:1046F80006930794089409944FF400560A960B946D
:10470800284601A9FDF7CEFD124801210A46FDF70A
:104718004BFF0E238DF800308DF8014001248DF8F1
:1047280002408DF803406846FDF7E6FC2846022162
:104738002246FDF7E5FD3046FDF7FEFD28462146F9
:10474800FDF7D0FD0CB070BD440002400C380040AD
:10475800441500200038004008B5FFF767FFFFF751
:10476800B1FF02480121FDF711FF08BD00380040E4
:1047780010B586B04FF480400121FDF7B7FE082040
:104788000121FDF7A5FE4FF43043ADF814300423A2
:104798008DF8173003238DF81630184C204605A9DC
:1047A800FDF7D8FD4FF48043ADF8143018238DF889
:1047B8001730204605A9FDF7CDFD0021ADF8001002
:1047C800ADF80210ADF804100223ADF8063001234D
:1047D800ADF80830ADF80A10ADF80C10ADF80E10B1
:1047E8000723ADF81030A4F554442046FDF7E8FE41
:1047F80020466946FDF7A4FE06B010BD000C014036
:1048080030B583B04FF40050FDF784FD012817D16F
:104818004FF40050FDF790FD0A4D2B680A4CE068F4
:10482800B4F9101098476B6860680DF10601984755
:1048380006480121FDF756FD05480021FDF752FD08
:1048480003B030BD38150020441500205800024040
:104858004400024008B54FF40030FDF75BFD012825
:1048680008D14FF40030FDF767FD034B9B6898476C
:10487800FFF772FF08BD00BF3815002084B038B5B7
:1048880004AC84E80F00079BDBB1059BDBB1099BF7
:10489800DBB10A9BDBB10B9BDBB1104C04AD0FCD38
:1048A8000FC42B6823600E4B09AA07CA83E80700C8
:1048B800FFF75EFFFFF750FF0A48FFF7F3FA012002
:1048C80008E0002006E0002004E0002002E00020CC
:1048D80000E00020BDE8384004B0704744150020CF
:1048E800381500205005010808B507480121FEF7D2
:1048F800E9F938B104480121FEF7F0F9034B1B68C8
:1049080003B1984708BD00BF000C004058150020AF
:10491800F0B589B08DE80F000E9D002D77D0DDE948
:10492800006756EA07030BD1DDE90223002B08BF15
:10493800B2F57A7F04D23748FFF786FA002067E09D
:1049480008200121FDF7D2FD3348FDF73BFF322354
:104958008DF8103002238DF8113001238DF81230B4
:104968008DF8133004A8FDF7C7FB56EA07031CD0DF
:104978002A4B1C68DDE90201294A0023FCF714FBD5
:1049880036184F41A4FB060104FB0711254BA3FB76
:104998000434A40922460023FCF706FB0138ADF8CD
:1049A8001800013CADF814401AE01C4B1C68DDE906
:1049B80002011B4A0023FCF7F7FA0B46A4FB00018F
:1049C80004FB0311184BA3FB0434A40C2246002358
:1049D800FCF7EAFA0138ADF81800013CADF81440CC
:1049E8000024ADF81A40ADF816400B4E304605A924
:1049F800FDF7E8FF304601212246FEF7C7F83046AA
:104A08002146FEF7A3F8094B1D60012000E00020B5
:104A180009B0F0BD64050108000C0040000000204A
:104A280040420F00D34D621083DE1B43581500200F
:104A380010B5054C204601210A46FEF7A7F8204686
:104A48000121FEF783F810BD000C004010B5054C9D
:104A5800204601210022FEF799F820460021FEF7A2
:104A680075F810BD000C004010B50446006B00F04E
:104A780083FF204600F080FF10BD00BF70B50646DA
:104A88000C464C2000F01AFF054680B11CB9B00056
:104A980000F014FF00E02046286320B9284600F003
:104AA8006BFF002503E0A521B20001F0D3FC2846E6
:104AB80070BD00BF38B5044615463430102201F0E9
:104AC80019FF002384F84330072D00D90725E56234
:104AD800201D00F0CDFB04F1180000F0C9FB246193
:104AE800C5F10805A561646238BD00BF38B500246A
:104AF80006E014200E4B00FB043000F0ADFB01343F
:104B0800072CF6D90B4D284600F0A6FB0A4C204688
:104B180000F0A2FB094800F09FFB094800F09CFB4D
:104B2800084800F099FB084B1D60084B1C6038BD15
:104B38008815002054160020681600203016002022
:104B48007015002080160020641500204C160020E7
:104B580010B504460E4B1B6858600E4B1B689842F4
:104B680007D20D4B18680A4B1968043100F092FB04
:104B780010BD0A4B1868064B1968043100F08AFB0F
:104B8800074B1B689C4201D2054B1C6010BD00BF3F
:104B98002C160020481600204C1600206415002012
:104BA8001C0000202DE9F04F83B00C9EDDF8348006
:104BB80040B94748474940F2EB1201F09DFC00F02C
:104BC800FFFDFEE78B46174699468246072E08D911
:104BD8003F4840494FF4F67201F08EFC00F0F0FDBA
:104BE800FEE710460E99FFF749FF044600285DD0FE
:104BF800036B07F18045013D03EB850323F00705AF
:104C08000097594632460F9BFFF754FF28465146F6
:104C18004A4600F0AFFD206010F0070F08D02C487E
:104C28002C494FF40C7201F067FC00F0C9FDFEE757
:104C3800B8F1000F01D0C8F8004000F0C9FD264ABD
:104C4800136801331360254B1B683BB9234B1C6069
:104C58001368012B0CD1FFF749FF09E0204B1B68B3
:104C680033B91E4B1B68DB6AB34201D81B4B1C606F
:104C7800E06A1C4B1B68984201D91A4B18601A4A03
:104C88001368636401331360184B1B68984201D999
:104C9800164B186000EB80008000154B1844211D4E
:104CA80000F0EAFA00F0A2FD012401E04FF0FF3421
:104CB800012C09D10A4B1B6833B1084B1B68DB6A0E
:104CC800B34201D200F074FD204603B0BDE8F08F76
:104CD800A0050108B8050108281600202C16002098
:104CE8006815002094160020501600208415002016
:104CF8008815002010B584B0002300930193029317
:104D080003930F480F498022FFF74CFF0446012800
:104D180009D100F055FD01220B4B1A6000220B4B04
:104D28001A6000F0B3FD44B909480A4940F212522A
:104D380001F0E2FB00F044FDFEE704B010BD00BF47
:104D4800F14F00080C0601086815002048160020DD
:104D5800A0050108B8050108024A13680133136069
:104D6800704700BF4416002038B5354B1B68002B30
:104D780060D1344B1A6801321A601B682BBB324B66
:104D88001B681B6843B13148314940F28B6201F01E
:104D9800B3FB00F015FDFEE72B4B19682D4A106890
:104DA800186011602C490A6801320A601B681B6888
:104DB80023B94FF0FF32294B1A6006E0224B1B68DB
:104DC800DB68DB685A68254B1A601E4B1A68234B50
:104DD8001B689A4232D31C4B1B681B6823B94FF0DF
:104DE800FF321E4B1A6038BD174B1B68DB68DC6846
:104DF8006368144A12689A4202D2184A136038BD8E
:104E0800251D284600F062FAA36A1BB104F11800B8
:104E180000F05CFAE06A124B1B68984201D9104B0B
:104E2800186000EB800080000E4B1844294600F003
:104E380023FAD0E70C4A13680133136038BD00BF6A
:104E4800441600204816002064150020A00501081B
:104E5800B80501084C160020601500201C00002031
:104E680084150020881500205C15002070B5314B92
:104E78001B6843B93048314940F24C5201F03CFBC1
:104E880000F09EFCFEE700F0A3FC2A4B1A68013AEA
:104E98001A601B68002B46D1294B1B681BBB0024DA
:104EA80044E0284BDB68DC6804F1180000F00EFAD7
:104EB800261D304600F00AFAE06A234B1B68984228
:104EC80001D9214B186000EB800080001F4B18446B
:104ED800314600F0D1F9E26A1D4B1B68DB6A9A4241
:104EE80002D3012500E00025164B1B68002BD8D102
:104EF800184B1B6833B90AE0FFF736FF154A1368E9
:104F0800013B1360134B1B68002BF5D101251DB91C
:104F1800114B1B68012B08D100220F4B1A6000F0BF
:104F280047FC012402E0002400E0002400F05EFCBD
:104F3800204670BD44160020A0050108B8050108E8
:104F4800281600203016002084150020881500201F
:104F58002C1600205C1500207C16002010B580B1AE
:104F68000446FFF7F9FE094B1B681C44084B1868F8
:104F7800043000F0ABF92046FFF7EAFDFFF776FFB3
:104F880000E0002008B900F013FC10BD481600200E
:104F98002C16002010B51BE0FFF7DEFE0F4B1C6837
:104FA800FFF764FFA4B100F013FC0C4BDB68DC686E
:104FB800201D00F08BF90A4A1368013B1360094A67
:104FC8001368013B136000F011FC2046FFF74CFD0D
:104FD800044B1B68002BDFD110BD00BF70150020EB
:104FE800281600206C15002008B5FFF7D3FF034BE7
:104FF8001B68012BF9D900F0DBFBF6E788150020C8
:1050080010B5204B1B689BB101221F4B1A6010BDC5
:105018001E4B1B6843B91E481E4940F23D7201F001
:105028006BFA00F0CDFBFEE7184A1368013B1360EA
:10503800164B1B6803EB83039B00174AD358002BBE
:10504800E6D0124B1B6814469A00D11889002144F7
:105058004868406848601A449200083222449042E6
:1050680005D1416803EB830292002244516003EBAF
:1050780083039B00084A13445B68DA68074B1A608D
:1050880010BD00BF441600207C16002084150020A7
:10509800A0050108B8050108881500202C16002075
:1050A80038B540B9104811494FF4E96201F024FAC3
:1050B80000F086FBFEE70C460D4D2968183100F01C
:1050C800E9F82868043000F001F9B4F1FF3F05D190
:1050D80029680848043100F0CFF838BD064B186835
:1050E8002044FFF735FD38BDA0050108B8050108C3
:1050F8002C160020801600204816002038B5C368FA
:10510800DC6844B919481A4940F2B47201F0F4F95C
:1051180000F056FBFEE704F11805284600F0D6F823
:10512800144B1B689BB9251D284600F0CFF8E06A90
:10513800114B1B68984201D90F4B186000EB800097
:1051480080000E4B1844294600F096F803E00C48FE
:10515800294600F091F8E26A0A4B1B68DB6A9A421A
:1051680001D3012038BD002038BD00BFA0050108CB
:10517800B805010844160020841500208815002071
:10518800301600202C16002008B540B907480849F9
:1051980040F2D67201F0B0F900F012FBFEE7054AC2
:1051A80012680260044A1268426008BDA00501083E
:1051B800B8050108601500204816002038B540B928
:1051C8001E481F494FF4FC6201F096F900F0F8FA06
:1051D800FEE70D46044641B91848194940F2E17204
:1051E80001F08AF900F0ECFAFEE700F0F1FA2B681A
:1051F800B3F1FF3F18D02168124A1268914204D0D7
:105208006168114A1268914210D90F4A11686068A2
:10521800091A8B420CD91268121A9B1A2B60204665
:10522800FFF7B2FF002404E0002402E0012400E0BC
:10523800012400F0DBFA204638BD00BFA0050108B4
:10524800B805010860150020481600200122014B0E
:105258001A6070477C16002000F1080343604FF085
:10526800FF328260C360036100230360704700BFA0
:1052780000230361704700BF43685A684A60426868
:105288008A605A6891605960416008610368013317
:105298000360704710B40C68B4F1FF3F01D1036993
:1052A80007E000F1080300E05B685A681268A24250
:1052B800FAD95A684A6091608B605960086103683E
:1052C800013303605DF8044B704700BF4368826890
:1052D8009A60836842685A6003695A68824201D1B9
:1052E80082685A60002202611A68013A1A601868D6
:1052F800704700BF00230BE0074A02EBC302526865
:10530800824204D10021044A42F833107047013325
:10531800072BF1D9704700BFE066002010B504469E
:1053280000F056FAA36BE46BA34214BF00240124D7
:1053380000F05CFA204610BD10B5044600F048FAAB
:10534800A46BB4FA84F4640900F050FA204610BD46
:1053580010B50446036CEBB16AB980681A46FAF7CF
:105368003FFFA268236C1344A3606268934211D381
:105378002368A3600EE0C0681A46FAF731FF236C71
:105388005B42E2681A44E26021688A4202D262689B
:105398001344E360A36B0133A36310BD38B5034620
:1053A800006858B11A6CDC681444DC605D68AC4273
:1053B80000D3D8600846D968FAF712FF38BD00BF95
:1053C80010B5044600F004FA0BE0636A63B104F117
:1053D8002400FFF793FE08B1FFF738FFA36C013BE9
:1053E800A364A36C002BF0DC4FF0FF33A36400F040
:1053F800FDF900F0EDF90BE0236963B104F1100049
:10540800FFF77CFE08B1FFF721FF636C013B636483
:10541800636C002BF0DC4FF0FF33636400F0E6F9B7
:1054280010BD00BF38B540B91A481B4940F21B12DD
:1054380001F062F800F0C4F9FEE70D46044600F0FA
:10544800C7F92168E26B236C03FB0210606000203F
:10545800A063A160013A02FB0313E3604FF0FF333E
:105468006364A36455B9236983B104F11000FFF79D
:1054780045FE01280AD100F09BF907E004F110006D
:10548800FFF7EAFE04F12400FFF7E6FE00F0AEF9AC
:10549800012038BDA005010814060108F8B5E0B1DF
:1054A8000D4617460646502000F008FA0446A8B1F3
:1054B80005FB06F0013000F001FA206040B1E66318
:1054C800256420460121FFF7ADFF84F84D7005E003
:1054D800204600F051FA002400E0002444B90548B1
:1054E800054940F2711201F007F800F069F9FEE78A
:1054F8002046F8BDA005010814060108F0B585B0DE
:10550800019240B93E483F494FF4127200F0F4FF4F
:1055180000F056F9FEE70E461F46044619B9036C1B
:105528001BB9012302E0012300E0002343B93448FA
:10553800344940F2492200F0DFFF00F041F9FEE76C
:10554800002500F045F9A26BE36B9A4212D220467F
:1055580031463A46FFF7FCFE636A3BB104F124008A
:10556800FFF7CCFD012801D100F022F900F03EF947
:10557800012042E0019B1BB900F038F900203CE013
:105588001DB902A8FFF700FE012500F02FF9FFF76B
:10559800E3FB00F01DF9636CB3F1FF3F01D1002379
:1055A8006364A36CB3F1FF3F01D10023A36400F04F
:1055B8001DF902A801A9FFF701FEC0B92046FFF7AF
:1055C800ADFE70B104F110000199FFF769FD2046A6
:1055D800FFF7F6FEFFF74AFC0028B2D100F0E8F822
:1055E800AFE72046FFF7ECFEFFF740FCA9E72046AF
:1055F800FFF7E6FEFFF73AFC002005B0F0BD00BF5C
:10560800A005010814060108F0B585B0019240B95B
:105618004448454940F2CB3200F06EFF00F0D0F824
:10562800FEE70E461F46044619B9036C1BB9012351
:1056380002E0012300E0002343B93A483A494FF415
:10564800737200F059FF00F0BBF8FEE7002500F088
:10565800BFF8A36B0BB3E56820463146FFF79EFE03
:105668006FB9A36B013BA363236993B104F11000E5
:10567800FFF744FD01280CD100F09AF809E0E56035
:10568800636A33B104F12400FFF738FD08B100F074
:105698008FF800F0ABF8012042E0019B1BB900F045
:1056A800A5F800203CE01DB902A8FFF76DFD012513
:1056B80000F09CF8FFF750FB00F08AF8636CB3F138
:1056C800FF3F01D100236364A36CB3F1FF3F01D115
:1056D8000023A36400F08AF802A801A9FFF76EFD71
:1056E800C0B92046FFF728FE70B104F124000199E3
:1056F800FFF7D6FC2046FFF763FEFFF7B7FB00284D
:10570800A5D100F055F8A2E72046FFF759FEFFF7AC
:10571800ADFB9CE72046FFF753FEFFF7A7FB0020F1
:1057280005B0F0BDA00501081406010810B540B980
:1057380009480A4940F2AF4200F0DEFE00F040F8A6
:10574800FEE70446FFF7D6FD206800F015F920466D
:1057580000F012F910BD00BFA005010814060108E9
:1057680003480068006880F3088862B600DF00BF5D
:1057780008ED00E04FF0807340F8043C40F8081C46
:10578800002340F80C3C40F8202C4038704700BFFC
:10579800064B19680868B0E8F00F80F309884FF0E5
:1057A800000080F311884EF00D0E70472C16002073
:1057B8004FF08052014B1A60704700BF04ED00E0C3
:1057C800EFF311804FF0500181F3118870470020EA
:1057D80008B5FFF7F5FF024A13680133136008BDE7
:1057E8002000002080F31188704700BF08B5044AE4
:1057F8001368013B136013B90020FFF7F3FF08BDDE
:1058080020000020EFF309800C4B1A6820E9F00F04
:1058180010602DE908404FF0500080F31188FFF721
:10582800EFFB4FF0000080F31188BDE808401968CD
:105838000868B0E8F00F80F3098870472C1600203C
:1058480008B54FF08052054B1A60FFF7B9FFFFF714
:105858008BFA0020FFF7C6FF08BD00BF04ED00E08B
:10586800064B1B68064AA2FB03239B09013B054A1A
:1058780013600722044B1A60704700BF0000002025
:10588800D34D621014E000E010E000E010B5094BC1
:105898001A6842F470021A601A6842F070421A607C
:1058A800FFF7DEFF0024044B1C60FFF759FF20467A
:1058B80010BD00BF20ED00E02000002070B50446B8
:1058C800FFF74AFA274B1B6873B9274A274B13601F
:1058D80000205060264A4FF4A04151601060596082
:1058E8001A6001221F4B1A6034B1103414F0070FEC
:1058F80002D024F007040834621E44F6FE739A426C
:1059080028D819490B6801E0194613465A68A2427B
:1059180002D21A68002AF7D1154A93421CD00D68A2
:1059280010351A680A605A68121B202A0CD91E19E9
:1059380072605C6074680C4900E011460A6850683F
:10594800A042FAD332600E6059680A4A13685B1A9B
:10595800136002E0002500E00025FFF787FA2846DB
:1059680070BD00BFA0660020986600209816002031
:10597800A466002024000020D0B170B50546A0F12F
:105988001006FFF7E9F955F80C4C0A4A00E01A46E8
:1059980013685968A142FAD345F8103C166055F8C7
:1059A8000C1C054A13680B441360FFF75FFA70BDBF
:1059B800704700BF98660020240000208B892DE9DD
:1059C800F0419AB20D46110780463CD46A6843F408
:1059D8000063002AAB8165DDAE6A002E4BD09BB216
:1059E80003F48052002192B2D8F80040C8F80010A1
:1059F800002A5BD02A6D5F0705D569682B6B521AA0
:105A08000BB1EB6BD21A4046E9690023B047461C3C
:105A180056D0AB892A6923F400639BB200212A601F
:105A2800DA04AB8169603BD4296BC8F8004011B334
:105A380005F14003994202D0404600F061F9002088
:105A48002863BDE8F0812E69AEB191072C680CBFC0
:105A58006B6900232E60A41BAB600AE03246234624
:105A68006F6A4046E969B8470028A4EB0004064479
:105A780004DD002CF2DC0020BDE8F081AB894FF09A
:105A8800FF3043F04003AB81BDE8F081AB892A6960
:105A980023F400639BB2AB81DB0469602A60C3D541
:105AA8002865C1E7EA6B002A96DCE4E70123404653
:105AB800E969B047431C024619D0AB89AE6A9AE738
:105AC800D8F800100029E1D01D2907D0162905D0E3
